{
	"contracts/TPC.sol": {
		"TPC": {
			"abi": [
				{
					"inputs": [
						{
							"internalType": "uint256",
							"name": "",
							"type": "uint256"
						}
					],
					"name": "_participants",
					"outputs": [
						{
							"internalType": "uint256",
							"name": "",
							"type": "uint256"
						}
					],
					"stateMutability": "view",
					"type": "function"
				},
				{
					"inputs": [],
					"name": "_state",
					"outputs": [
						{
							"internalType": "enum TPC.State",
							"name": "",
							"type": "uint8"
						}
					],
					"stateMutability": "view",
					"type": "function"
				},
				{
					"inputs": [],
					"name": "_timeout",
					"outputs": [
						{
							"internalType": "uint256",
							"name": "",
							"type": "uint256"
						}
					],
					"stateMutability": "view",
					"type": "function"
				},
				{
					"inputs": [
						{
							"internalType": "uint256",
							"name": "",
							"type": "uint256"
						}
					],
					"name": "_voted",
					"outputs": [
						{
							"internalType": "address",
							"name": "",
							"type": "address"
						}
					],
					"stateMutability": "view",
					"type": "function"
				},
				{
					"inputs": [
						{
							"internalType": "uint256[]",
							"name": "participants",
							"type": "uint256[]"
						},
						{
							"internalType": "uint256",
							"name": "timeout",
							"type": "uint256"
						}
					],
					"name": "request",
					"outputs": [],
					"stateMutability": "nonpayable",
					"type": "function"
				},
				{
					"inputs": [
						{
							"internalType": "int256",
							"name": "vote",
							"type": "int256"
						}
					],
					"name": "voter",
					"outputs": [],
					"stateMutability": "nonpayable",
					"type": "function"
				}
			],
			"devdoc": {
				"details": "Store & retrieve value in a variable",
				"kind": "dev",
				"methods": {},
				"title": "Storage",
				"version": 1
			},
			"evm": {
				"assembly": "    /* \"contracts/TPC.sol\":141:701  contract TPC {... */\n  mstore(0x40, 0x80)\n    /* \"contracts/TPC.sol\":323:333  State.INIT */\n  0x00\n    /* \"contracts/TPC.sol\":301:333  State public _state = State.INIT */\n  0x03\n  exp(0x0100, 0x00)\n  dup2\n  sload\n  dup2\n  0xff\n  mul\n  not\n  and\n  swap1\n  dup4\n  0x03\n  dup2\n  gt\n  iszero\n  tag_1\n  jumpi\n  tag_2\n  tag_3\n  jump\t// in\ntag_2:\ntag_1:\n  mul\n  or\n  swap1\n  sstore\n  pop\n    /* \"contracts/TPC.sol\":141:701  contract TPC {... */\n  callvalue\n  dup1\n  iszero\n  tag_4\n  jumpi\n  0x00\n  dup1\n  revert\ntag_4:\n  pop\n  jump(tag_5)\n    /* \"#utility.yul\":7:187   */\ntag_3:\n    /* \"#utility.yul\":55:132   */\n  0x4e487b7100000000000000000000000000000000000000000000000000000000\n    /* \"#utility.yul\":52:53   */\n  0x00\n    /* \"#utility.yul\":45:133   */\n  mstore\n    /* \"#utility.yul\":152:156   */\n  0x21\n    /* \"#utility.yul\":149:150   */\n  0x04\n    /* \"#utility.yul\":142:157   */\n  mstore\n    /* \"#utility.yul\":176:180   */\n  0x24\n    /* \"#utility.yul\":173:174   */\n  0x00\n    /* \"#utility.yul\":166:181   */\n  revert\n    /* \"contracts/TPC.sol\":141:701  contract TPC {... */\ntag_5:\n  dataSize(sub_0)\n  dup1\n  dataOffset(sub_0)\n  0x00\n  codecopy\n  0x00\n  return\nstop\n\nsub_0: assembly {\n        /* \"contracts/TPC.sol\":141:701  contract TPC {... */\n      mstore(0x40, 0x80)\n      callvalue\n      dup1\n      iszero\n      tag_1\n      jumpi\n      0x00\n      dup1\n      revert\n    tag_1:\n      pop\n      jumpi(tag_2, lt(calldatasize, 0x04))\n      shr(0xe0, calldataload(0x00))\n      dup1\n      0x0e2b5e4f\n      eq\n      tag_3\n      jumpi\n      dup1\n      0x170bd1c8\n      eq\n      tag_4\n      jumpi\n      dup1\n      0xa1cb31b7\n      eq\n      tag_5\n      jumpi\n      dup1\n      0xa81780c6\n      eq\n      tag_6\n      jumpi\n      dup1\n      0xf196f824\n      eq\n      tag_7\n      jumpi\n      dup1\n      0xfff94931\n      eq\n      tag_8\n      jumpi\n    tag_2:\n      0x00\n      dup1\n      revert\n        /* \"contracts/TPC.sol\":560:699  function voter(int vote) public {... */\n    tag_3:\n      tag_9\n      0x04\n      dup1\n      calldatasize\n      sub\n      dup2\n      add\n      swap1\n      tag_10\n      swap2\n      swap1\n      tag_11\n      jump\t// in\n    tag_10:\n      tag_12\n      jump\t// in\n    tag_9:\n      stop\n        /* \"contracts/TPC.sol\":243:266  address[] public _voted */\n    tag_4:\n      tag_13\n      0x04\n      dup1\n      calldatasize\n      sub\n      dup2\n      add\n      swap1\n      tag_14\n      swap2\n      swap1\n      tag_15\n      jump\t// in\n    tag_14:\n      tag_16\n      jump\t// in\n    tag_13:\n      mload(0x40)\n      tag_17\n      swap2\n      swap1\n      tag_18\n      jump\t// in\n    tag_17:\n      mload(0x40)\n      dup1\n      swap2\n      sub\n      swap1\n      return\n        /* \"contracts/TPC.sol\":301:333  State public _state = State.INIT */\n    tag_5:\n      tag_19\n      tag_20\n      jump\t// in\n    tag_19:\n      mload(0x40)\n      tag_21\n      swap2\n      swap1\n      tag_22\n      jump\t// in\n    tag_21:\n      mload(0x40)\n      dup1\n      swap2\n      sub\n      swap1\n      return\n        /* \"contracts/TPC.sol\":340:554  function request(uint256[] memory participants, uint256 timeout) public {... */\n    tag_6:\n      tag_23\n      0x04\n      dup1\n      calldatasize\n      sub\n      dup2\n      add\n      swap1\n      tag_24\n      swap2\n      swap1\n      tag_25\n      jump\t// in\n    tag_24:\n      tag_26\n      jump\t// in\n    tag_23:\n      stop\n        /* \"contracts/TPC.sol\":207:237  uint256[] public _participants */\n    tag_7:\n      tag_27\n      0x04\n      dup1\n      calldatasize\n      sub\n      dup2\n      add\n      swap1\n      tag_28\n      swap2\n      swap1\n      tag_15\n      jump\t// in\n    tag_28:\n      tag_29\n      jump\t// in\n    tag_27:\n      mload(0x40)\n      tag_30\n      swap2\n      swap1\n      tag_31\n      jump\t// in\n    tag_30:\n      mload(0x40)\n      dup1\n      swap2\n      sub\n      swap1\n      return\n        /* \"contracts/TPC.sol\":272:295  uint256 public _timeout */\n    tag_8:\n      tag_32\n      tag_33\n      jump\t// in\n    tag_32:\n      mload(0x40)\n      tag_34\n      swap2\n      swap1\n      tag_31\n      jump\t// in\n    tag_34:\n      mload(0x40)\n      dup1\n      swap2\n      sub\n      swap1\n      return\n        /* \"contracts/TPC.sol\":560:699  function voter(int vote) public {... */\n    tag_12:\n        /* \"contracts/TPC.sol\":619:631  State.VOTING */\n      0x01\n        /* \"contracts/TPC.sol\":609:631  _state == State.VOTING */\n      0x03\n      dup2\n      gt\n      iszero\n      tag_36\n      jumpi\n      tag_37\n      tag_38\n      jump\t// in\n    tag_37:\n    tag_36:\n        /* \"contracts/TPC.sol\":609:615  _state */\n      0x03\n      0x00\n      swap1\n      sload\n      swap1\n      0x0100\n      exp\n      swap1\n      div\n      0xff\n      and\n        /* \"contracts/TPC.sol\":609:631  _state == State.VOTING */\n      0x03\n      dup2\n      gt\n      iszero\n      tag_39\n      jumpi\n      tag_40\n      tag_38\n      jump\t// in\n    tag_40:\n    tag_39:\n      eq\n        /* \"contracts/TPC.sol\":602:632  assert(_state == State.VOTING) */\n      tag_41\n      jumpi\n      tag_42\n      tag_43\n      jump\t// in\n    tag_42:\n    tag_41:\n        /* \"contracts/TPC.sol\":657:658  1 */\n      0x01\n        /* \"contracts/TPC.sol\":649:653  vote */\n      dup2\n        /* \"contracts/TPC.sol\":649:658  vote == 1 */\n      eq\n        /* \"contracts/TPC.sol\":642:659  assert(vote == 1) */\n      tag_44\n      jumpi\n      tag_45\n      tag_43\n      jump\t// in\n    tag_45:\n    tag_44:\n        /* \"contracts/TPC.sol\":669:675  _voted */\n      0x01\n        /* \"contracts/TPC.sol\":681:691  msg.sender */\n      caller\n        /* \"contracts/TPC.sol\":669:692  _voted.push(msg.sender) */\n      swap1\n      dup1\n      0x01\n      dup2\n      sload\n      add\n      dup1\n      dup3\n      sstore\n      dup1\n      swap2\n      pop\n      pop\n      0x01\n      swap1\n      sub\n      swap1\n      0x00\n      mstore\n      keccak256(0x00, 0x20)\n      add\n      0x00\n      swap1\n      swap2\n      swap1\n      swap2\n      swap1\n      swap2\n      0x0100\n      exp\n      dup2\n      sload\n      dup2\n      0xffffffffffffffffffffffffffffffffffffffff\n      mul\n      not\n      and\n      swap1\n      dup4\n      0xffffffffffffffffffffffffffffffffffffffff\n      and\n      mul\n      or\n      swap1\n      sstore\n      pop\n        /* \"contracts/TPC.sol\":560:699  function voter(int vote) public {... */\n      pop\n      jump\t// out\n        /* \"contracts/TPC.sol\":243:266  address[] public _voted */\n    tag_16:\n      0x01\n      dup2\n      dup2\n      sload\n      dup2\n      lt\n      tag_47\n      jumpi\n      0x00\n      dup1\n      revert\n    tag_47:\n      swap1\n      0x00\n      mstore\n      keccak256(0x00, 0x20)\n      add\n      0x00\n      swap2\n      pop\n      sload\n      swap1\n      0x0100\n      exp\n      swap1\n      div\n      0xffffffffffffffffffffffffffffffffffffffff\n      and\n      dup2\n      jump\t// out\n        /* \"contracts/TPC.sol\":301:333  State public _state = State.INIT */\n    tag_20:\n      0x03\n      0x00\n      swap1\n      sload\n      swap1\n      0x0100\n      exp\n      swap1\n      div\n      0xff\n      and\n      dup2\n      jump\t// out\n        /* \"contracts/TPC.sol\":340:554  function request(uint256[] memory participants, uint256 timeout) public {... */\n    tag_26:\n        /* \"contracts/TPC.sol\":439:449  State.INIT */\n      0x00\n        /* \"contracts/TPC.sol\":429:449  _state == State.INIT */\n      0x03\n      dup2\n      gt\n      iszero\n      tag_50\n      jumpi\n      tag_51\n      tag_38\n      jump\t// in\n    tag_51:\n    tag_50:\n        /* \"contracts/TPC.sol\":429:435  _state */\n      0x03\n      0x00\n      swap1\n      sload\n      swap1\n      0x0100\n      exp\n      swap1\n      div\n      0xff\n      and\n        /* \"contracts/TPC.sol\":429:449  _state == State.INIT */\n      0x03\n      dup2\n      gt\n      iszero\n      tag_52\n      jumpi\n      tag_53\n      tag_38\n      jump\t// in\n    tag_53:\n    tag_52:\n      eq\n        /* \"contracts/TPC.sol\":422:450  assert(_state == State.INIT) */\n      tag_54\n      jumpi\n      tag_55\n      tag_43\n      jump\t// in\n    tag_55:\n    tag_54:\n        /* \"contracts/TPC.sol\":476:488  participants */\n      dup2\n        /* \"contracts/TPC.sol\":460:473  _participants */\n      0x00\n        /* \"contracts/TPC.sol\":460:488  _participants = participants */\n      swap1\n      dup1\n      mload\n      swap1\n      0x20\n      add\n      swap1\n      tag_56\n      swap3\n      swap2\n      swap1\n      tag_57\n      jump\t// in\n    tag_56:\n      pop\n        /* \"contracts/TPC.sol\":509:516  timeout */\n      dup1\n        /* \"contracts/TPC.sol\":498:506  _timeout */\n      0x02\n        /* \"contracts/TPC.sol\":498:516  _timeout = timeout */\n      dup2\n      swap1\n      sstore\n      pop\n        /* \"contracts/TPC.sol\":535:547  State.VOTING */\n      0x01\n        /* \"contracts/TPC.sol\":526:532  _state */\n      0x03\n      0x00\n        /* \"contracts/TPC.sol\":526:547  _state = State.VOTING */\n      0x0100\n      exp\n      dup2\n      sload\n      dup2\n      0xff\n      mul\n      not\n      and\n      swap1\n      dup4\n      0x03\n      dup2\n      gt\n      iszero\n      tag_58\n      jumpi\n      tag_59\n      tag_38\n      jump\t// in\n    tag_59:\n    tag_58:\n      mul\n      or\n      swap1\n      sstore\n      pop\n        /* \"contracts/TPC.sol\":340:554  function request(uint256[] memory participants, uint256 timeout) public {... */\n      pop\n      pop\n      jump\t// out\n        /* \"contracts/TPC.sol\":207:237  uint256[] public _participants */\n    tag_29:\n      0x00\n      dup2\n      dup2\n      sload\n      dup2\n      lt\n      tag_60\n      jumpi\n      0x00\n      dup1\n      revert\n    tag_60:\n      swap1\n      0x00\n      mstore\n      keccak256(0x00, 0x20)\n      add\n      0x00\n      swap2\n      pop\n      swap1\n      pop\n      sload\n      dup2\n      jump\t// out\n        /* \"contracts/TPC.sol\":272:295  uint256 public _timeout */\n    tag_33:\n      sload(0x02)\n      dup2\n      jump\t// out\n    tag_57:\n      dup3\n      dup1\n      sload\n      dup3\n      dup3\n      sstore\n      swap1\n      0x00\n      mstore\n      keccak256(0x00, 0x20)\n      swap1\n      dup2\n      add\n      swap3\n      dup3\n      iszero\n      tag_62\n      jumpi\n      swap2\n      0x20\n      mul\n      dup3\n      add\n    tag_63:\n      dup3\n      dup2\n      gt\n      iszero\n      tag_64\n      jumpi\n      dup3\n      mload\n      dup3\n      sstore\n      swap2\n      0x20\n      add\n      swap2\n      swap1\n      0x01\n      add\n      swap1\n      jump(tag_63)\n    tag_64:\n    tag_62:\n      pop\n      swap1\n      pop\n      tag_65\n      swap2\n      swap1\n      tag_66\n      jump\t// in\n    tag_65:\n      pop\n      swap1\n      jump\t// out\n    tag_66:\n    tag_67:\n      dup1\n      dup3\n      gt\n      iszero\n      tag_68\n      jumpi\n      0x00\n      dup2\n      0x00\n      swap1\n      sstore\n      pop\n      0x01\n      add\n      jump(tag_67)\n    tag_68:\n      pop\n      swap1\n      jump\t// out\n        /* \"#utility.yul\":24:746   */\n    tag_70:\n        /* \"#utility.yul\":120:125   */\n      0x00\n        /* \"#utility.yul\":145:226   */\n      tag_72\n        /* \"#utility.yul\":161:225   */\n      tag_73\n        /* \"#utility.yul\":218:224   */\n      dup5\n        /* \"#utility.yul\":161:225   */\n      tag_74\n      jump\t// in\n    tag_73:\n        /* \"#utility.yul\":145:226   */\n      tag_75\n      jump\t// in\n    tag_72:\n        /* \"#utility.yul\":136:226   */\n      swap1\n      pop\n        /* \"#utility.yul\":246:251   */\n      dup1\n        /* \"#utility.yul\":275:281   */\n      dup4\n        /* \"#utility.yul\":268:273   */\n      dup3\n        /* \"#utility.yul\":261:282   */\n      mstore\n        /* \"#utility.yul\":309:313   */\n      0x20\n        /* \"#utility.yul\":302:307   */\n      dup3\n        /* \"#utility.yul\":298:314   */\n      add\n        /* \"#utility.yul\":291:314   */\n      swap1\n      pop\n        /* \"#utility.yul\":335:341   */\n      dup3\n        /* \"#utility.yul\":385:388   */\n      dup6\n        /* \"#utility.yul\":377:381   */\n      0x20\n        /* \"#utility.yul\":369:375   */\n      dup7\n        /* \"#utility.yul\":365:382   */\n      mul\n        /* \"#utility.yul\":360:363   */\n      dup3\n        /* \"#utility.yul\":356:383   */\n      add\n        /* \"#utility.yul\":353:389   */\n      gt\n        /* \"#utility.yul\":350:493   */\n      iszero\n      tag_76\n      jumpi\n        /* \"#utility.yul\":404:483   */\n      tag_77\n      tag_78\n      jump\t// in\n    tag_77:\n        /* \"#utility.yul\":350:493   */\n    tag_76:\n        /* \"#utility.yul\":517:518   */\n      0x00\n        /* \"#utility.yul\":502:740   */\n    tag_79:\n        /* \"#utility.yul\":527:533   */\n      dup6\n        /* \"#utility.yul\":524:525   */\n      dup2\n        /* \"#utility.yul\":521:534   */\n      lt\n        /* \"#utility.yul\":502:740   */\n      iszero\n      tag_81\n      jumpi\n        /* \"#utility.yul\":595:598   */\n      dup2\n        /* \"#utility.yul\":624:661   */\n      tag_82\n        /* \"#utility.yul\":657:660   */\n      dup9\n        /* \"#utility.yul\":645:655   */\n      dup3\n        /* \"#utility.yul\":624:661   */\n      tag_83\n      jump\t// in\n    tag_82:\n        /* \"#utility.yul\":619:622   */\n      dup5\n        /* \"#utility.yul\":612:662   */\n      mstore\n        /* \"#utility.yul\":691:695   */\n      0x20\n        /* \"#utility.yul\":686:689   */\n      dup5\n        /* \"#utility.yul\":682:696   */\n      add\n        /* \"#utility.yul\":675:696   */\n      swap4\n      pop\n        /* \"#utility.yul\":725:729   */\n      0x20\n        /* \"#utility.yul\":720:723   */\n      dup4\n        /* \"#utility.yul\":716:730   */\n      add\n        /* \"#utility.yul\":709:730   */\n      swap3\n      pop\n        /* \"#utility.yul\":562:740   */\n      pop\n        /* \"#utility.yul\":549:550   */\n      0x01\n        /* \"#utility.yul\":546:547   */\n      dup2\n        /* \"#utility.yul\":542:551   */\n      add\n        /* \"#utility.yul\":537:551   */\n      swap1\n      pop\n        /* \"#utility.yul\":502:740   */\n      jump(tag_79)\n    tag_81:\n        /* \"#utility.yul\":506:520   */\n      pop\n        /* \"#utility.yul\":126:746   */\n      pop\n      pop\n        /* \"#utility.yul\":24:746   */\n      swap4\n      swap3\n      pop\n      pop\n      pop\n      jump\t// out\n        /* \"#utility.yul\":769:1139   */\n    tag_84:\n        /* \"#utility.yul\":840:845   */\n      0x00\n        /* \"#utility.yul\":889:892   */\n      dup3\n        /* \"#utility.yul\":882:886   */\n      0x1f\n        /* \"#utility.yul\":874:880   */\n      dup4\n        /* \"#utility.yul\":870:887   */\n      add\n        /* \"#utility.yul\":866:893   */\n      slt\n        /* \"#utility.yul\":856:978   */\n      tag_86\n      jumpi\n        /* \"#utility.yul\":897:976   */\n      tag_87\n      tag_88\n      jump\t// in\n    tag_87:\n        /* \"#utility.yul\":856:978   */\n    tag_86:\n        /* \"#utility.yul\":1014:1020   */\n      dup2\n        /* \"#utility.yul\":1001:1021   */\n      calldataload\n        /* \"#utility.yul\":1039:1133   */\n      tag_89\n        /* \"#utility.yul\":1129:1132   */\n      dup5\n        /* \"#utility.yul\":1121:1127   */\n      dup3\n        /* \"#utility.yul\":1114:1118   */\n      0x20\n        /* \"#utility.yul\":1106:1112   */\n      dup7\n        /* \"#utility.yul\":1102:1119   */\n      add\n        /* \"#utility.yul\":1039:1133   */\n      tag_70\n      jump\t// in\n    tag_89:\n        /* \"#utility.yul\":1030:1133   */\n      swap2\n      pop\n        /* \"#utility.yul\":846:1139   */\n      pop\n        /* \"#utility.yul\":769:1139   */\n      swap3\n      swap2\n      pop\n      pop\n      jump\t// out\n        /* \"#utility.yul\":1145:1282   */\n    tag_90:\n        /* \"#utility.yul\":1190:1195   */\n      0x00\n        /* \"#utility.yul\":1228:1234   */\n      dup2\n        /* \"#utility.yul\":1215:1235   */\n      calldataload\n        /* \"#utility.yul\":1206:1235   */\n      swap1\n      pop\n        /* \"#utility.yul\":1244:1276   */\n      tag_92\n        /* \"#utility.yul\":1270:1275   */\n      dup2\n        /* \"#utility.yul\":1244:1276   */\n      tag_93\n      jump\t// in\n    tag_92:\n        /* \"#utility.yul\":1145:1282   */\n      swap3\n      swap2\n      pop\n      pop\n      jump\t// out\n        /* \"#utility.yul\":1288:1427   */\n    tag_83:\n        /* \"#utility.yul\":1334:1339   */\n      0x00\n        /* \"#utility.yul\":1372:1378   */\n      dup2\n        /* \"#utility.yul\":1359:1379   */\n      calldataload\n        /* \"#utility.yul\":1350:1379   */\n      swap1\n      pop\n        /* \"#utility.yul\":1388:1421   */\n      tag_95\n        /* \"#utility.yul\":1415:1420   */\n      dup2\n        /* \"#utility.yul\":1388:1421   */\n      tag_96\n      jump\t// in\n    tag_95:\n        /* \"#utility.yul\":1288:1427   */\n      swap3\n      swap2\n      pop\n      pop\n      jump\t// out\n        /* \"#utility.yul\":1433:2117   */\n    tag_25:\n        /* \"#utility.yul\":1526:1532   */\n      0x00\n        /* \"#utility.yul\":1534:1540   */\n      dup1\n        /* \"#utility.yul\":1583:1585   */\n      0x40\n        /* \"#utility.yul\":1571:1580   */\n      dup4\n        /* \"#utility.yul\":1562:1569   */\n      dup6\n        /* \"#utility.yul\":1558:1581   */\n      sub\n        /* \"#utility.yul\":1554:1586   */\n      slt\n        /* \"#utility.yul\":1551:1670   */\n      iszero\n      tag_98\n      jumpi\n        /* \"#utility.yul\":1589:1668   */\n      tag_99\n      tag_100\n      jump\t// in\n    tag_99:\n        /* \"#utility.yul\":1551:1670   */\n    tag_98:\n        /* \"#utility.yul\":1737:1738   */\n      0x00\n        /* \"#utility.yul\":1726:1735   */\n      dup4\n        /* \"#utility.yul\":1722:1739   */\n      add\n        /* \"#utility.yul\":1709:1740   */\n      calldataload\n        /* \"#utility.yul\":1767:1785   */\n      0xffffffffffffffff\n        /* \"#utility.yul\":1759:1765   */\n      dup2\n        /* \"#utility.yul\":1756:1786   */\n      gt\n        /* \"#utility.yul\":1753:1870   */\n      iszero\n      tag_101\n      jumpi\n        /* \"#utility.yul\":1789:1868   */\n      tag_102\n      tag_103\n      jump\t// in\n    tag_102:\n        /* \"#utility.yul\":1753:1870   */\n    tag_101:\n        /* \"#utility.yul\":1894:1972   */\n      tag_104\n        /* \"#utility.yul\":1964:1971   */\n      dup6\n        /* \"#utility.yul\":1955:1961   */\n      dup3\n        /* \"#utility.yul\":1944:1953   */\n      dup7\n        /* \"#utility.yul\":1940:1962   */\n      add\n        /* \"#utility.yul\":1894:1972   */\n      tag_84\n      jump\t// in\n    tag_104:\n        /* \"#utility.yul\":1884:1972   */\n      swap3\n      pop\n        /* \"#utility.yul\":1680:1982   */\n      pop\n        /* \"#utility.yul\":2021:2023   */\n      0x20\n        /* \"#utility.yul\":2047:2100   */\n      tag_105\n        /* \"#utility.yul\":2092:2099   */\n      dup6\n        /* \"#utility.yul\":2083:2089   */\n      dup3\n        /* \"#utility.yul\":2072:2081   */\n      dup7\n        /* \"#utility.yul\":2068:2090   */\n      add\n        /* \"#utility.yul\":2047:2100   */\n      tag_83\n      jump\t// in\n    tag_105:\n        /* \"#utility.yul\":2037:2100   */\n      swap2\n      pop\n        /* \"#utility.yul\":1992:2110   */\n      pop\n        /* \"#utility.yul\":1433:2117   */\n      swap3\n      pop\n      swap3\n      swap1\n      pop\n      jump\t// out\n        /* \"#utility.yul\":2123:2450   */\n    tag_11:\n        /* \"#utility.yul\":2181:2187   */\n      0x00\n        /* \"#utility.yul\":2230:2232   */\n      0x20\n        /* \"#utility.yul\":2218:2227   */\n      dup3\n        /* \"#utility.yul\":2209:2216   */\n      dup5\n        /* \"#utility.yul\":2205:2228   */\n      sub\n        /* \"#utility.yul\":2201:2233   */\n      slt\n        /* \"#utility.yul\":2198:2317   */\n      iszero\n      tag_107\n      jumpi\n        /* \"#utility.yul\":2236:2315   */\n      tag_108\n      tag_100\n      jump\t// in\n    tag_108:\n        /* \"#utility.yul\":2198:2317   */\n    tag_107:\n        /* \"#utility.yul\":2356:2357   */\n      0x00\n        /* \"#utility.yul\":2381:2433   */\n      tag_109\n        /* \"#utility.yul\":2425:2432   */\n      dup5\n        /* \"#utility.yul\":2416:2422   */\n      dup3\n        /* \"#utility.yul\":2405:2414   */\n      dup6\n        /* \"#utility.yul\":2401:2423   */\n      add\n        /* \"#utility.yul\":2381:2433   */\n      tag_90\n      jump\t// in\n    tag_109:\n        /* \"#utility.yul\":2371:2433   */\n      swap2\n      pop\n        /* \"#utility.yul\":2327:2443   */\n      pop\n        /* \"#utility.yul\":2123:2450   */\n      swap3\n      swap2\n      pop\n      pop\n      jump\t// out\n        /* \"#utility.yul\":2456:2785   */\n    tag_15:\n        /* \"#utility.yul\":2515:2521   */\n      0x00\n        /* \"#utility.yul\":2564:2566   */\n      0x20\n        /* \"#utility.yul\":2552:2561   */\n      dup3\n        /* \"#utility.yul\":2543:2550   */\n      dup5\n        /* \"#utility.yul\":2539:2562   */\n      sub\n        /* \"#utility.yul\":2535:2567   */\n      slt\n        /* \"#utility.yul\":2532:2651   */\n      iszero\n      tag_111\n      jumpi\n        /* \"#utility.yul\":2570:2649   */\n      tag_112\n      tag_100\n      jump\t// in\n    tag_112:\n        /* \"#utility.yul\":2532:2651   */\n    tag_111:\n        /* \"#utility.yul\":2690:2691   */\n      0x00\n        /* \"#utility.yul\":2715:2768   */\n      tag_113\n        /* \"#utility.yul\":2760:2767   */\n      dup5\n        /* \"#utility.yul\":2751:2757   */\n      dup3\n        /* \"#utility.yul\":2740:2749   */\n      dup6\n        /* \"#utility.yul\":2736:2758   */\n      add\n        /* \"#utility.yul\":2715:2768   */\n      tag_83\n      jump\t// in\n    tag_113:\n        /* \"#utility.yul\":2705:2768   */\n      swap2\n      pop\n        /* \"#utility.yul\":2661:2778   */\n      pop\n        /* \"#utility.yul\":2456:2785   */\n      swap3\n      swap2\n      pop\n      pop\n      jump\t// out\n        /* \"#utility.yul\":2791:2909   */\n    tag_114:\n        /* \"#utility.yul\":2878:2902   */\n      tag_116\n        /* \"#utility.yul\":2896:2901   */\n      dup2\n        /* \"#utility.yul\":2878:2902   */\n      tag_117\n      jump\t// in\n    tag_116:\n        /* \"#utility.yul\":2873:2876   */\n      dup3\n        /* \"#utility.yul\":2866:2903   */\n      mstore\n        /* \"#utility.yul\":2791:2909   */\n      pop\n      pop\n      jump\t// out\n        /* \"#utility.yul\":2915:3056   */\n    tag_118:\n        /* \"#utility.yul\":3007:3049   */\n      tag_120\n        /* \"#utility.yul\":3043:3048   */\n      dup2\n        /* \"#utility.yul\":3007:3049   */\n      tag_121\n      jump\t// in\n    tag_120:\n        /* \"#utility.yul\":3002:3005   */\n      dup3\n        /* \"#utility.yul\":2995:3050   */\n      mstore\n        /* \"#utility.yul\":2915:3056   */\n      pop\n      pop\n      jump\t// out\n        /* \"#utility.yul\":3062:3180   */\n    tag_122:\n        /* \"#utility.yul\":3149:3173   */\n      tag_124\n        /* \"#utility.yul\":3167:3172   */\n      dup2\n        /* \"#utility.yul\":3149:3173   */\n      tag_125\n      jump\t// in\n    tag_124:\n        /* \"#utility.yul\":3144:3147   */\n      dup3\n        /* \"#utility.yul\":3137:3174   */\n      mstore\n        /* \"#utility.yul\":3062:3180   */\n      pop\n      pop\n      jump\t// out\n        /* \"#utility.yul\":3186:3408   */\n    tag_18:\n        /* \"#utility.yul\":3279:3283   */\n      0x00\n        /* \"#utility.yul\":3317:3319   */\n      0x20\n        /* \"#utility.yul\":3306:3315   */\n      dup3\n        /* \"#utility.yul\":3302:3320   */\n      add\n        /* \"#utility.yul\":3294:3320   */\n      swap1\n      pop\n        /* \"#utility.yul\":3330:3401   */\n      tag_127\n        /* \"#utility.yul\":3398:3399   */\n      0x00\n        /* \"#utility.yul\":3387:3396   */\n      dup4\n        /* \"#utility.yul\":3383:3400   */\n      add\n        /* \"#utility.yul\":3374:3380   */\n      dup5\n        /* \"#utility.yul\":3330:3401   */\n      tag_114\n      jump\t// in\n    tag_127:\n        /* \"#utility.yul\":3186:3408   */\n      swap3\n      swap2\n      pop\n      pop\n      jump\t// out\n        /* \"#utility.yul\":3414:3646   */\n    tag_22:\n        /* \"#utility.yul\":3512:3516   */\n      0x00\n        /* \"#utility.yul\":3550:3552   */\n      0x20\n        /* \"#utility.yul\":3539:3548   */\n      dup3\n        /* \"#utility.yul\":3535:3553   */\n      add\n        /* \"#utility.yul\":3527:3553   */\n      swap1\n      pop\n        /* \"#utility.yul\":3563:3639   */\n      tag_129\n        /* \"#utility.yul\":3636:3637   */\n      0x00\n        /* \"#utility.yul\":3625:3634   */\n      dup4\n        /* \"#utility.yul\":3621:3638   */\n      add\n        /* \"#utility.yul\":3612:3618   */\n      dup5\n        /* \"#utility.yul\":3563:3639   */\n      tag_118\n      jump\t// in\n    tag_129:\n        /* \"#utility.yul\":3414:3646   */\n      swap3\n      swap2\n      pop\n      pop\n      jump\t// out\n        /* \"#utility.yul\":3652:3874   */\n    tag_31:\n        /* \"#utility.yul\":3745:3749   */\n      0x00\n        /* \"#utility.yul\":3783:3785   */\n      0x20\n        /* \"#utility.yul\":3772:3781   */\n      dup3\n        /* \"#utility.yul\":3768:3786   */\n      add\n        /* \"#utility.yul\":3760:3786   */\n      swap1\n      pop\n        /* \"#utility.yul\":3796:3867   */\n      tag_131\n        /* \"#utility.yul\":3864:3865   */\n      0x00\n        /* \"#utility.yul\":3853:3862   */\n      dup4\n        /* \"#utility.yul\":3849:3866   */\n      add\n        /* \"#utility.yul\":3840:3846   */\n      dup5\n        /* \"#utility.yul\":3796:3867   */\n      tag_122\n      jump\t// in\n    tag_131:\n        /* \"#utility.yul\":3652:3874   */\n      swap3\n      swap2\n      pop\n      pop\n      jump\t// out\n        /* \"#utility.yul\":3880:4009   */\n    tag_75:\n        /* \"#utility.yul\":3914:3920   */\n      0x00\n        /* \"#utility.yul\":3941:3961   */\n      tag_133\n      tag_134\n      jump\t// in\n    tag_133:\n        /* \"#utility.yul\":3931:3961   */\n      swap1\n      pop\n        /* \"#utility.yul\":3970:4003   */\n      tag_135\n        /* \"#utility.yul\":3998:4002   */\n      dup3\n        /* \"#utility.yul\":3990:3996   */\n      dup3\n        /* \"#utility.yul\":3970:4003   */\n      tag_136\n      jump\t// in\n    tag_135:\n        /* \"#utility.yul\":3880:4009   */\n      swap2\n      swap1\n      pop\n      jump\t// out\n        /* \"#utility.yul\":4015:4090   */\n    tag_134:\n        /* \"#utility.yul\":4048:4054   */\n      0x00\n        /* \"#utility.yul\":4081:4083   */\n      0x40\n        /* \"#utility.yul\":4075:4084   */\n      mload\n        /* \"#utility.yul\":4065:4084   */\n      swap1\n      pop\n        /* \"#utility.yul\":4015:4090   */\n      swap1\n      jump\t// out\n        /* \"#utility.yul\":4096:4407   */\n    tag_74:\n        /* \"#utility.yul\":4173:4177   */\n      0x00\n        /* \"#utility.yul\":4263:4281   */\n      0xffffffffffffffff\n        /* \"#utility.yul\":4255:4261   */\n      dup3\n        /* \"#utility.yul\":4252:4282   */\n      gt\n        /* \"#utility.yul\":4249:4305   */\n      iszero\n      tag_139\n      jumpi\n        /* \"#utility.yul\":4285:4303   */\n      tag_140\n      tag_141\n      jump\t// in\n    tag_140:\n        /* \"#utility.yul\":4249:4305   */\n    tag_139:\n        /* \"#utility.yul\":4335:4339   */\n      0x20\n        /* \"#utility.yul\":4327:4333   */\n      dup3\n        /* \"#utility.yul\":4323:4340   */\n      mul\n        /* \"#utility.yul\":4315:4340   */\n      swap1\n      pop\n        /* \"#utility.yul\":4395:4399   */\n      0x20\n        /* \"#utility.yul\":4389:4393   */\n      dup2\n        /* \"#utility.yul\":4385:4400   */\n      add\n        /* \"#utility.yul\":4377:4400   */\n      swap1\n      pop\n        /* \"#utility.yul\":4096:4407   */\n      swap2\n      swap1\n      pop\n      jump\t// out\n        /* \"#utility.yul\":4413:4509   */\n    tag_117:\n        /* \"#utility.yul\":4450:4457   */\n      0x00\n        /* \"#utility.yul\":4479:4503   */\n      tag_143\n        /* \"#utility.yul\":4497:4502   */\n      dup3\n        /* \"#utility.yul\":4479:4503   */\n      tag_144\n      jump\t// in\n    tag_143:\n        /* \"#utility.yul\":4468:4503   */\n      swap1\n      pop\n        /* \"#utility.yul\":4413:4509   */\n      swap2\n      swap1\n      pop\n      jump\t// out\n        /* \"#utility.yul\":4515:4640   */\n    tag_145:\n        /* \"#utility.yul\":4559:4566   */\n      0x00\n        /* \"#utility.yul\":4588:4593   */\n      dup2\n        /* \"#utility.yul\":4577:4593   */\n      swap1\n      pop\n        /* \"#utility.yul\":4594:4634   */\n      tag_147\n        /* \"#utility.yul\":4628:4633   */\n      dup3\n        /* \"#utility.yul\":4594:4634   */\n      tag_148\n      jump\t// in\n    tag_147:\n        /* \"#utility.yul\":4515:4640   */\n      swap2\n      swap1\n      pop\n      jump\t// out\n        /* \"#utility.yul\":4646:4722   */\n    tag_149:\n        /* \"#utility.yul\":4682:4689   */\n      0x00\n        /* \"#utility.yul\":4711:4716   */\n      dup2\n        /* \"#utility.yul\":4700:4716   */\n      swap1\n      pop\n        /* \"#utility.yul\":4646:4722   */\n      swap2\n      swap1\n      pop\n      jump\t// out\n        /* \"#utility.yul\":4728:4854   */\n    tag_144:\n        /* \"#utility.yul\":4765:4772   */\n      0x00\n        /* \"#utility.yul\":4805:4847   */\n      0xffffffffffffffffffffffffffffffffffffffff\n        /* \"#utility.yul\":4798:4803   */\n      dup3\n        /* \"#utility.yul\":4794:4848   */\n      and\n        /* \"#utility.yul\":4783:4848   */\n      swap1\n      pop\n        /* \"#utility.yul\":4728:4854   */\n      swap2\n      swap1\n      pop\n      jump\t// out\n        /* \"#utility.yul\":4860:4937   */\n    tag_125:\n        /* \"#utility.yul\":4897:4904   */\n      0x00\n        /* \"#utility.yul\":4926:4931   */\n      dup2\n        /* \"#utility.yul\":4915:4931   */\n      swap1\n      pop\n        /* \"#utility.yul\":4860:4937   */\n      swap2\n      swap1\n      pop\n      jump\t// out\n        /* \"#utility.yul\":4943:5068   */\n    tag_121:\n        /* \"#utility.yul\":4998:5007   */\n      0x00\n        /* \"#utility.yul\":5031:5062   */\n      tag_154\n        /* \"#utility.yul\":5056:5061   */\n      dup3\n        /* \"#utility.yul\":5031:5062   */\n      tag_145\n      jump\t// in\n    tag_154:\n        /* \"#utility.yul\":5018:5062   */\n      swap1\n      pop\n        /* \"#utility.yul\":4943:5068   */\n      swap2\n      swap1\n      pop\n      jump\t// out\n        /* \"#utility.yul\":5074:5355   */\n    tag_136:\n        /* \"#utility.yul\":5157:5184   */\n      tag_156\n        /* \"#utility.yul\":5179:5183   */\n      dup3\n        /* \"#utility.yul\":5157:5184   */\n      tag_157\n      jump\t// in\n    tag_156:\n        /* \"#utility.yul\":5149:5155   */\n      dup2\n        /* \"#utility.yul\":5145:5185   */\n      add\n        /* \"#utility.yul\":5287:5293   */\n      dup2\n        /* \"#utility.yul\":5275:5285   */\n      dup2\n        /* \"#utility.yul\":5272:5294   */\n      lt\n        /* \"#utility.yul\":5251:5269   */\n      0xffffffffffffffff\n        /* \"#utility.yul\":5239:5249   */\n      dup3\n        /* \"#utility.yul\":5236:5270   */\n      gt\n        /* \"#utility.yul\":5233:5295   */\n      or\n        /* \"#utility.yul\":5230:5318   */\n      iszero\n      tag_158\n      jumpi\n        /* \"#utility.yul\":5298:5316   */\n      tag_159\n      tag_141\n      jump\t// in\n    tag_159:\n        /* \"#utility.yul\":5230:5318   */\n    tag_158:\n        /* \"#utility.yul\":5338:5348   */\n      dup1\n        /* \"#utility.yul\":5334:5336   */\n      0x40\n        /* \"#utility.yul\":5327:5349   */\n      mstore\n        /* \"#utility.yul\":5117:5355   */\n      pop\n        /* \"#utility.yul\":5074:5355   */\n      pop\n      pop\n      jump\t// out\n        /* \"#utility.yul\":5361:5541   */\n    tag_43:\n        /* \"#utility.yul\":5409:5486   */\n      0x4e487b7100000000000000000000000000000000000000000000000000000000\n        /* \"#utility.yul\":5406:5407   */\n      0x00\n        /* \"#utility.yul\":5399:5487   */\n      mstore\n        /* \"#utility.yul\":5506:5510   */\n      0x01\n        /* \"#utility.yul\":5503:5504   */\n      0x04\n        /* \"#utility.yul\":5496:5511   */\n      mstore\n        /* \"#utility.yul\":5530:5534   */\n      0x24\n        /* \"#utility.yul\":5527:5528   */\n      0x00\n        /* \"#utility.yul\":5520:5535   */\n      revert\n        /* \"#utility.yul\":5547:5727   */\n    tag_38:\n        /* \"#utility.yul\":5595:5672   */\n      0x4e487b7100000000000000000000000000000000000000000000000000000000\n        /* \"#utility.yul\":5592:5593   */\n      0x00\n        /* \"#utility.yul\":5585:5673   */\n      mstore\n        /* \"#utility.yul\":5692:5696   */\n      0x21\n        /* \"#utility.yul\":5689:5690   */\n      0x04\n        /* \"#utility.yul\":5682:5697   */\n      mstore\n        /* \"#utility.yul\":5716:5720   */\n      0x24\n        /* \"#utility.yul\":5713:5714   */\n      0x00\n        /* \"#utility.yul\":5706:5721   */\n      revert\n        /* \"#utility.yul\":5733:5913   */\n    tag_141:\n        /* \"#utility.yul\":5781:5858   */\n      0x4e487b7100000000000000000000000000000000000000000000000000000000\n        /* \"#utility.yul\":5778:5779   */\n      0x00\n        /* \"#utility.yul\":5771:5859   */\n      mstore\n        /* \"#utility.yul\":5878:5882   */\n      0x41\n        /* \"#utility.yul\":5875:5876   */\n      0x04\n        /* \"#utility.yul\":5868:5883   */\n      mstore\n        /* \"#utility.yul\":5902:5906   */\n      0x24\n        /* \"#utility.yul\":5899:5900   */\n      0x00\n        /* \"#utility.yul\":5892:5907   */\n      revert\n        /* \"#utility.yul\":5919:6036   */\n    tag_88:\n        /* \"#utility.yul\":6028:6029   */\n      0x00\n        /* \"#utility.yul\":6025:6026   */\n      dup1\n        /* \"#utility.yul\":6018:6030   */\n      revert\n        /* \"#utility.yul\":6042:6159   */\n    tag_78:\n        /* \"#utility.yul\":6151:6152   */\n      0x00\n        /* \"#utility.yul\":6148:6149   */\n      dup1\n        /* \"#utility.yul\":6141:6153   */\n      revert\n        /* \"#utility.yul\":6165:6282   */\n    tag_103:\n        /* \"#utility.yul\":6274:6275   */\n      0x00\n        /* \"#utility.yul\":6271:6272   */\n      dup1\n        /* \"#utility.yul\":6264:6276   */\n      revert\n        /* \"#utility.yul\":6288:6405   */\n    tag_100:\n        /* \"#utility.yul\":6397:6398   */\n      0x00\n        /* \"#utility.yul\":6394:6395   */\n      dup1\n        /* \"#utility.yul\":6387:6399   */\n      revert\n        /* \"#utility.yul\":6411:6513   */\n    tag_157:\n        /* \"#utility.yul\":6452:6458   */\n      0x00\n        /* \"#utility.yul\":6503:6505   */\n      0x1f\n        /* \"#utility.yul\":6499:6506   */\n      not\n        /* \"#utility.yul\":6494:6496   */\n      0x1f\n        /* \"#utility.yul\":6487:6492   */\n      dup4\n        /* \"#utility.yul\":6483:6497   */\n      add\n        /* \"#utility.yul\":6479:6507   */\n      and\n        /* \"#utility.yul\":6469:6507   */\n      swap1\n      pop\n        /* \"#utility.yul\":6411:6513   */\n      swap2\n      swap1\n      pop\n      jump\t// out\n        /* \"#utility.yul\":6519:6631   */\n    tag_148:\n        /* \"#utility.yul\":6599:6600   */\n      0x04\n        /* \"#utility.yul\":6592:6597   */\n      dup2\n        /* \"#utility.yul\":6589:6601   */\n      lt\n        /* \"#utility.yul\":6579:6625   */\n      tag_169\n      jumpi\n        /* \"#utility.yul\":6605:6623   */\n      tag_170\n      tag_38\n      jump\t// in\n    tag_170:\n        /* \"#utility.yul\":6579:6625   */\n    tag_169:\n        /* \"#utility.yul\":6519:6631   */\n      pop\n      jump\t// out\n        /* \"#utility.yul\":6637:6757   */\n    tag_93:\n        /* \"#utility.yul\":6709:6732   */\n      tag_172\n        /* \"#utility.yul\":6726:6731   */\n      dup2\n        /* \"#utility.yul\":6709:6732   */\n      tag_149\n      jump\t// in\n    tag_172:\n        /* \"#utility.yul\":6702:6707   */\n      dup2\n        /* \"#utility.yul\":6699:6733   */\n      eq\n        /* \"#utility.yul\":6689:6751   */\n      tag_173\n      jumpi\n        /* \"#utility.yul\":6747:6748   */\n      0x00\n        /* \"#utility.yul\":6744:6745   */\n      dup1\n        /* \"#utility.yul\":6737:6749   */\n      revert\n        /* \"#utility.yul\":6689:6751   */\n    tag_173:\n        /* \"#utility.yul\":6637:6757   */\n      pop\n      jump\t// out\n        /* \"#utility.yul\":6763:6885   */\n    tag_96:\n        /* \"#utility.yul\":6836:6860   */\n      tag_175\n        /* \"#utility.yul\":6854:6859   */\n      dup2\n        /* \"#utility.yul\":6836:6860   */\n      tag_125\n      jump\t// in\n    tag_175:\n        /* \"#utility.yul\":6829:6834   */\n      dup2\n        /* \"#utility.yul\":6826:6861   */\n      eq\n        /* \"#utility.yul\":6816:6879   */\n      tag_176\n      jumpi\n        /* \"#utility.yul\":6875:6876   */\n      0x00\n        /* \"#utility.yul\":6872:6873   */\n      dup1\n        /* \"#utility.yul\":6865:6877   */\n      revert\n        /* \"#utility.yul\":6816:6879   */\n    tag_176:\n        /* \"#utility.yul\":6763:6885   */\n      pop\n      jump\t// out\n\n    auxdata: 0xa26469706673582212206bdc4e7fe261608794b15d2f249bd6974002cf5a757d543a299279943715d48b64736f6c63430008070033\n}\n",
				"bytecode": {
					"linkReferences": {},
					"object": "60806040526000600360006101000a81548160ff0219169083600381111561002a57610029610041565b5b021790555034801561003b57600080fd5b50610070565b7f4e487b7100000000000000000000000000000000000000000000000000000000600052602160045260246000fd5b6107808061007f6000396000f3fe608060405234801561001057600080fd5b50600436106100625760003560e01c80630e2b5e4f14610067578063170bd1c814610083578063a1cb31b7146100b3578063a81780c6146100d1578063f196f824146100ed578063fff949311461011d575b600080fd5b610081600480360381019061007c9190610491565b61013b565b005b61009d600480360381019061009891906104be565b6101f6565b6040516100aa9190610518565b60405180910390f35b6100bb610235565b6040516100c89190610533565b60405180910390f35b6100eb60048036038101906100e69190610435565b610248565b005b610107600480360381019061010291906104be565b6102d9565b604051610114919061054e565b60405180910390f35b6101256102fd565b604051610132919061054e565b60405180910390f35b6001600381111561014f5761014e610685565b5b600360009054906101000a900460ff16600381111561017157610170610685565b5b1461017f5761017e610656565b5b600181146101905761018f610656565b5b6001339080600181540180825580915050600190039060005260206000200160009091909190916101000a81548173ffffffffffffffffffffffffffffffffffffffff021916908373ffffffffffffffffffffffffffffffffffffffff16021790555050565b6001818154811061020657600080fd5b906000526020600020016000915054906101000a900473ffffffffffffffffffffffffffffffffffffffff1681565b600360009054906101000a900460ff1681565b6000600381111561025c5761025b610685565b5b600360009054906101000a900460ff16600381111561027e5761027d610685565b5b1461028c5761028b610656565b5b81600090805190602001906102a2929190610303565b50806002819055506001600360006101000a81548160ff021916908360038111156102d0576102cf610685565b5b02179055505050565b600081815481106102e957600080fd5b906000526020600020016000915090505481565b60025481565b82805482825590600052602060002090810192821561033f579160200282015b8281111561033e578251825591602001919060010190610323565b5b50905061034c9190610350565b5090565b5b80821115610369576000816000905550600101610351565b5090565b600061038061037b8461058e565b610569565b905080838252602082019050828560208602820111156103a3576103a26106e8565b5b60005b858110156103d357816103b98882610420565b8452602084019350602083019250506001810190506103a6565b5050509392505050565b600082601f8301126103f2576103f16106e3565b5b813561040284826020860161036d565b91505092915050565b60008135905061041a8161071c565b92915050565b60008135905061042f81610733565b92915050565b6000806040838503121561044c5761044b6106f2565b5b600083013567ffffffffffffffff81111561046a576104696106ed565b5b610476858286016103dd565b925050602061048785828601610420565b9150509250929050565b6000602082840312156104a7576104a66106f2565b5b60006104b58482850161040b565b91505092915050565b6000602082840312156104d4576104d36106f2565b5b60006104e284828501610420565b91505092915050565b6104f4816105ba565b82525050565b61050381610613565b82525050565b61051281610609565b82525050565b600060208201905061052d60008301846104eb565b92915050565b600060208201905061054860008301846104fa565b92915050565b60006020820190506105636000830184610509565b92915050565b6000610573610584565b905061057f8282610625565b919050565b6000604051905090565b600067ffffffffffffffff8211156105a9576105a86106b4565b5b602082029050602081019050919050565b60006105c5826105e9565b9050919050565b60008190506105da82610708565b919050565b6000819050919050565b600073ffffffffffffffffffffffffffffffffffffffff82169050919050565b6000819050919050565b600061061e826105cc565b9050919050565b61062e826106f7565b810181811067ffffffffffffffff8211171561064d5761064c6106b4565b5b80604052505050565b7f4e487b7100000000000000000000000000000000000000000000000000000000600052600160045260246000fd5b7f4e487b7100000000000000000000000000000000000000000000000000000000600052602160045260246000fd5b7f4e487b7100000000000000000000000000000000000000000000000000000000600052604160045260246000fd5b600080fd5b600080fd5b600080fd5b600080fd5b6000601f19601f8301169050919050565b6004811061071957610718610685565b5b50565b610725816105df565b811461073057600080fd5b50565b61073c81610609565b811461074757600080fd5b5056fea26469706673582212206bdc4e7fe261608794b15d2f249bd6974002cf5a757d543a299279943715d48b64736f6c63430008070033",
					"opcodes": "PUSH1 0x80 PUSH1 0x40 MSTORE PUSH1 0x0 PUSH1 0x3 PUSH1 0x0 PUSH2 0x100 EXP DUP2 SLOAD DUP2 PUSH1 0xFF MUL NOT AND SWAP1 DUP4 PUSH1 0x3 DUP2 GT ISZERO PUSH2 0x2A JUMPI PUSH2 0x29 PUSH2 0x41 JUMP JUMPDEST JUMPDEST MUL OR SWAP1 SSTORE POP CALLVALUE DUP1 ISZERO PUSH2 0x3B JUMPI PUSH1 0x0 DUP1 REVERT JUMPDEST POP PUSH2 0x70 JUMP JUMPDEST PUSH32 0x4E487B7100000000000000000000000000000000000000000000000000000000 PUSH1 0x0 MSTORE PUSH1 0x21 PUSH1 0x4 MSTORE PUSH1 0x24 PUSH1 0x0 REVERT JUMPDEST PUSH2 0x780 DUP1 PUSH2 0x7F PUSH1 0x0 CODECOPY PUSH1 0x0 RETURN INVALID PUSH1 0x80 PUSH1 0x40 MSTORE CALLVALUE DUP1 ISZERO PUSH2 0x10 JUMPI PUSH1 0x0 DUP1 REVERT JUMPDEST POP PUSH1 0x4 CALLDATASIZE LT PUSH2 0x62 JUMPI PUSH1 0x0 CALLDATALOAD PUSH1 0xE0 SHR DUP1 PUSH4 0xE2B5E4F EQ PUSH2 0x67 JUMPI DUP1 PUSH4 0x170BD1C8 EQ PUSH2 0x83 JUMPI DUP1 PUSH4 0xA1CB31B7 EQ PUSH2 0xB3 JUMPI DUP1 PUSH4 0xA81780C6 EQ PUSH2 0xD1 JUMPI DUP1 PUSH4 0xF196F824 EQ PUSH2 0xED JUMPI DUP1 PUSH4 0xFFF94931 EQ PUSH2 0x11D JUMPI JUMPDEST PUSH1 0x0 DUP1 REVERT JUMPDEST PUSH2 0x81 PUSH1 0x4 DUP1 CALLDATASIZE SUB DUP2 ADD SWAP1 PUSH2 0x7C SWAP2 SWAP1 PUSH2 0x491 JUMP JUMPDEST PUSH2 0x13B JUMP JUMPDEST STOP JUMPDEST PUSH2 0x9D PUSH1 0x4 DUP1 CALLDATASIZE SUB DUP2 ADD SWAP1 PUSH2 0x98 SWAP2 SWAP1 PUSH2 0x4BE JUMP JUMPDEST PUSH2 0x1F6 JUMP JUMPDEST PUSH1 0x40 MLOAD PUSH2 0xAA SWAP2 SWAP1 PUSH2 0x518 JUMP JUMPDEST PUSH1 0x40 MLOAD DUP1 SWAP2 SUB SWAP1 RETURN JUMPDEST PUSH2 0xBB PUSH2 0x235 JUMP JUMPDEST PUSH1 0x40 MLOAD PUSH2 0xC8 SWAP2 SWAP1 PUSH2 0x533 JUMP JUMPDEST PUSH1 0x40 MLOAD DUP1 SWAP2 SUB SWAP1 RETURN JUMPDEST PUSH2 0xEB PUSH1 0x4 DUP1 CALLDATASIZE SUB DUP2 ADD SWAP1 PUSH2 0xE6 SWAP2 SWAP1 PUSH2 0x435 JUMP JUMPDEST PUSH2 0x248 JUMP JUMPDEST STOP JUMPDEST PUSH2 0x107 PUSH1 0x4 DUP1 CALLDATASIZE SUB DUP2 ADD SWAP1 PUSH2 0x102 SWAP2 SWAP1 PUSH2 0x4BE JUMP JUMPDEST PUSH2 0x2D9 JUMP JUMPDEST PUSH1 0x40 MLOAD PUSH2 0x114 SWAP2 SWAP1 PUSH2 0x54E JUMP JUMPDEST PUSH1 0x40 MLOAD DUP1 SWAP2 SUB SWAP1 RETURN JUMPDEST PUSH2 0x125 PUSH2 0x2FD JUMP JUMPDEST PUSH1 0x40 MLOAD PUSH2 0x132 SWAP2 SWAP1 PUSH2 0x54E JUMP JUMPDEST PUSH1 0x40 MLOAD DUP1 SWAP2 SUB SWAP1 RETURN JUMPDEST PUSH1 0x1 PUSH1 0x3 DUP2 GT ISZERO PUSH2 0x14F JUMPI PUSH2 0x14E PUSH2 0x685 JUMP JUMPDEST JUMPDEST PUSH1 0x3 PUSH1 0x0 SWAP1 SLOAD SWAP1 PUSH2 0x100 EXP SWAP1 DIV PUSH1 0xFF AND PUSH1 0x3 DUP2 GT ISZERO PUSH2 0x171 JUMPI PUSH2 0x170 PUSH2 0x685 JUMP JUMPDEST JUMPDEST EQ PUSH2 0x17F JUMPI PUSH2 0x17E PUSH2 0x656 JUMP JUMPDEST JUMPDEST PUSH1 0x1 DUP2 EQ PUSH2 0x190 JUMPI PUSH2 0x18F PUSH2 0x656 JUMP JUMPDEST JUMPDEST PUSH1 0x1 CALLER SWAP1 DUP1 PUSH1 0x1 DUP2 SLOAD ADD DUP1 DUP3 SSTORE DUP1 SWAP2 POP POP PUSH1 0x1 SWAP1 SUB SWAP1 PUSH1 0x0 MSTORE PUSH1 0x20 PUSH1 0x0 KECCAK256 ADD PUSH1 0x0 SWAP1 SWAP2 SWAP1 SWAP2 SWAP1 SWAP2 PUSH2 0x100 EXP DUP2 SLOAD DUP2 PUSH20 0xFFFFFFFFFFFFFFFFFFFFFFFFFFFFFFFFFFFFFFFF MUL NOT AND SWAP1 DUP4 PUSH20 0xFFFFFFFFFFFFFFFFFFFFFFFFFFFFFFFFFFFFFFFF AND MUL OR SWAP1 SSTORE POP POP JUMP JUMPDEST PUSH1 0x1 DUP2 DUP2 SLOAD DUP2 LT PUSH2 0x206 JUMPI PUSH1 0x0 DUP1 REVERT JUMPDEST SWAP1 PUSH1 0x0 MSTORE PUSH1 0x20 PUSH1 0x0 KECCAK256 ADD PUSH1 0x0 SWAP2 POP SLOAD SWAP1 PUSH2 0x100 EXP SWAP1 DIV PUSH20 0xFFFFFFFFFFFFFFFFFFFFFFFFFFFFFFFFFFFFFFFF AND DUP2 JUMP JUMPDEST PUSH1 0x3 PUSH1 0x0 SWAP1 SLOAD SWAP1 PUSH2 0x100 EXP SWAP1 DIV PUSH1 0xFF AND DUP2 JUMP JUMPDEST PUSH1 0x0 PUSH1 0x3 DUP2 GT ISZERO PUSH2 0x25C JUMPI PUSH2 0x25B PUSH2 0x685 JUMP JUMPDEST JUMPDEST PUSH1 0x3 PUSH1 0x0 SWAP1 SLOAD SWAP1 PUSH2 0x100 EXP SWAP1 DIV PUSH1 0xFF AND PUSH1 0x3 DUP2 GT ISZERO PUSH2 0x27E JUMPI PUSH2 0x27D PUSH2 0x685 JUMP JUMPDEST JUMPDEST EQ PUSH2 0x28C JUMPI PUSH2 0x28B PUSH2 0x656 JUMP JUMPDEST JUMPDEST DUP2 PUSH1 0x0 SWAP1 DUP1 MLOAD SWAP1 PUSH1 0x20 ADD SWAP1 PUSH2 0x2A2 SWAP3 SWAP2 SWAP1 PUSH2 0x303 JUMP JUMPDEST POP DUP1 PUSH1 0x2 DUP2 SWAP1 SSTORE POP PUSH1 0x1 PUSH1 0x3 PUSH1 0x0 PUSH2 0x100 EXP DUP2 SLOAD DUP2 PUSH1 0xFF MUL NOT AND SWAP1 DUP4 PUSH1 0x3 DUP2 GT ISZERO PUSH2 0x2D0 JUMPI PUSH2 0x2CF PUSH2 0x685 JUMP JUMPDEST JUMPDEST MUL OR SWAP1 SSTORE POP POP POP JUMP JUMPDEST PUSH1 0x0 DUP2 DUP2 SLOAD DUP2 LT PUSH2 0x2E9 JUMPI PUSH1 0x0 DUP1 REVERT JUMPDEST SWAP1 PUSH1 0x0 MSTORE PUSH1 0x20 PUSH1 0x0 KECCAK256 ADD PUSH1 0x0 SWAP2 POP SWAP1 POP SLOAD DUP2 JUMP JUMPDEST PUSH1 0x2 SLOAD DUP2 JUMP JUMPDEST DUP3 DUP1 SLOAD DUP3 DUP3 SSTORE SWAP1 PUSH1 0x0 MSTORE PUSH1 0x20 PUSH1 0x0 KECCAK256 SWAP1 DUP2 ADD SWAP3 DUP3 ISZERO PUSH2 0x33F JUMPI SWAP2 PUSH1 0x20 MUL DUP3 ADD JUMPDEST DUP3 DUP2 GT ISZERO PUSH2 0x33E JUMPI DUP3 MLOAD DUP3 SSTORE SWAP2 PUSH1 0x20 ADD SWAP2 SWAP1 PUSH1 0x1 ADD SWAP1 PUSH2 0x323 JUMP JUMPDEST JUMPDEST POP SWAP1 POP PUSH2 0x34C SWAP2 SWAP1 PUSH2 0x350 JUMP JUMPDEST POP SWAP1 JUMP JUMPDEST JUMPDEST DUP1 DUP3 GT ISZERO PUSH2 0x369 JUMPI PUSH1 0x0 DUP2 PUSH1 0x0 SWAP1 SSTORE POP PUSH1 0x1 ADD PUSH2 0x351 JUMP JUMPDEST POP SWAP1 JUMP JUMPDEST PUSH1 0x0 PUSH2 0x380 PUSH2 0x37B DUP5 PUSH2 0x58E JUMP JUMPDEST PUSH2 0x569 JUMP JUMPDEST SWAP1 POP DUP1 DUP4 DUP3 MSTORE PUSH1 0x20 DUP3 ADD SWAP1 POP DUP3 DUP6 PUSH1 0x20 DUP7 MUL DUP3 ADD GT ISZERO PUSH2 0x3A3 JUMPI PUSH2 0x3A2 PUSH2 0x6E8 JUMP JUMPDEST JUMPDEST PUSH1 0x0 JUMPDEST DUP6 DUP2 LT ISZERO PUSH2 0x3D3 JUMPI DUP2 PUSH2 0x3B9 DUP9 DUP3 PUSH2 0x420 JUMP JUMPDEST DUP5 MSTORE PUSH1 0x20 DUP5 ADD SWAP4 POP PUSH1 0x20 DUP4 ADD SWAP3 POP POP PUSH1 0x1 DUP2 ADD SWAP1 POP PUSH2 0x3A6 JUMP JUMPDEST POP POP POP SWAP4 SWAP3 POP POP POP JUMP JUMPDEST PUSH1 0x0 DUP3 PUSH1 0x1F DUP4 ADD SLT PUSH2 0x3F2 JUMPI PUSH2 0x3F1 PUSH2 0x6E3 JUMP JUMPDEST JUMPDEST DUP2 CALLDATALOAD PUSH2 0x402 DUP5 DUP3 PUSH1 0x20 DUP7 ADD PUSH2 0x36D JUMP JUMPDEST SWAP2 POP POP SWAP3 SWAP2 POP POP JUMP JUMPDEST PUSH1 0x0 DUP2 CALLDATALOAD SWAP1 POP PUSH2 0x41A DUP2 PUSH2 0x71C JUMP JUMPDEST SWAP3 SWAP2 POP POP JUMP JUMPDEST PUSH1 0x0 DUP2 CALLDATALOAD SWAP1 POP PUSH2 0x42F DUP2 PUSH2 0x733 JUMP JUMPDEST SWAP3 SWAP2 POP POP JUMP JUMPDEST PUSH1 0x0 DUP1 PUSH1 0x40 DUP4 DUP6 SUB SLT ISZERO PUSH2 0x44C JUMPI PUSH2 0x44B PUSH2 0x6F2 JUMP JUMPDEST JUMPDEST PUSH1 0x0 DUP4 ADD CALLDATALOAD PUSH8 0xFFFFFFFFFFFFFFFF DUP2 GT ISZERO PUSH2 0x46A JUMPI PUSH2 0x469 PUSH2 0x6ED JUMP JUMPDEST JUMPDEST PUSH2 0x476 DUP6 DUP3 DUP7 ADD PUSH2 0x3DD JUMP JUMPDEST SWAP3 POP POP PUSH1 0x20 PUSH2 0x487 DUP6 DUP3 DUP7 ADD PUSH2 0x420 JUMP JUMPDEST SWAP2 POP POP SWAP3 POP SWAP3 SWAP1 POP JUMP JUMPDEST PUSH1 0x0 PUSH1 0x20 DUP3 DUP5 SUB SLT ISZERO PUSH2 0x4A7 JUMPI PUSH2 0x4A6 PUSH2 0x6F2 JUMP JUMPDEST JUMPDEST PUSH1 0x0 PUSH2 0x4B5 DUP5 DUP3 DUP6 ADD PUSH2 0x40B JUMP JUMPDEST SWAP2 POP POP SWAP3 SWAP2 POP POP JUMP JUMPDEST PUSH1 0x0 PUSH1 0x20 DUP3 DUP5 SUB SLT ISZERO PUSH2 0x4D4 JUMPI PUSH2 0x4D3 PUSH2 0x6F2 JUMP JUMPDEST JUMPDEST PUSH1 0x0 PUSH2 0x4E2 DUP5 DUP3 DUP6 ADD PUSH2 0x420 JUMP JUMPDEST SWAP2 POP POP SWAP3 SWAP2 POP POP JUMP JUMPDEST PUSH2 0x4F4 DUP2 PUSH2 0x5BA JUMP JUMPDEST DUP3 MSTORE POP POP JUMP JUMPDEST PUSH2 0x503 DUP2 PUSH2 0x613 JUMP JUMPDEST DUP3 MSTORE POP POP JUMP JUMPDEST PUSH2 0x512 DUP2 PUSH2 0x609 JUMP JUMPDEST DUP3 MSTORE POP POP JUMP JUMPDEST PUSH1 0x0 PUSH1 0x20 DUP3 ADD SWAP1 POP PUSH2 0x52D PUSH1 0x0 DUP4 ADD DUP5 PUSH2 0x4EB JUMP JUMPDEST SWAP3 SWAP2 POP POP JUMP JUMPDEST PUSH1 0x0 PUSH1 0x20 DUP3 ADD SWAP1 POP PUSH2 0x548 PUSH1 0x0 DUP4 ADD DUP5 PUSH2 0x4FA JUMP JUMPDEST SWAP3 SWAP2 POP POP JUMP JUMPDEST PUSH1 0x0 PUSH1 0x20 DUP3 ADD SWAP1 POP PUSH2 0x563 PUSH1 0x0 DUP4 ADD DUP5 PUSH2 0x509 JUMP JUMPDEST SWAP3 SWAP2 POP POP JUMP JUMPDEST PUSH1 0x0 PUSH2 0x573 PUSH2 0x584 JUMP JUMPDEST SWAP1 POP PUSH2 0x57F DUP3 DUP3 PUSH2 0x625 JUMP JUMPDEST SWAP2 SWAP1 POP JUMP JUMPDEST PUSH1 0x0 PUSH1 0x40 MLOAD SWAP1 POP SWAP1 JUMP JUMPDEST PUSH1 0x0 PUSH8 0xFFFFFFFFFFFFFFFF DUP3 GT ISZERO PUSH2 0x5A9 JUMPI PUSH2 0x5A8 PUSH2 0x6B4 JUMP JUMPDEST JUMPDEST PUSH1 0x20 DUP3 MUL SWAP1 POP PUSH1 0x20 DUP2 ADD SWAP1 POP SWAP2 SWAP1 POP JUMP JUMPDEST PUSH1 0x0 PUSH2 0x5C5 DUP3 PUSH2 0x5E9 JUMP JUMPDEST SWAP1 POP SWAP2 SWAP1 POP JUMP JUMPDEST PUSH1 0x0 DUP2 SWAP1 POP PUSH2 0x5DA DUP3 PUSH2 0x708 JUMP JUMPDEST SWAP2 SWAP1 POP JUMP JUMPDEST PUSH1 0x0 DUP2 SWAP1 POP SWAP2 SWAP1 POP JUMP JUMPDEST PUSH1 0x0 PUSH20 0xFFFFFFFFFFFFFFFFFFFFFFFFFFFFFFFFFFFFFFFF DUP3 AND SWAP1 POP SWAP2 SWAP1 POP JUMP JUMPDEST PUSH1 0x0 DUP2 SWAP1 POP SWAP2 SWAP1 POP JUMP JUMPDEST PUSH1 0x0 PUSH2 0x61E DUP3 PUSH2 0x5CC JUMP JUMPDEST SWAP1 POP SWAP2 SWAP1 POP JUMP JUMPDEST PUSH2 0x62E DUP3 PUSH2 0x6F7 JUMP JUMPDEST DUP2 ADD DUP2 DUP2 LT PUSH8 0xFFFFFFFFFFFFFFFF DUP3 GT OR ISZERO PUSH2 0x64D JUMPI PUSH2 0x64C PUSH2 0x6B4 JUMP JUMPDEST JUMPDEST DUP1 PUSH1 0x40 MSTORE POP POP POP JUMP JUMPDEST PUSH32 0x4E487B7100000000000000000000000000000000000000000000000000000000 PUSH1 0x0 MSTORE PUSH1 0x1 PUSH1 0x4 MSTORE PUSH1 0x24 PUSH1 0x0 REVERT JUMPDEST PUSH32 0x4E487B7100000000000000000000000000000000000000000000000000000000 PUSH1 0x0 MSTORE PUSH1 0x21 PUSH1 0x4 MSTORE PUSH1 0x24 PUSH1 0x0 REVERT JUMPDEST PUSH32 0x4E487B7100000000000000000000000000000000000000000000000000000000 PUSH1 0x0 MSTORE PUSH1 0x41 PUSH1 0x4 MSTORE PUSH1 0x24 PUSH1 0x0 REVERT JUMPDEST PUSH1 0x0 DUP1 REVERT JUMPDEST PUSH1 0x0 DUP1 REVERT JUMPDEST PUSH1 0x0 DUP1 REVERT JUMPDEST PUSH1 0x0 DUP1 REVERT JUMPDEST PUSH1 0x0 PUSH1 0x1F NOT PUSH1 0x1F DUP4 ADD AND SWAP1 POP SWAP2 SWAP1 POP JUMP JUMPDEST PUSH1 0x4 DUP2 LT PUSH2 0x719 JUMPI PUSH2 0x718 PUSH2 0x685 JUMP JUMPDEST JUMPDEST POP JUMP JUMPDEST PUSH2 0x725 DUP2 PUSH2 0x5DF JUMP JUMPDEST DUP2 EQ PUSH2 0x730 JUMPI PUSH1 0x0 DUP1 REVERT JUMPDEST POP JUMP JUMPDEST PUSH2 0x73C DUP2 PUSH2 0x609 JUMP JUMPDEST DUP2 EQ PUSH2 0x747 JUMPI PUSH1 0x0 DUP1 REVERT JUMPDEST POP JUMP INVALID LOG2 PUSH5 0x6970667358 0x22 SLT KECCAK256 PUSH12 0xDC4E7FE261608794B15D2F24 SWAP12 0xD6 SWAP8 BLOCKHASH MUL 0xCF GAS PUSH22 0x7D543A299279943715D48B64736F6C63430008070033 "
				},
				"gasEstimates": {
					"creation": {
						"codeDepositCost": "384000",
						"executionCost": "24717",
						"totalCost": "408717"
					},
					"external": {
						"_participants(uint256)": "infinite",
						"_state()": "2582",
						"_timeout()": "2517",
						"_voted(uint256)": "4956",
						"request(uint256[],uint256)": "infinite",
						"voter(int256)": "51196"
					}
				},
				"methodIdentifiers": {
					"_participants(uint256)": "f196f824",
					"_state()": "a1cb31b7",
					"_timeout()": "fff94931",
					"_voted(uint256)": "170bd1c8",
					"request(uint256[],uint256)": "a81780c6",
					"voter(int256)": "0e2b5e4f"
				}
			},
			"userdoc": {
				"kind": "user",
				"methods": {},
				"version": 1
			}
		}
	}
}