{
	"contracts/TPC.sol": {
		"TPC": {
			"abi": [
				{
					"inputs": [],
					"name": "_timeout",
					"outputs": [
						{
							"internalType": "uint256",
							"name": "",
							"type": "uint256"
						}
					],
					"stateMutability": "view",
					"type": "function"
				},
				{
					"inputs": [],
					"name": "getState",
					"outputs": [
						{
							"internalType": "string",
							"name": "",
							"type": "string"
						}
					],
					"stateMutability": "view",
					"type": "function"
				},
				{
					"inputs": [
						{
							"internalType": "uint32",
							"name": "num_nodes",
							"type": "uint32"
						},
						{
							"internalType": "uint256",
							"name": "timeout",
							"type": "uint256"
						}
					],
					"name": "request",
					"outputs": [],
					"stateMutability": "nonpayable",
					"type": "function"
				},
				{
					"inputs": [],
					"name": "verdict",
					"outputs": [],
					"stateMutability": "nonpayable",
					"type": "function"
				},
				{
					"inputs": [
						{
							"internalType": "uint32",
							"name": "vote",
							"type": "uint32"
						},
						{
							"internalType": "uint32",
							"name": "nodeid",
							"type": "uint32"
						}
					],
					"name": "voter",
					"outputs": [],
					"stateMutability": "nonpayable",
					"type": "function"
				}
			],
			"devdoc": {
				"details": "Store & retrieve value in a variable",
				"kind": "dev",
				"methods": {},
				"title": "Storage",
				"version": 1
			},
			"evm": {
				"assembly": "    /* \"contracts/TPC.sol\":141:1771  contract TPC {... */\n  mstore(0x40, 0x80)\n    /* \"contracts/TPC.sol\":359:381  string _state = \"INIT\" */\n  mload(0x40)\n  dup1\n  0x40\n  add\n  0x40\n  mstore\n  dup1\n  0x04\n  dup2\n  mstore\n  0x20\n  add\n  0x494e495400000000000000000000000000000000000000000000000000000000\n  dup2\n  mstore\n  pop\n  0x02\n  swap1\n  dup1\n  mload\n  swap1\n  0x20\n  add\n  swap1\n  tag_1\n  swap3\n  swap2\n  swap1\n  tag_2\n  jump\t// in\ntag_1:\n  pop\n    /* \"contracts/TPC.sol\":141:1771  contract TPC {... */\n  callvalue\n  dup1\n  iszero\n  tag_3\n  jumpi\n  0x00\n  dup1\n  revert\ntag_3:\n  pop\n  jump(tag_4)\ntag_2:\n  dup3\n  dup1\n  sload\n  tag_5\n  swap1\n  tag_6\n  jump\t// in\ntag_5:\n  swap1\n  0x00\n  mstore\n  keccak256(0x00, 0x20)\n  swap1\n  0x1f\n  add\n  0x20\n  swap1\n  div\n  dup2\n  add\n  swap3\n  dup3\n  tag_8\n  jumpi\n  0x00\n  dup6\n  sstore\n  jump(tag_7)\ntag_8:\n  dup3\n  0x1f\n  lt\n  tag_9\n  jumpi\n  dup1\n  mload\n  not(0xff)\n  and\n  dup4\n  dup1\n  add\n  or\n  dup6\n  sstore\n  jump(tag_7)\ntag_9:\n  dup3\n  dup1\n  add\n  0x01\n  add\n  dup6\n  sstore\n  dup3\n  iszero\n  tag_7\n  jumpi\n  swap2\n  dup3\n  add\ntag_10:\n  dup3\n  dup2\n  gt\n  iszero\n  tag_11\n  jumpi\n  dup3\n  mload\n  dup3\n  sstore\n  swap2\n  0x20\n  add\n  swap2\n  swap1\n  0x01\n  add\n  swap1\n  jump(tag_10)\ntag_11:\ntag_7:\n  pop\n  swap1\n  pop\n  tag_12\n  swap2\n  swap1\n  tag_13\n  jump\t// in\ntag_12:\n  pop\n  swap1\n  jump\t// out\ntag_13:\ntag_14:\n  dup1\n  dup3\n  gt\n  iszero\n  tag_15\n  jumpi\n  0x00\n  dup2\n  0x00\n  swap1\n  sstore\n  pop\n  0x01\n  add\n  jump(tag_14)\ntag_15:\n  pop\n  swap1\n  jump\t// out\n    /* \"#utility.yul\":7:327   */\ntag_6:\n    /* \"#utility.yul\":51:57   */\n  0x00\n    /* \"#utility.yul\":88:89   */\n  0x02\n    /* \"#utility.yul\":82:86   */\n  dup3\n    /* \"#utility.yul\":78:90   */\n  div\n    /* \"#utility.yul\":68:90   */\n  swap1\n  pop\n    /* \"#utility.yul\":135:136   */\n  0x01\n    /* \"#utility.yul\":129:133   */\n  dup3\n    /* \"#utility.yul\":125:137   */\n  and\n    /* \"#utility.yul\":156:174   */\n  dup1\n    /* \"#utility.yul\":146:227   */\n  tag_18\n  jumpi\n    /* \"#utility.yul\":212:216   */\n  0x7f\n    /* \"#utility.yul\":204:210   */\n  dup3\n    /* \"#utility.yul\":200:217   */\n  and\n    /* \"#utility.yul\":190:217   */\n  swap2\n  pop\n    /* \"#utility.yul\":146:227   */\ntag_18:\n    /* \"#utility.yul\":274:276   */\n  0x20\n    /* \"#utility.yul\":266:272   */\n  dup3\n    /* \"#utility.yul\":263:277   */\n  lt\n    /* \"#utility.yul\":243:261   */\n  dup2\n    /* \"#utility.yul\":240:278   */\n  eq\n    /* \"#utility.yul\":237:321   */\n  iszero\n  tag_19\n  jumpi\n    /* \"#utility.yul\":293:311   */\n  tag_20\n  tag_21\n  jump\t// in\ntag_20:\n    /* \"#utility.yul\":237:321   */\ntag_19:\n    /* \"#utility.yul\":58:327   */\n  pop\n    /* \"#utility.yul\":7:327   */\n  swap2\n  swap1\n  pop\n  jump\t// out\n    /* \"#utility.yul\":333:513   */\ntag_21:\n    /* \"#utility.yul\":381:458   */\n  0x4e487b7100000000000000000000000000000000000000000000000000000000\n    /* \"#utility.yul\":378:379   */\n  0x00\n    /* \"#utility.yul\":371:459   */\n  mstore\n    /* \"#utility.yul\":478:482   */\n  0x22\n    /* \"#utility.yul\":475:476   */\n  0x04\n    /* \"#utility.yul\":468:483   */\n  mstore\n    /* \"#utility.yul\":502:506   */\n  0x24\n    /* \"#utility.yul\":499:500   */\n  0x00\n    /* \"#utility.yul\":492:507   */\n  revert\n    /* \"contracts/TPC.sol\":141:1771  contract TPC {... */\ntag_4:\n  dataSize(sub_0)\n  dup1\n  dataOffset(sub_0)\n  0x00\n  codecopy\n  0x00\n  return\nstop\n\nsub_0: assembly {\n        /* \"contracts/TPC.sol\":141:1771  contract TPC {... */\n      mstore(0x40, 0x80)\n      callvalue\n      dup1\n      iszero\n      tag_1\n      jumpi\n      0x00\n      dup1\n      revert\n    tag_1:\n      pop\n      jumpi(tag_2, lt(calldatasize, 0x04))\n      shr(0xe0, calldataload(0x00))\n      dup1\n      0x1865c57d\n      eq\n      tag_3\n      jumpi\n      dup1\n      0x36f71c3f\n      eq\n      tag_4\n      jumpi\n      dup1\n      0x6aba253c\n      eq\n      tag_5\n      jumpi\n      dup1\n      0xe2332196\n      eq\n      tag_6\n      jumpi\n      dup1\n      0xfff94931\n      eq\n      tag_7\n      jumpi\n    tag_2:\n      0x00\n      dup1\n      revert\n        /* \"contracts/TPC.sol\":1683:1769  function getState() public view returns (string memory) {... */\n    tag_3:\n      tag_8\n      tag_9\n      jump\t// in\n    tag_8:\n      mload(0x40)\n      tag_10\n      swap2\n      swap1\n      tag_11\n      jump\t// in\n    tag_10:\n      mload(0x40)\n      dup1\n      swap2\n      sub\n      swap1\n      return\n        /* \"contracts/TPC.sol\":803:974  function request(uint32 num_nodes, uint256 timeout) public {... */\n    tag_4:\n      tag_12\n      0x04\n      dup1\n      calldatasize\n      sub\n      dup2\n      add\n      swap1\n      tag_13\n      swap2\n      swap1\n      tag_14\n      jump\t// in\n    tag_13:\n      tag_15\n      jump\t// in\n    tag_12:\n      stop\n        /* \"contracts/TPC.sol\":1480:1677  function verdict() public {... */\n    tag_5:\n      tag_16\n      tag_17\n      jump\t// in\n    tag_16:\n      stop\n        /* \"contracts/TPC.sol\":999:1474  function voter(uint32 vote, uint32 nodeid) public {... */\n    tag_6:\n      tag_18\n      0x04\n      dup1\n      calldatasize\n      sub\n      dup2\n      add\n      swap1\n      tag_19\n      swap2\n      swap1\n      tag_20\n      jump\t// in\n    tag_19:\n      tag_21\n      jump\t// in\n    tag_18:\n      stop\n        /* \"contracts/TPC.sol\":330:353  uint256 public _timeout */\n    tag_7:\n      tag_22\n      tag_23\n      jump\t// in\n    tag_22:\n      mload(0x40)\n      tag_24\n      swap2\n      swap1\n      tag_25\n      jump\t// in\n    tag_24:\n      mload(0x40)\n      dup1\n      swap2\n      sub\n      swap1\n      return\n        /* \"contracts/TPC.sol\":1683:1769  function getState() public view returns (string memory) {... */\n    tag_9:\n        /* \"contracts/TPC.sol\":1724:1737  string memory */\n      0x60\n        /* \"contracts/TPC.sol\":1756:1762  _state */\n      0x02\n        /* \"contracts/TPC.sol\":1749:1762  return _state */\n      dup1\n      sload\n      tag_27\n      swap1\n      tag_28\n      jump\t// in\n    tag_27:\n      dup1\n      0x1f\n      add\n      0x20\n      dup1\n      swap2\n      div\n      mul\n      0x20\n      add\n      mload(0x40)\n      swap1\n      dup2\n      add\n      0x40\n      mstore\n      dup1\n      swap3\n      swap2\n      swap1\n      dup2\n      dup2\n      mstore\n      0x20\n      add\n      dup3\n      dup1\n      sload\n      tag_29\n      swap1\n      tag_28\n      jump\t// in\n    tag_29:\n      dup1\n      iszero\n      tag_30\n      jumpi\n      dup1\n      0x1f\n      lt\n      tag_31\n      jumpi\n      0x0100\n      dup1\n      dup4\n      sload\n      div\n      mul\n      dup4\n      mstore\n      swap2\n      0x20\n      add\n      swap2\n      jump(tag_30)\n    tag_31:\n      dup3\n      add\n      swap2\n      swap1\n      0x00\n      mstore\n      keccak256(0x00, 0x20)\n      swap1\n    tag_32:\n      dup2\n      sload\n      dup2\n      mstore\n      swap1\n      0x01\n      add\n      swap1\n      0x20\n      add\n      dup1\n      dup4\n      gt\n      tag_32\n      jumpi\n      dup3\n      swap1\n      sub\n      0x1f\n      and\n      dup3\n      add\n      swap2\n    tag_30:\n      pop\n      pop\n      pop\n      pop\n      pop\n      swap1\n      pop\n        /* \"contracts/TPC.sol\":1683:1769  function getState() public view returns (string memory) {... */\n      swap1\n      jump\t// out\n        /* \"contracts/TPC.sol\":803:974  function request(uint32 num_nodes, uint256 timeout) public {... */\n    tag_15:\n        /* \"contracts/TPC.sol\":901:908  timeout */\n      dup1\n        /* \"contracts/TPC.sol\":883:898  block.timestamp */\n      timestamp\n        /* \"contracts/TPC.sol\":883:908  block.timestamp + timeout */\n      tag_34\n      swap2\n      swap1\n      tag_35\n      jump\t// in\n    tag_34:\n        /* \"contracts/TPC.sol\":872:880  _timeout */\n      0x01\n        /* \"contracts/TPC.sol\":872:908  _timeout = block.timestamp + timeout */\n      dup2\n      swap1\n      sstore\n      pop\n        /* \"contracts/TPC.sol\":931:940  num_nodes */\n      dup2\n        /* \"contracts/TPC.sol\":918:928  _num_nodes */\n      0x00\n      dup1\n        /* \"contracts/TPC.sol\":918:940  _num_nodes = num_nodes */\n      0x0100\n      exp\n      dup2\n      sload\n      dup2\n      0xffffffff\n      mul\n      not\n      and\n      swap1\n      dup4\n      0xffffffff\n      and\n      mul\n      or\n      swap1\n      sstore\n      pop\n        /* \"contracts/TPC.sol\":950:967  _state = \"VOTING\" */\n      mload(0x40)\n      dup1\n      0x40\n      add\n      0x40\n      mstore\n      dup1\n      0x06\n      dup2\n      mstore\n      0x20\n      add\n      0x564f54494e470000000000000000000000000000000000000000000000000000\n      dup2\n      mstore\n      pop\n        /* \"contracts/TPC.sol\":950:956  _state */\n      0x02\n        /* \"contracts/TPC.sol\":950:967  _state = \"VOTING\" */\n      swap1\n      dup1\n      mload\n      swap1\n      0x20\n      add\n      swap1\n      tag_36\n      swap3\n      swap2\n      swap1\n      tag_37\n      jump\t// in\n    tag_36:\n      pop\n        /* \"contracts/TPC.sol\":803:974  function request(uint32 num_nodes, uint256 timeout) public {... */\n      pop\n      pop\n      jump\t// out\n        /* \"contracts/TPC.sol\":1480:1677  function verdict() public {... */\n    tag_17:\n        /* \"contracts/TPC.sol\":1569:1595  abi.encodePacked(\"VOTING\") */\n      add(0x20, mload(0x40))\n      tag_39\n      swap1\n      tag_40\n      jump\t// in\n    tag_39:\n      mload(0x40)\n      0x20\n      dup2\n      dup4\n      sub\n      sub\n      dup2\n      mstore\n      swap1\n      0x40\n      mstore\n        /* \"contracts/TPC.sol\":1559:1596  keccak256(abi.encodePacked(\"VOTING\")) */\n      dup1\n      mload\n      swap1\n      0x20\n      add\n      keccak256\n        /* \"contracts/TPC.sol\":1547:1553  _state */\n      0x02\n        /* \"contracts/TPC.sol\":1530:1554  abi.encodePacked(_state) */\n      add(0x20, mload(0x40))\n      tag_41\n      swap2\n      swap1\n      tag_42\n      jump\t// in\n    tag_41:\n      mload(0x40)\n      0x20\n      dup2\n      dup4\n      sub\n      sub\n      dup2\n      mstore\n      swap1\n      0x40\n      mstore\n        /* \"contracts/TPC.sol\":1520:1555  keccak256(abi.encodePacked(_state)) */\n      dup1\n      mload\n      swap1\n      0x20\n      add\n      keccak256\n        /* \"contracts/TPC.sol\":1520:1596  keccak256(abi.encodePacked(_state)) == keccak256(abi.encodePacked(\"VOTING\")) */\n      eq\n        /* \"contracts/TPC.sol\":1520:1626  keccak256(abi.encodePacked(_state)) == keccak256(abi.encodePacked(\"VOTING\")) && block.timestamp > _timeout */\n      dup1\n      iszero\n      tag_43\n      jumpi\n      pop\n        /* \"contracts/TPC.sol\":1618:1626  _timeout */\n      sload(0x01)\n        /* \"contracts/TPC.sol\":1600:1615  block.timestamp */\n      timestamp\n        /* \"contracts/TPC.sol\":1600:1626  block.timestamp > _timeout */\n      gt\n        /* \"contracts/TPC.sol\":1520:1626  keccak256(abi.encodePacked(_state)) == keccak256(abi.encodePacked(\"VOTING\")) && block.timestamp > _timeout */\n    tag_43:\n        /* \"contracts/TPC.sol\":1516:1671  if (keccak256(abi.encodePacked(_state)) == keccak256(abi.encodePacked(\"VOTING\")) && block.timestamp > _timeout) {... */\n      iszero\n      tag_44\n      jumpi\n        /* \"contracts/TPC.sol\":1642:1660  _state = \"TIMEOUT\" */\n      mload(0x40)\n      dup1\n      0x40\n      add\n      0x40\n      mstore\n      dup1\n      0x07\n      dup2\n      mstore\n      0x20\n      add\n      0x54494d454f555400000000000000000000000000000000000000000000000000\n      dup2\n      mstore\n      pop\n        /* \"contracts/TPC.sol\":1642:1648  _state */\n      0x02\n        /* \"contracts/TPC.sol\":1642:1660  _state = \"TIMEOUT\" */\n      swap1\n      dup1\n      mload\n      swap1\n      0x20\n      add\n      swap1\n      tag_45\n      swap3\n      swap2\n      swap1\n      tag_37\n      jump\t// in\n    tag_45:\n      pop\n        /* \"contracts/TPC.sol\":1516:1671  if (keccak256(abi.encodePacked(_state)) == keccak256(abi.encodePacked(\"VOTING\")) && block.timestamp > _timeout) {... */\n    tag_44:\n        /* \"contracts/TPC.sol\":1480:1677  function verdict() public {... */\n      jump\t// out\n        /* \"contracts/TPC.sol\":999:1474  function voter(uint32 vote, uint32 nodeid) public {... */\n    tag_21:\n        /* \"contracts/TPC.sol\":1084:1094  _num_nodes */\n      0x00\n      dup1\n      sload\n      swap1\n      0x0100\n      exp\n      swap1\n      div\n      0xffffffff\n      and\n        /* \"contracts/TPC.sol\":1063:1094  set_size(_voters) == _num_nodes */\n      0xffffffff\n      and\n        /* \"contracts/TPC.sol\":1063:1080  set_size(_voters) */\n      tag_47\n        /* \"contracts/TPC.sol\":1072:1079  _voters */\n      0x03\n        /* \"contracts/TPC.sol\":1063:1071  set_size */\n      tag_48\n        /* \"contracts/TPC.sol\":1063:1080  set_size(_voters) */\n      jump\t// in\n    tag_47:\n        /* \"contracts/TPC.sol\":1063:1094  set_size(_voters) == _num_nodes */\n      eq\n        /* \"contracts/TPC.sol\":1059:1127  if (set_size(_voters) == _num_nodes) {... */\n      iszero\n      tag_49\n      jumpi\n        /* \"contracts/TPC.sol\":1110:1117  return; */\n      jump(tag_46)\n        /* \"contracts/TPC.sol\":1059:1127  if (set_size(_voters) == _num_nodes) {... */\n    tag_49:\n        /* \"contracts/TPC.sol\":1158:1166  _timeout */\n      sload(0x01)\n        /* \"contracts/TPC.sol\":1140:1155  block.timestamp */\n      timestamp\n        /* \"contracts/TPC.sol\":1140:1166  block.timestamp > _timeout */\n      gt\n        /* \"contracts/TPC.sol\":1136:1468  if (block.timestamp > _timeout) {... */\n      iszero\n      tag_50\n      jumpi\n        /* \"contracts/TPC.sol\":1182:1200  _state = \"TIMEOUT\" */\n      mload(0x40)\n      dup1\n      0x40\n      add\n      0x40\n      mstore\n      dup1\n      0x07\n      dup2\n      mstore\n      0x20\n      add\n      0x54494d454f555400000000000000000000000000000000000000000000000000\n      dup2\n      mstore\n      pop\n        /* \"contracts/TPC.sol\":1182:1188  _state */\n      0x02\n        /* \"contracts/TPC.sol\":1182:1200  _state = \"TIMEOUT\" */\n      swap1\n      dup1\n      mload\n      swap1\n      0x20\n      add\n      swap1\n      tag_51\n      swap3\n      swap2\n      swap1\n      tag_37\n      jump\t// in\n    tag_51:\n      pop\n        /* \"contracts/TPC.sol\":1214:1221  return; */\n      jump(tag_46)\n        /* \"contracts/TPC.sol\":1136:1468  if (block.timestamp > _timeout) {... */\n    tag_50:\n        /* \"contracts/TPC.sol\":1249:1250  0 */\n      0x00\n        /* \"contracts/TPC.sol\":1241:1245  vote */\n      dup3\n        /* \"contracts/TPC.sol\":1241:1250  vote == 0 */\n      0xffffffff\n      and\n      eq\n        /* \"contracts/TPC.sol\":1237:1468  if (vote == 0) {... */\n      iszero\n      tag_53\n      jumpi\n        /* \"contracts/TPC.sol\":1266:1282  _state = \"ABORT\" */\n      mload(0x40)\n      dup1\n      0x40\n      add\n      0x40\n      mstore\n      dup1\n      0x05\n      dup2\n      mstore\n      0x20\n      add\n      0x41424f5254000000000000000000000000000000000000000000000000000000\n      dup2\n      mstore\n      pop\n        /* \"contracts/TPC.sol\":1266:1272  _state */\n      0x02\n        /* \"contracts/TPC.sol\":1266:1282  _state = \"ABORT\" */\n      swap1\n      dup1\n      mload\n      swap1\n      0x20\n      add\n      swap1\n      tag_54\n      swap3\n      swap2\n      swap1\n      tag_37\n      jump\t// in\n    tag_54:\n      pop\n        /* \"contracts/TPC.sol\":1296:1303  return; */\n      jump(tag_46)\n        /* \"contracts/TPC.sol\":1237:1468  if (vote == 0) {... */\n    tag_53:\n        /* \"contracts/TPC.sol\":1333:1357  set_add(_voters, nodeid) */\n      tag_56\n        /* \"contracts/TPC.sol\":1341:1348  _voters */\n      0x03\n        /* \"contracts/TPC.sol\":1350:1356  nodeid */\n      dup3\n        /* \"contracts/TPC.sol\":1333:1340  set_add */\n      tag_57\n        /* \"contracts/TPC.sol\":1333:1357  set_add(_voters, nodeid) */\n      jump\t// in\n    tag_56:\n        /* \"contracts/TPC.sol\":1396:1406  _num_nodes */\n      0x00\n      dup1\n      sload\n      swap1\n      0x0100\n      exp\n      swap1\n      div\n      0xffffffff\n      and\n        /* \"contracts/TPC.sol\":1375:1406  set_size(_voters) == _num_nodes */\n      0xffffffff\n      and\n        /* \"contracts/TPC.sol\":1375:1392  set_size(_voters) */\n      tag_58\n        /* \"contracts/TPC.sol\":1384:1391  _voters */\n      0x03\n        /* \"contracts/TPC.sol\":1375:1383  set_size */\n      tag_48\n        /* \"contracts/TPC.sol\":1375:1392  set_size(_voters) */\n      jump\t// in\n    tag_58:\n        /* \"contracts/TPC.sol\":1375:1406  set_size(_voters) == _num_nodes */\n      eq\n        /* \"contracts/TPC.sol\":1371:1458  if (set_size(_voters) == _num_nodes) {... */\n      iszero\n      tag_59\n      jumpi\n        /* \"contracts/TPC.sol\":1426:1443  _state = \"COMMIT\" */\n      mload(0x40)\n      dup1\n      0x40\n      add\n      0x40\n      mstore\n      dup1\n      0x06\n      dup2\n      mstore\n      0x20\n      add\n      0x434f4d4d49540000000000000000000000000000000000000000000000000000\n      dup2\n      mstore\n      pop\n        /* \"contracts/TPC.sol\":1426:1432  _state */\n      0x02\n        /* \"contracts/TPC.sol\":1426:1443  _state = \"COMMIT\" */\n      swap1\n      dup1\n      mload\n      swap1\n      0x20\n      add\n      swap1\n      tag_60\n      swap3\n      swap2\n      swap1\n      tag_37\n      jump\t// in\n    tag_60:\n      pop\n        /* \"contracts/TPC.sol\":1371:1458  if (set_size(_voters) == _num_nodes) {... */\n    tag_59:\n        /* \"contracts/TPC.sol\":999:1474  function voter(uint32 vote, uint32 nodeid) public {... */\n    tag_46:\n      pop\n      pop\n      jump\t// out\n        /* \"contracts/TPC.sol\":330:353  uint256 public _timeout */\n    tag_23:\n      sload(0x01)\n      dup2\n      jump\t// out\n        /* \"contracts/TPC.sol\":684:779  function set_size(Set storage s) private returns (uint) {... */\n    tag_48:\n        /* \"contracts/TPC.sol\":734:738  uint */\n      0x00\n        /* \"contracts/TPC.sol\":757:758  s */\n      dup2\n        /* \"contracts/TPC.sol\":757:765  s.values */\n      0x00\n      add\n        /* \"contracts/TPC.sol\":757:772  s.values.length */\n      dup1\n      sload\n      swap1\n      pop\n        /* \"contracts/TPC.sol\":750:772  return s.values.length */\n      swap1\n      pop\n        /* \"contracts/TPC.sol\":684:779  function set_size(Set storage s) private returns (uint) {... */\n      swap2\n      swap1\n      pop\n      jump\t// out\n        /* \"contracts/TPC.sol\":515:678  function set_add(Set storage s, uint32 a) private {... */\n    tag_57:\n        /* \"contracts/TPC.sol\":580:598  set_contains(s, a) */\n      tag_63\n        /* \"contracts/TPC.sol\":593:594  s */\n      dup3\n        /* \"contracts/TPC.sol\":596:597  a */\n      dup3\n        /* \"contracts/TPC.sol\":580:592  set_contains */\n      tag_64\n        /* \"contracts/TPC.sol\":580:598  set_contains(s, a) */\n      jump\t// in\n    tag_63:\n        /* \"contracts/TPC.sol\":575:672  if (!set_contains(s, a)) {... */\n      tag_65\n      jumpi\n        /* \"contracts/TPC.sol\":614:615  s */\n      dup2\n        /* \"contracts/TPC.sol\":614:622  s.values */\n      0x00\n      add\n        /* \"contracts/TPC.sol\":628:629  a */\n      dup2\n        /* \"contracts/TPC.sol\":614:630  s.values.push(a) */\n      swap1\n      dup1\n      0x01\n      dup2\n      sload\n      add\n      dup1\n      dup3\n      sstore\n      dup1\n      swap2\n      pop\n      pop\n      0x01\n      swap1\n      sub\n      swap1\n      0x00\n      mstore\n      keccak256(0x00, 0x20)\n      swap1\n      0x08\n      swap2\n      dup3\n      dup3\n      div\n      add\n      swap2\n      swap1\n      mod\n      0x04\n      mul\n      swap1\n      swap2\n      swap1\n      swap2\n      swap1\n      swap2\n      0x0100\n      exp\n      dup2\n      sload\n      dup2\n      0xffffffff\n      mul\n      not\n      and\n      swap1\n      dup4\n      0xffffffff\n      and\n      mul\n      or\n      swap1\n      sstore\n      pop\n        /* \"contracts/TPC.sol\":657:661  true */\n      0x01\n        /* \"contracts/TPC.sol\":644:645  s */\n      dup3\n        /* \"contracts/TPC.sol\":644:651  s.is_in */\n      0x01\n      add\n        /* \"contracts/TPC.sol\":644:654  s.is_in[a] */\n      0x00\n        /* \"contracts/TPC.sol\":652:653  a */\n      dup4\n        /* \"contracts/TPC.sol\":644:654  s.is_in[a] */\n      0xffffffff\n      and\n      0xffffffff\n      and\n      dup2\n      mstore\n      0x20\n      add\n      swap1\n      dup2\n      mstore\n      0x20\n      add\n      0x00\n      keccak256\n      0x00\n        /* \"contracts/TPC.sol\":644:661  s.is_in[a] = true */\n      0x0100\n      exp\n      dup2\n      sload\n      dup2\n      0xff\n      mul\n      not\n      and\n      swap1\n      dup4\n      iszero\n      iszero\n      mul\n      or\n      swap1\n      sstore\n      pop\n        /* \"contracts/TPC.sol\":575:672  if (!set_contains(s, a)) {... */\n    tag_65:\n        /* \"contracts/TPC.sol\":515:678  function set_add(Set storage s, uint32 a) private {... */\n      pop\n      pop\n      jump\t// out\n        /* \"contracts/TPC.sol\":405:509  function set_contains(Set storage s, uint32 a) private returns (bool) {... */\n    tag_64:\n        /* \"contracts/TPC.sol\":469:473  bool */\n      0x00\n        /* \"contracts/TPC.sol\":492:493  s */\n      dup3\n        /* \"contracts/TPC.sol\":492:499  s.is_in */\n      0x01\n      add\n        /* \"contracts/TPC.sol\":492:502  s.is_in[a] */\n      0x00\n        /* \"contracts/TPC.sol\":500:501  a */\n      dup4\n        /* \"contracts/TPC.sol\":492:502  s.is_in[a] */\n      0xffffffff\n      and\n      0xffffffff\n      and\n      dup2\n      mstore\n      0x20\n      add\n      swap1\n      dup2\n      mstore\n      0x20\n      add\n      0x00\n      keccak256\n      0x00\n      swap1\n      sload\n      swap1\n      0x0100\n      exp\n      swap1\n      div\n      0xff\n      and\n        /* \"contracts/TPC.sol\":485:502  return s.is_in[a] */\n      swap1\n      pop\n        /* \"contracts/TPC.sol\":405:509  function set_contains(Set storage s, uint32 a) private returns (bool) {... */\n      swap3\n      swap2\n      pop\n      pop\n      jump\t// out\n    tag_37:\n      dup3\n      dup1\n      sload\n      tag_68\n      swap1\n      tag_28\n      jump\t// in\n    tag_68:\n      swap1\n      0x00\n      mstore\n      keccak256(0x00, 0x20)\n      swap1\n      0x1f\n      add\n      0x20\n      swap1\n      div\n      dup2\n      add\n      swap3\n      dup3\n      tag_70\n      jumpi\n      0x00\n      dup6\n      sstore\n      jump(tag_69)\n    tag_70:\n      dup3\n      0x1f\n      lt\n      tag_71\n      jumpi\n      dup1\n      mload\n      not(0xff)\n      and\n      dup4\n      dup1\n      add\n      or\n      dup6\n      sstore\n      jump(tag_69)\n    tag_71:\n      dup3\n      dup1\n      add\n      0x01\n      add\n      dup6\n      sstore\n      dup3\n      iszero\n      tag_69\n      jumpi\n      swap2\n      dup3\n      add\n    tag_72:\n      dup3\n      dup2\n      gt\n      iszero\n      tag_73\n      jumpi\n      dup3\n      mload\n      dup3\n      sstore\n      swap2\n      0x20\n      add\n      swap2\n      swap1\n      0x01\n      add\n      swap1\n      jump(tag_72)\n    tag_73:\n    tag_69:\n      pop\n      swap1\n      pop\n      tag_74\n      swap2\n      swap1\n      tag_75\n      jump\t// in\n    tag_74:\n      pop\n      swap1\n      jump\t// out\n    tag_75:\n    tag_76:\n      dup1\n      dup3\n      gt\n      iszero\n      tag_77\n      jumpi\n      0x00\n      dup2\n      0x00\n      swap1\n      sstore\n      pop\n      0x01\n      add\n      jump(tag_76)\n    tag_77:\n      pop\n      swap1\n      jump\t// out\n        /* \"#utility.yul\":7:146   */\n    tag_79:\n        /* \"#utility.yul\":53:58   */\n      0x00\n        /* \"#utility.yul\":91:97   */\n      dup2\n        /* \"#utility.yul\":78:98   */\n      calldataload\n        /* \"#utility.yul\":69:98   */\n      swap1\n      pop\n        /* \"#utility.yul\":107:140   */\n      tag_81\n        /* \"#utility.yul\":134:139   */\n      dup2\n        /* \"#utility.yul\":107:140   */\n      tag_82\n      jump\t// in\n    tag_81:\n        /* \"#utility.yul\":7:146   */\n      swap3\n      swap2\n      pop\n      pop\n      jump\t// out\n        /* \"#utility.yul\":152:289   */\n    tag_83:\n        /* \"#utility.yul\":197:202   */\n      0x00\n        /* \"#utility.yul\":235:241   */\n      dup2\n        /* \"#utility.yul\":222:242   */\n      calldataload\n        /* \"#utility.yul\":213:242   */\n      swap1\n      pop\n        /* \"#utility.yul\":251:283   */\n      tag_85\n        /* \"#utility.yul\":277:282   */\n      dup2\n        /* \"#utility.yul\":251:283   */\n      tag_86\n      jump\t// in\n    tag_85:\n        /* \"#utility.yul\":152:289   */\n      swap3\n      swap2\n      pop\n      pop\n      jump\t// out\n        /* \"#utility.yul\":295:767   */\n    tag_14:\n        /* \"#utility.yul\":362:368   */\n      0x00\n        /* \"#utility.yul\":370:376   */\n      dup1\n        /* \"#utility.yul\":419:421   */\n      0x40\n        /* \"#utility.yul\":407:416   */\n      dup4\n        /* \"#utility.yul\":398:405   */\n      dup6\n        /* \"#utility.yul\":394:417   */\n      sub\n        /* \"#utility.yul\":390:422   */\n      slt\n        /* \"#utility.yul\":387:506   */\n      iszero\n      tag_88\n      jumpi\n        /* \"#utility.yul\":425:504   */\n      tag_89\n      tag_90\n      jump\t// in\n    tag_89:\n        /* \"#utility.yul\":387:506   */\n    tag_88:\n        /* \"#utility.yul\":545:546   */\n      0x00\n        /* \"#utility.yul\":570:622   */\n      tag_91\n        /* \"#utility.yul\":614:621   */\n      dup6\n        /* \"#utility.yul\":605:611   */\n      dup3\n        /* \"#utility.yul\":594:603   */\n      dup7\n        /* \"#utility.yul\":590:612   */\n      add\n        /* \"#utility.yul\":570:622   */\n      tag_83\n      jump\t// in\n    tag_91:\n        /* \"#utility.yul\":560:622   */\n      swap3\n      pop\n        /* \"#utility.yul\":516:632   */\n      pop\n        /* \"#utility.yul\":671:673   */\n      0x20\n        /* \"#utility.yul\":697:750   */\n      tag_92\n        /* \"#utility.yul\":742:749   */\n      dup6\n        /* \"#utility.yul\":733:739   */\n      dup3\n        /* \"#utility.yul\":722:731   */\n      dup7\n        /* \"#utility.yul\":718:740   */\n      add\n        /* \"#utility.yul\":697:750   */\n      tag_79\n      jump\t// in\n    tag_92:\n        /* \"#utility.yul\":687:750   */\n      swap2\n      pop\n        /* \"#utility.yul\":642:760   */\n      pop\n        /* \"#utility.yul\":295:767   */\n      swap3\n      pop\n      swap3\n      swap1\n      pop\n      jump\t// out\n        /* \"#utility.yul\":773:1243   */\n    tag_20:\n        /* \"#utility.yul\":839:845   */\n      0x00\n        /* \"#utility.yul\":847:853   */\n      dup1\n        /* \"#utility.yul\":896:898   */\n      0x40\n        /* \"#utility.yul\":884:893   */\n      dup4\n        /* \"#utility.yul\":875:882   */\n      dup6\n        /* \"#utility.yul\":871:894   */\n      sub\n        /* \"#utility.yul\":867:899   */\n      slt\n        /* \"#utility.yul\":864:983   */\n      iszero\n      tag_94\n      jumpi\n        /* \"#utility.yul\":902:981   */\n      tag_95\n      tag_90\n      jump\t// in\n    tag_95:\n        /* \"#utility.yul\":864:983   */\n    tag_94:\n        /* \"#utility.yul\":1022:1023   */\n      0x00\n        /* \"#utility.yul\":1047:1099   */\n      tag_96\n        /* \"#utility.yul\":1091:1098   */\n      dup6\n        /* \"#utility.yul\":1082:1088   */\n      dup3\n        /* \"#utility.yul\":1071:1080   */\n      dup7\n        /* \"#utility.yul\":1067:1089   */\n      add\n        /* \"#utility.yul\":1047:1099   */\n      tag_83\n      jump\t// in\n    tag_96:\n        /* \"#utility.yul\":1037:1099   */\n      swap3\n      pop\n        /* \"#utility.yul\":993:1109   */\n      pop\n        /* \"#utility.yul\":1148:1150   */\n      0x20\n        /* \"#utility.yul\":1174:1226   */\n      tag_97\n        /* \"#utility.yul\":1218:1225   */\n      dup6\n        /* \"#utility.yul\":1209:1215   */\n      dup3\n        /* \"#utility.yul\":1198:1207   */\n      dup7\n        /* \"#utility.yul\":1194:1216   */\n      add\n        /* \"#utility.yul\":1174:1226   */\n      tag_83\n      jump\t// in\n    tag_97:\n        /* \"#utility.yul\":1164:1226   */\n      swap2\n      pop\n        /* \"#utility.yul\":1119:1236   */\n      pop\n        /* \"#utility.yul\":773:1243   */\n      swap3\n      pop\n      swap3\n      swap1\n      pop\n      jump\t// out\n        /* \"#utility.yul\":1249:1613   */\n    tag_98:\n        /* \"#utility.yul\":1337:1340   */\n      0x00\n        /* \"#utility.yul\":1365:1404   */\n      tag_100\n        /* \"#utility.yul\":1398:1403   */\n      dup3\n        /* \"#utility.yul\":1365:1404   */\n      tag_101\n      jump\t// in\n    tag_100:\n        /* \"#utility.yul\":1420:1491   */\n      tag_102\n        /* \"#utility.yul\":1484:1490   */\n      dup2\n        /* \"#utility.yul\":1479:1482   */\n      dup6\n        /* \"#utility.yul\":1420:1491   */\n      tag_103\n      jump\t// in\n    tag_102:\n        /* \"#utility.yul\":1413:1491   */\n      swap4\n      pop\n        /* \"#utility.yul\":1500:1552   */\n      tag_104\n        /* \"#utility.yul\":1545:1551   */\n      dup2\n        /* \"#utility.yul\":1540:1543   */\n      dup6\n        /* \"#utility.yul\":1533:1537   */\n      0x20\n        /* \"#utility.yul\":1526:1531   */\n      dup7\n        /* \"#utility.yul\":1522:1538   */\n      add\n        /* \"#utility.yul\":1500:1552   */\n      tag_105\n      jump\t// in\n    tag_104:\n        /* \"#utility.yul\":1577:1606   */\n      tag_106\n        /* \"#utility.yul\":1599:1605   */\n      dup2\n        /* \"#utility.yul\":1577:1606   */\n      tag_107\n      jump\t// in\n    tag_106:\n        /* \"#utility.yul\":1572:1575   */\n      dup5\n        /* \"#utility.yul\":1568:1607   */\n      add\n        /* \"#utility.yul\":1561:1607   */\n      swap2\n      pop\n        /* \"#utility.yul\":1341:1613   */\n      pop\n        /* \"#utility.yul\":1249:1613   */\n      swap3\n      swap2\n      pop\n      pop\n      jump\t// out\n        /* \"#utility.yul\":1643:2488   */\n    tag_108:\n        /* \"#utility.yul\":1746:1749   */\n      0x00\n        /* \"#utility.yul\":1783:1788   */\n      dup2\n        /* \"#utility.yul\":1777:1789   */\n      sload\n        /* \"#utility.yul\":1812:1848   */\n      tag_110\n        /* \"#utility.yul\":1838:1847   */\n      dup2\n        /* \"#utility.yul\":1812:1848   */\n      tag_28\n      jump\t// in\n    tag_110:\n        /* \"#utility.yul\":1864:1953   */\n      tag_111\n        /* \"#utility.yul\":1946:1952   */\n      dup2\n        /* \"#utility.yul\":1941:1944   */\n      dup7\n        /* \"#utility.yul\":1864:1953   */\n      tag_112\n      jump\t// in\n    tag_111:\n        /* \"#utility.yul\":1857:1953   */\n      swap5\n      pop\n        /* \"#utility.yul\":1984:1985   */\n      0x01\n        /* \"#utility.yul\":1973:1982   */\n      dup3\n        /* \"#utility.yul\":1969:1986   */\n      and\n        /* \"#utility.yul\":2000:2001   */\n      0x00\n        /* \"#utility.yul\":1995:2132   */\n      dup2\n      eq\n      tag_114\n      jumpi\n        /* \"#utility.yul\":2146:2147   */\n      0x01\n        /* \"#utility.yul\":2141:2482   */\n      dup2\n      eq\n      tag_115\n      jumpi\n        /* \"#utility.yul\":1962:2482   */\n      jump(tag_113)\n        /* \"#utility.yul\":1995:2132   */\n    tag_114:\n        /* \"#utility.yul\":2079:2083   */\n      0xff\n        /* \"#utility.yul\":2075:2084   */\n      not\n        /* \"#utility.yul\":2064:2073   */\n      dup4\n        /* \"#utility.yul\":2060:2085   */\n      and\n        /* \"#utility.yul\":2055:2058   */\n      dup7\n        /* \"#utility.yul\":2048:2086   */\n      mstore\n        /* \"#utility.yul\":2115:2121   */\n      dup2\n        /* \"#utility.yul\":2110:2113   */\n      dup7\n        /* \"#utility.yul\":2106:2122   */\n      add\n        /* \"#utility.yul\":2099:2122   */\n      swap4\n      pop\n        /* \"#utility.yul\":1995:2132   */\n      jump(tag_113)\n        /* \"#utility.yul\":2141:2482   */\n    tag_115:\n        /* \"#utility.yul\":2208:2246   */\n      tag_116\n        /* \"#utility.yul\":2240:2245   */\n      dup6\n        /* \"#utility.yul\":2208:2246   */\n      tag_117\n      jump\t// in\n    tag_116:\n        /* \"#utility.yul\":2268:2269   */\n      0x00\n        /* \"#utility.yul\":2282:2436   */\n    tag_118:\n        /* \"#utility.yul\":2296:2302   */\n      dup4\n        /* \"#utility.yul\":2293:2294   */\n      dup2\n        /* \"#utility.yul\":2290:2303   */\n      lt\n        /* \"#utility.yul\":2282:2436   */\n      iszero\n      tag_120\n      jumpi\n        /* \"#utility.yul\":2370:2377   */\n      dup2\n        /* \"#utility.yul\":2364:2378   */\n      sload\n        /* \"#utility.yul\":2360:2361   */\n      dup2\n        /* \"#utility.yul\":2355:2358   */\n      dup10\n        /* \"#utility.yul\":2351:2362   */\n      add\n        /* \"#utility.yul\":2344:2379   */\n      mstore\n        /* \"#utility.yul\":2420:2421   */\n      0x01\n        /* \"#utility.yul\":2411:2418   */\n      dup3\n        /* \"#utility.yul\":2407:2422   */\n      add\n        /* \"#utility.yul\":2396:2422   */\n      swap2\n      pop\n        /* \"#utility.yul\":2318:2322   */\n      0x20\n        /* \"#utility.yul\":2315:2316   */\n      dup2\n        /* \"#utility.yul\":2311:2323   */\n      add\n        /* \"#utility.yul\":2306:2323   */\n      swap1\n      pop\n        /* \"#utility.yul\":2282:2436   */\n      jump(tag_118)\n    tag_120:\n        /* \"#utility.yul\":2465:2471   */\n      dup4\n        /* \"#utility.yul\":2460:2463   */\n      dup9\n        /* \"#utility.yul\":2456:2472   */\n      add\n        /* \"#utility.yul\":2449:2472   */\n      swap6\n      pop\n        /* \"#utility.yul\":2148:2482   */\n      pop\n      pop\n        /* \"#utility.yul\":1962:2482   */\n    tag_113:\n      pop\n        /* \"#utility.yul\":1750:2488   */\n      pop\n      pop\n        /* \"#utility.yul\":1643:2488   */\n      swap3\n      swap2\n      pop\n      pop\n      jump\t// out\n        /* \"#utility.yul\":2494:2894   */\n    tag_121:\n        /* \"#utility.yul\":2654:2657   */\n      0x00\n        /* \"#utility.yul\":2675:2759   */\n      tag_123\n        /* \"#utility.yul\":2757:2758   */\n      0x06\n        /* \"#utility.yul\":2752:2755   */\n      dup4\n        /* \"#utility.yul\":2675:2759   */\n      tag_112\n      jump\t// in\n    tag_123:\n        /* \"#utility.yul\":2668:2759   */\n      swap2\n      pop\n        /* \"#utility.yul\":2768:2861   */\n      tag_124\n        /* \"#utility.yul\":2857:2860   */\n      dup3\n        /* \"#utility.yul\":2768:2861   */\n      tag_125\n      jump\t// in\n    tag_124:\n        /* \"#utility.yul\":2886:2887   */\n      0x06\n        /* \"#utility.yul\":2881:2884   */\n      dup3\n        /* \"#utility.yul\":2877:2888   */\n      add\n        /* \"#utility.yul\":2870:2888   */\n      swap1\n      pop\n        /* \"#utility.yul\":2494:2894   */\n      swap2\n      swap1\n      pop\n      jump\t// out\n        /* \"#utility.yul\":2900:3018   */\n    tag_126:\n        /* \"#utility.yul\":2987:3011   */\n      tag_128\n        /* \"#utility.yul\":3005:3010   */\n      dup2\n        /* \"#utility.yul\":2987:3011   */\n      tag_129\n      jump\t// in\n    tag_128:\n        /* \"#utility.yul\":2982:2985   */\n      dup3\n        /* \"#utility.yul\":2975:3012   */\n      mstore\n        /* \"#utility.yul\":2900:3018   */\n      pop\n      pop\n      jump\t// out\n        /* \"#utility.yul\":3024:3293   */\n    tag_42:\n        /* \"#utility.yul\":3153:3156   */\n      0x00\n        /* \"#utility.yul\":3175:3267   */\n      tag_131\n        /* \"#utility.yul\":3263:3266   */\n      dup3\n        /* \"#utility.yul\":3254:3260   */\n      dup5\n        /* \"#utility.yul\":3175:3267   */\n      tag_108\n      jump\t// in\n    tag_131:\n        /* \"#utility.yul\":3168:3267   */\n      swap2\n      pop\n        /* \"#utility.yul\":3284:3287   */\n      dup2\n        /* \"#utility.yul\":3277:3287   */\n      swap1\n      pop\n        /* \"#utility.yul\":3024:3293   */\n      swap3\n      swap2\n      pop\n      pop\n      jump\t// out\n        /* \"#utility.yul\":3299:3680   */\n    tag_40:\n        /* \"#utility.yul\":3484:3487   */\n      0x00\n        /* \"#utility.yul\":3506:3654   */\n      tag_133\n        /* \"#utility.yul\":3650:3653   */\n      dup3\n        /* \"#utility.yul\":3506:3654   */\n      tag_121\n      jump\t// in\n    tag_133:\n        /* \"#utility.yul\":3499:3654   */\n      swap2\n      pop\n        /* \"#utility.yul\":3671:3674   */\n      dup2\n        /* \"#utility.yul\":3664:3674   */\n      swap1\n      pop\n        /* \"#utility.yul\":3299:3680   */\n      swap2\n      swap1\n      pop\n      jump\t// out\n        /* \"#utility.yul\":3686:3999   */\n    tag_11:\n        /* \"#utility.yul\":3799:3803   */\n      0x00\n        /* \"#utility.yul\":3837:3839   */\n      0x20\n        /* \"#utility.yul\":3826:3835   */\n      dup3\n        /* \"#utility.yul\":3822:3840   */\n      add\n        /* \"#utility.yul\":3814:3840   */\n      swap1\n      pop\n        /* \"#utility.yul\":3886:3895   */\n      dup2\n        /* \"#utility.yul\":3880:3884   */\n      dup2\n        /* \"#utility.yul\":3876:3896   */\n      sub\n        /* \"#utility.yul\":3872:3873   */\n      0x00\n        /* \"#utility.yul\":3861:3870   */\n      dup4\n        /* \"#utility.yul\":3857:3874   */\n      add\n        /* \"#utility.yul\":3850:3897   */\n      mstore\n        /* \"#utility.yul\":3914:3992   */\n      tag_135\n        /* \"#utility.yul\":3987:3991   */\n      dup2\n        /* \"#utility.yul\":3978:3984   */\n      dup5\n        /* \"#utility.yul\":3914:3992   */\n      tag_98\n      jump\t// in\n    tag_135:\n        /* \"#utility.yul\":3906:3992   */\n      swap1\n      pop\n        /* \"#utility.yul\":3686:3999   */\n      swap3\n      swap2\n      pop\n      pop\n      jump\t// out\n        /* \"#utility.yul\":4005:4227   */\n    tag_25:\n        /* \"#utility.yul\":4098:4102   */\n      0x00\n        /* \"#utility.yul\":4136:4138   */\n      0x20\n        /* \"#utility.yul\":4125:4134   */\n      dup3\n        /* \"#utility.yul\":4121:4139   */\n      add\n        /* \"#utility.yul\":4113:4139   */\n      swap1\n      pop\n        /* \"#utility.yul\":4149:4220   */\n      tag_137\n        /* \"#utility.yul\":4217:4218   */\n      0x00\n        /* \"#utility.yul\":4206:4215   */\n      dup4\n        /* \"#utility.yul\":4202:4219   */\n      add\n        /* \"#utility.yul\":4193:4199   */\n      dup5\n        /* \"#utility.yul\":4149:4220   */\n      tag_126\n      jump\t// in\n    tag_137:\n        /* \"#utility.yul\":4005:4227   */\n      swap3\n      swap2\n      pop\n      pop\n      jump\t// out\n        /* \"#utility.yul\":4314:4455   */\n    tag_117:\n        /* \"#utility.yul\":4363:4367   */\n      0x00\n        /* \"#utility.yul\":4386:4389   */\n      dup2\n        /* \"#utility.yul\":4378:4389   */\n      swap1\n      pop\n        /* \"#utility.yul\":4409:4412   */\n      dup2\n        /* \"#utility.yul\":4406:4407   */\n      0x00\n        /* \"#utility.yul\":4399:4413   */\n      mstore\n        /* \"#utility.yul\":4443:4447   */\n      0x20\n        /* \"#utility.yul\":4440:4441   */\n      0x00\n        /* \"#utility.yul\":4430:4448   */\n      keccak256\n        /* \"#utility.yul\":4422:4448   */\n      swap1\n      pop\n        /* \"#utility.yul\":4314:4455   */\n      swap2\n      swap1\n      pop\n      jump\t// out\n        /* \"#utility.yul\":4461:4560   */\n    tag_101:\n        /* \"#utility.yul\":4513:4519   */\n      0x00\n        /* \"#utility.yul\":4547:4552   */\n      dup2\n        /* \"#utility.yul\":4541:4553   */\n      mload\n        /* \"#utility.yul\":4531:4553   */\n      swap1\n      pop\n        /* \"#utility.yul\":4461:4560   */\n      swap2\n      swap1\n      pop\n      jump\t// out\n        /* \"#utility.yul\":4566:4735   */\n    tag_103:\n        /* \"#utility.yul\":4650:4661   */\n      0x00\n        /* \"#utility.yul\":4684:4690   */\n      dup3\n        /* \"#utility.yul\":4679:4682   */\n      dup3\n        /* \"#utility.yul\":4672:4691   */\n      mstore\n        /* \"#utility.yul\":4724:4728   */\n      0x20\n        /* \"#utility.yul\":4719:4722   */\n      dup3\n        /* \"#utility.yul\":4715:4729   */\n      add\n        /* \"#utility.yul\":4700:4729   */\n      swap1\n      pop\n        /* \"#utility.yul\":4566:4735   */\n      swap3\n      swap2\n      pop\n      pop\n      jump\t// out\n        /* \"#utility.yul\":4741:4889   */\n    tag_112:\n        /* \"#utility.yul\":4843:4854   */\n      0x00\n        /* \"#utility.yul\":4880:4883   */\n      dup2\n        /* \"#utility.yul\":4865:4883   */\n      swap1\n      pop\n        /* \"#utility.yul\":4741:4889   */\n      swap3\n      swap2\n      pop\n      pop\n      jump\t// out\n        /* \"#utility.yul\":4895:5200   */\n    tag_35:\n        /* \"#utility.yul\":4935:4938   */\n      0x00\n        /* \"#utility.yul\":4954:4974   */\n      tag_145\n        /* \"#utility.yul\":4972:4973   */\n      dup3\n        /* \"#utility.yul\":4954:4974   */\n      tag_129\n      jump\t// in\n    tag_145:\n        /* \"#utility.yul\":4949:4974   */\n      swap2\n      pop\n        /* \"#utility.yul\":4988:5008   */\n      tag_146\n        /* \"#utility.yul\":5006:5007   */\n      dup4\n        /* \"#utility.yul\":4988:5008   */\n      tag_129\n      jump\t// in\n    tag_146:\n        /* \"#utility.yul\":4983:5008   */\n      swap3\n      pop\n        /* \"#utility.yul\":5142:5143   */\n      dup3\n        /* \"#utility.yul\":5074:5140   */\n      0xffffffffffffffffffffffffffffffffffffffffffffffffffffffffffffffff\n        /* \"#utility.yul\":5070:5144   */\n      sub\n        /* \"#utility.yul\":5067:5068   */\n      dup3\n        /* \"#utility.yul\":5064:5145   */\n      gt\n        /* \"#utility.yul\":5061:5168   */\n      iszero\n      tag_147\n      jumpi\n        /* \"#utility.yul\":5148:5166   */\n      tag_148\n      tag_149\n      jump\t// in\n    tag_148:\n        /* \"#utility.yul\":5061:5168   */\n    tag_147:\n        /* \"#utility.yul\":5192:5193   */\n      dup3\n        /* \"#utility.yul\":5189:5190   */\n      dup3\n        /* \"#utility.yul\":5185:5194   */\n      add\n        /* \"#utility.yul\":5178:5194   */\n      swap1\n      pop\n        /* \"#utility.yul\":4895:5200   */\n      swap3\n      swap2\n      pop\n      pop\n      jump\t// out\n        /* \"#utility.yul\":5206:5283   */\n    tag_129:\n        /* \"#utility.yul\":5243:5250   */\n      0x00\n        /* \"#utility.yul\":5272:5277   */\n      dup2\n        /* \"#utility.yul\":5261:5277   */\n      swap1\n      pop\n        /* \"#utility.yul\":5206:5283   */\n      swap2\n      swap1\n      pop\n      jump\t// out\n        /* \"#utility.yul\":5289:5382   */\n    tag_151:\n        /* \"#utility.yul\":5325:5332   */\n      0x00\n        /* \"#utility.yul\":5365:5375   */\n      0xffffffff\n        /* \"#utility.yul\":5358:5363   */\n      dup3\n        /* \"#utility.yul\":5354:5376   */\n      and\n        /* \"#utility.yul\":5343:5376   */\n      swap1\n      pop\n        /* \"#utility.yul\":5289:5382   */\n      swap2\n      swap1\n      pop\n      jump\t// out\n        /* \"#utility.yul\":5388:5695   */\n    tag_105:\n        /* \"#utility.yul\":5456:5457   */\n      0x00\n        /* \"#utility.yul\":5466:5579   */\n    tag_154:\n        /* \"#utility.yul\":5480:5486   */\n      dup4\n        /* \"#utility.yul\":5477:5478   */\n      dup2\n        /* \"#utility.yul\":5474:5487   */\n      lt\n        /* \"#utility.yul\":5466:5579   */\n      iszero\n      tag_156\n      jumpi\n        /* \"#utility.yul\":5565:5566   */\n      dup1\n        /* \"#utility.yul\":5560:5563   */\n      dup3\n        /* \"#utility.yul\":5556:5567   */\n      add\n        /* \"#utility.yul\":5550:5568   */\n      mload\n        /* \"#utility.yul\":5546:5547   */\n      dup2\n        /* \"#utility.yul\":5541:5544   */\n      dup5\n        /* \"#utility.yul\":5537:5548   */\n      add\n        /* \"#utility.yul\":5530:5569   */\n      mstore\n        /* \"#utility.yul\":5502:5504   */\n      0x20\n        /* \"#utility.yul\":5499:5500   */\n      dup2\n        /* \"#utility.yul\":5495:5505   */\n      add\n        /* \"#utility.yul\":5490:5505   */\n      swap1\n      pop\n        /* \"#utility.yul\":5466:5579   */\n      jump(tag_154)\n    tag_156:\n        /* \"#utility.yul\":5597:5603   */\n      dup4\n        /* \"#utility.yul\":5594:5595   */\n      dup2\n        /* \"#utility.yul\":5591:5604   */\n      gt\n        /* \"#utility.yul\":5588:5689   */\n      iszero\n      tag_157\n      jumpi\n        /* \"#utility.yul\":5677:5678   */\n      0x00\n        /* \"#utility.yul\":5668:5674   */\n      dup5\n        /* \"#utility.yul\":5663:5666   */\n      dup5\n        /* \"#utility.yul\":5659:5675   */\n      add\n        /* \"#utility.yul\":5652:5679   */\n      mstore\n        /* \"#utility.yul\":5588:5689   */\n    tag_157:\n        /* \"#utility.yul\":5437:5695   */\n      pop\n        /* \"#utility.yul\":5388:5695   */\n      pop\n      pop\n      pop\n      jump\t// out\n        /* \"#utility.yul\":5701:6021   */\n    tag_28:\n        /* \"#utility.yul\":5745:5751   */\n      0x00\n        /* \"#utility.yul\":5782:5783   */\n      0x02\n        /* \"#utility.yul\":5776:5780   */\n      dup3\n        /* \"#utility.yul\":5772:5784   */\n      div\n        /* \"#utility.yul\":5762:5784   */\n      swap1\n      pop\n        /* \"#utility.yul\":5829:5830   */\n      0x01\n        /* \"#utility.yul\":5823:5827   */\n      dup3\n        /* \"#utility.yul\":5819:5831   */\n      and\n        /* \"#utility.yul\":5850:5868   */\n      dup1\n        /* \"#utility.yul\":5840:5921   */\n      tag_159\n      jumpi\n        /* \"#utility.yul\":5906:5910   */\n      0x7f\n        /* \"#utility.yul\":5898:5904   */\n      dup3\n        /* \"#utility.yul\":5894:5911   */\n      and\n        /* \"#utility.yul\":5884:5911   */\n      swap2\n      pop\n        /* \"#utility.yul\":5840:5921   */\n    tag_159:\n        /* \"#utility.yul\":5968:5970   */\n      0x20\n        /* \"#utility.yul\":5960:5966   */\n      dup3\n        /* \"#utility.yul\":5957:5971   */\n      lt\n        /* \"#utility.yul\":5937:5955   */\n      dup2\n        /* \"#utility.yul\":5934:5972   */\n      eq\n        /* \"#utility.yul\":5931:6015   */\n      iszero\n      tag_160\n      jumpi\n        /* \"#utility.yul\":5987:6005   */\n      tag_161\n      tag_162\n      jump\t// in\n    tag_161:\n        /* \"#utility.yul\":5931:6015   */\n    tag_160:\n        /* \"#utility.yul\":5752:6021   */\n      pop\n        /* \"#utility.yul\":5701:6021   */\n      swap2\n      swap1\n      pop\n      jump\t// out\n        /* \"#utility.yul\":6027:6207   */\n    tag_149:\n        /* \"#utility.yul\":6075:6152   */\n      0x4e487b7100000000000000000000000000000000000000000000000000000000\n        /* \"#utility.yul\":6072:6073   */\n      0x00\n        /* \"#utility.yul\":6065:6153   */\n      mstore\n        /* \"#utility.yul\":6172:6176   */\n      0x11\n        /* \"#utility.yul\":6169:6170   */\n      0x04\n        /* \"#utility.yul\":6162:6177   */\n      mstore\n        /* \"#utility.yul\":6196:6200   */\n      0x24\n        /* \"#utility.yul\":6193:6194   */\n      0x00\n        /* \"#utility.yul\":6186:6201   */\n      revert\n        /* \"#utility.yul\":6213:6393   */\n    tag_162:\n        /* \"#utility.yul\":6261:6338   */\n      0x4e487b7100000000000000000000000000000000000000000000000000000000\n        /* \"#utility.yul\":6258:6259   */\n      0x00\n        /* \"#utility.yul\":6251:6339   */\n      mstore\n        /* \"#utility.yul\":6358:6362   */\n      0x22\n        /* \"#utility.yul\":6355:6356   */\n      0x04\n        /* \"#utility.yul\":6348:6363   */\n      mstore\n        /* \"#utility.yul\":6382:6386   */\n      0x24\n        /* \"#utility.yul\":6379:6380   */\n      0x00\n        /* \"#utility.yul\":6372:6387   */\n      revert\n        /* \"#utility.yul\":6522:6639   */\n    tag_90:\n        /* \"#utility.yul\":6631:6632   */\n      0x00\n        /* \"#utility.yul\":6628:6629   */\n      dup1\n        /* \"#utility.yul\":6621:6633   */\n      revert\n        /* \"#utility.yul\":6645:6747   */\n    tag_107:\n        /* \"#utility.yul\":6686:6692   */\n      0x00\n        /* \"#utility.yul\":6737:6739   */\n      0x1f\n        /* \"#utility.yul\":6733:6740   */\n      not\n        /* \"#utility.yul\":6728:6730   */\n      0x1f\n        /* \"#utility.yul\":6721:6726   */\n      dup4\n        /* \"#utility.yul\":6717:6731   */\n      add\n        /* \"#utility.yul\":6713:6741   */\n      and\n        /* \"#utility.yul\":6703:6741   */\n      swap1\n      pop\n        /* \"#utility.yul\":6645:6747   */\n      swap2\n      swap1\n      pop\n      jump\t// out\n        /* \"#utility.yul\":6753:6909   */\n    tag_125:\n        /* \"#utility.yul\":6893:6901   */\n      0x564f54494e470000000000000000000000000000000000000000000000000000\n        /* \"#utility.yul\":6889:6890   */\n      0x00\n        /* \"#utility.yul\":6881:6887   */\n      dup3\n        /* \"#utility.yul\":6877:6891   */\n      add\n        /* \"#utility.yul\":6870:6902   */\n      mstore\n        /* \"#utility.yul\":6753:6909   */\n      pop\n      jump\t// out\n        /* \"#utility.yul\":6915:7037   */\n    tag_82:\n        /* \"#utility.yul\":6988:7012   */\n      tag_171\n        /* \"#utility.yul\":7006:7011   */\n      dup2\n        /* \"#utility.yul\":6988:7012   */\n      tag_129\n      jump\t// in\n    tag_171:\n        /* \"#utility.yul\":6981:6986   */\n      dup2\n        /* \"#utility.yul\":6978:7013   */\n      eq\n        /* \"#utility.yul\":6968:7031   */\n      tag_172\n      jumpi\n        /* \"#utility.yul\":7027:7028   */\n      0x00\n        /* \"#utility.yul\":7024:7025   */\n      dup1\n        /* \"#utility.yul\":7017:7029   */\n      revert\n        /* \"#utility.yul\":6968:7031   */\n    tag_172:\n        /* \"#utility.yul\":6915:7037   */\n      pop\n      jump\t// out\n        /* \"#utility.yul\":7043:7163   */\n    tag_86:\n        /* \"#utility.yul\":7115:7138   */\n      tag_174\n        /* \"#utility.yul\":7132:7137   */\n      dup2\n        /* \"#utility.yul\":7115:7138   */\n      tag_151\n      jump\t// in\n    tag_174:\n        /* \"#utility.yul\":7108:7113   */\n      dup2\n        /* \"#utility.yul\":7105:7139   */\n      eq\n        /* \"#utility.yul\":7095:7157   */\n      tag_175\n      jumpi\n        /* \"#utility.yul\":7153:7154   */\n      0x00\n        /* \"#utility.yul\":7150:7151   */\n      dup1\n        /* \"#utility.yul\":7143:7155   */\n      revert\n        /* \"#utility.yul\":7095:7157   */\n    tag_175:\n        /* \"#utility.yul\":7043:7163   */\n      pop\n      jump\t// out\n\n    auxdata: 0xa2646970667358221220509c8aa9d497b804382eddcc0535b7acbcfcd5a067b1a0b403db669a6ce617f164736f6c63430008070033\n}\n",
				"bytecode": {
					"linkReferences": {},
					"object": "60806040526040518060400160405280600481526020017f494e4954000000000000000000000000000000000000000000000000000000008152506002908051906020019061004f929190610062565b5034801561005c57600080fd5b50610166565b82805461006e90610105565b90600052602060002090601f01602090048101928261009057600085556100d7565b82601f106100a957805160ff19168380011785556100d7565b828001600101855582156100d7579182015b828111156100d65782518255916020019190600101906100bb565b5b5090506100e491906100e8565b5090565b5b808211156101015760008160009055506001016100e9565b5090565b6000600282049050600182168061011d57607f821691505b6020821081141561013157610130610137565b5b50919050565b7f4e487b7100000000000000000000000000000000000000000000000000000000600052602260045260246000fd5b6109a7806101756000396000f3fe608060405234801561001057600080fd5b50600436106100575760003560e01c80631865c57d1461005c57806336f71c3f1461007a5780636aba253c14610096578063e2332196146100a0578063fff94931146100bc575b600080fd5b6100646100da565b6040516100719190610758565b60405180910390f35b610094600480360381019061008f91906105c2565b61016c565b005b61009e6101ee565b005b6100ba60048036038101906100b59190610602565b61029d565b005b6100c4610408565b6040516100d1919061077a565b60405180910390f35b6060600280546100e990610874565b80601f016020809104026020016040519081016040528092919081815260200182805461011590610874565b80156101625780601f1061013757610100808354040283529160200191610162565b820191906000526020600020905b81548152906001019060200180831161014557829003601f168201915b5050505050905090565b804261017891906107d1565b600181905550816000806101000a81548163ffffffff021916908363ffffffff1602179055506040518060400160405280600681526020017f564f54494e470000000000000000000000000000000000000000000000000000815250600290805190602001906101e99291906104f5565b505050565b6040516020016101fd90610743565b604051602081830303815290604052805190602001206002604051602001610225919061072c565b60405160208183030381529060405280519060200120148015610249575060015442115b1561029b576040518060400160405280600781526020017f54494d454f555400000000000000000000000000000000000000000000000000815250600290805190602001906102999291906104f5565b505b565b60008054906101000a900463ffffffff1663ffffffff166102be600361040e565b14156102c957610404565b600154421115610324576040518060400160405280600781526020017f54494d454f5554000000000000000000000000000000000000000000000000008152506002908051906020019061031e9291906104f5565b50610404565b60008263ffffffff161415610384576040518060400160405280600581526020017f41424f52540000000000000000000000000000000000000000000000000000008152506002908051906020019061037e9291906104f5565b50610404565b61038f60038261041f565b60008054906101000a900463ffffffff1663ffffffff166103b0600361040e565b1415610403576040518060400160405280600681526020017f434f4d4d49540000000000000000000000000000000000000000000000000000815250600290805190602001906104019291906104f5565b505b5b5050565b60015481565b600081600001805490509050919050565b61042982826104bc565b6104b857816000018190806001815401808255809150506001900390600052602060002090600891828204019190066004029091909190916101000a81548163ffffffff021916908363ffffffff16021790555060018260010160008363ffffffff1663ffffffff16815260200190815260200160002060006101000a81548160ff0219169083151502179055505b5050565b60008260010160008363ffffffff1663ffffffff16815260200190815260200160002060009054906101000a900460ff16905092915050565b82805461050190610874565b90600052602060002090601f016020900481019282610523576000855561056a565b82601f1061053c57805160ff191683800117855561056a565b8280016001018555821561056a579182015b8281111561056957825182559160200191906001019061054e565b5b509050610577919061057b565b5090565b5b8082111561059457600081600090555060010161057c565b5090565b6000813590506105a781610943565b92915050565b6000813590506105bc8161095a565b92915050565b600080604083850312156105d9576105d8610904565b5b60006105e7858286016105ad565b92505060206105f885828601610598565b9150509250929050565b6000806040838503121561061957610618610904565b5b6000610627858286016105ad565b9250506020610638858286016105ad565b9150509250929050565b600061064d826107aa565b61065781856107b5565b9350610667818560208601610841565b61067081610909565b840191505092915050565b6000815461068881610874565b61069281866107c6565b945060018216600081146106ad57600181146106be576106f1565b60ff198316865281860193506106f1565b6106c785610795565b60005b838110156106e9578154818901526001820191506020810190506106ca565b838801955050505b50505092915050565b60006107076006836107c6565b91506107128261091a565b600682019050919050565b61072681610827565b82525050565b6000610738828461067b565b915081905092915050565b600061074e826106fa565b9150819050919050565b600060208201905081810360008301526107728184610642565b905092915050565b600060208201905061078f600083018461071d565b92915050565b60008190508160005260206000209050919050565b600081519050919050565b600082825260208201905092915050565b600081905092915050565b60006107dc82610827565b91506107e783610827565b9250827fffffffffffffffffffffffffffffffffffffffffffffffffffffffffffffffff0382111561081c5761081b6108a6565b5b828201905092915050565b6000819050919050565b600063ffffffff82169050919050565b60005b8381101561085f578082015181840152602081019050610844565b8381111561086e576000848401525b50505050565b6000600282049050600182168061088c57607f821691505b602082108114156108a05761089f6108d5565b5b50919050565b7f4e487b7100000000000000000000000000000000000000000000000000000000600052601160045260246000fd5b7f4e487b7100000000000000000000000000000000000000000000000000000000600052602260045260246000fd5b600080fd5b6000601f19601f8301169050919050565b7f564f54494e470000000000000000000000000000000000000000000000000000600082015250565b61094c81610827565b811461095757600080fd5b50565b61096381610831565b811461096e57600080fd5b5056fea2646970667358221220509c8aa9d497b804382eddcc0535b7acbcfcd5a067b1a0b403db669a6ce617f164736f6c63430008070033",
					"opcodes": "PUSH1 0x80 PUSH1 0x40 MSTORE PUSH1 0x40 MLOAD DUP1 PUSH1 0x40 ADD PUSH1 0x40 MSTORE DUP1 PUSH1 0x4 DUP2 MSTORE PUSH1 0x20 ADD PUSH32 0x494E495400000000000000000000000000000000000000000000000000000000 DUP2 MSTORE POP PUSH1 0x2 SWAP1 DUP1 MLOAD SWAP1 PUSH1 0x20 ADD SWAP1 PUSH2 0x4F SWAP3 SWAP2 SWAP1 PUSH2 0x62 JUMP JUMPDEST POP CALLVALUE DUP1 ISZERO PUSH2 0x5C JUMPI PUSH1 0x0 DUP1 REVERT JUMPDEST POP PUSH2 0x166 JUMP JUMPDEST DUP3 DUP1 SLOAD PUSH2 0x6E SWAP1 PUSH2 0x105 JUMP JUMPDEST SWAP1 PUSH1 0x0 MSTORE PUSH1 0x20 PUSH1 0x0 KECCAK256 SWAP1 PUSH1 0x1F ADD PUSH1 0x20 SWAP1 DIV DUP2 ADD SWAP3 DUP3 PUSH2 0x90 JUMPI PUSH1 0x0 DUP6 SSTORE PUSH2 0xD7 JUMP JUMPDEST DUP3 PUSH1 0x1F LT PUSH2 0xA9 JUMPI DUP1 MLOAD PUSH1 0xFF NOT AND DUP4 DUP1 ADD OR DUP6 SSTORE PUSH2 0xD7 JUMP JUMPDEST DUP3 DUP1 ADD PUSH1 0x1 ADD DUP6 SSTORE DUP3 ISZERO PUSH2 0xD7 JUMPI SWAP2 DUP3 ADD JUMPDEST DUP3 DUP2 GT ISZERO PUSH2 0xD6 JUMPI DUP3 MLOAD DUP3 SSTORE SWAP2 PUSH1 0x20 ADD SWAP2 SWAP1 PUSH1 0x1 ADD SWAP1 PUSH2 0xBB JUMP JUMPDEST JUMPDEST POP SWAP1 POP PUSH2 0xE4 SWAP2 SWAP1 PUSH2 0xE8 JUMP JUMPDEST POP SWAP1 JUMP JUMPDEST JUMPDEST DUP1 DUP3 GT ISZERO PUSH2 0x101 JUMPI PUSH1 0x0 DUP2 PUSH1 0x0 SWAP1 SSTORE POP PUSH1 0x1 ADD PUSH2 0xE9 JUMP JUMPDEST POP SWAP1 JUMP JUMPDEST PUSH1 0x0 PUSH1 0x2 DUP3 DIV SWAP1 POP PUSH1 0x1 DUP3 AND DUP1 PUSH2 0x11D JUMPI PUSH1 0x7F DUP3 AND SWAP2 POP JUMPDEST PUSH1 0x20 DUP3 LT DUP2 EQ ISZERO PUSH2 0x131 JUMPI PUSH2 0x130 PUSH2 0x137 JUMP JUMPDEST JUMPDEST POP SWAP2 SWAP1 POP JUMP JUMPDEST PUSH32 0x4E487B7100000000000000000000000000000000000000000000000000000000 PUSH1 0x0 MSTORE PUSH1 0x22 PUSH1 0x4 MSTORE PUSH1 0x24 PUSH1 0x0 REVERT JUMPDEST PUSH2 0x9A7 DUP1 PUSH2 0x175 PUSH1 0x0 CODECOPY PUSH1 0x0 RETURN INVALID PUSH1 0x80 PUSH1 0x40 MSTORE CALLVALUE DUP1 ISZERO PUSH2 0x10 JUMPI PUSH1 0x0 DUP1 REVERT JUMPDEST POP PUSH1 0x4 CALLDATASIZE LT PUSH2 0x57 JUMPI PUSH1 0x0 CALLDATALOAD PUSH1 0xE0 SHR DUP1 PUSH4 0x1865C57D EQ PUSH2 0x5C JUMPI DUP1 PUSH4 0x36F71C3F EQ PUSH2 0x7A JUMPI DUP1 PUSH4 0x6ABA253C EQ PUSH2 0x96 JUMPI DUP1 PUSH4 0xE2332196 EQ PUSH2 0xA0 JUMPI DUP1 PUSH4 0xFFF94931 EQ PUSH2 0xBC JUMPI JUMPDEST PUSH1 0x0 DUP1 REVERT JUMPDEST PUSH2 0x64 PUSH2 0xDA JUMP JUMPDEST PUSH1 0x40 MLOAD PUSH2 0x71 SWAP2 SWAP1 PUSH2 0x758 JUMP JUMPDEST PUSH1 0x40 MLOAD DUP1 SWAP2 SUB SWAP1 RETURN JUMPDEST PUSH2 0x94 PUSH1 0x4 DUP1 CALLDATASIZE SUB DUP2 ADD SWAP1 PUSH2 0x8F SWAP2 SWAP1 PUSH2 0x5C2 JUMP JUMPDEST PUSH2 0x16C JUMP JUMPDEST STOP JUMPDEST PUSH2 0x9E PUSH2 0x1EE JUMP JUMPDEST STOP JUMPDEST PUSH2 0xBA PUSH1 0x4 DUP1 CALLDATASIZE SUB DUP2 ADD SWAP1 PUSH2 0xB5 SWAP2 SWAP1 PUSH2 0x602 JUMP JUMPDEST PUSH2 0x29D JUMP JUMPDEST STOP JUMPDEST PUSH2 0xC4 PUSH2 0x408 JUMP JUMPDEST PUSH1 0x40 MLOAD PUSH2 0xD1 SWAP2 SWAP1 PUSH2 0x77A JUMP JUMPDEST PUSH1 0x40 MLOAD DUP1 SWAP2 SUB SWAP1 RETURN JUMPDEST PUSH1 0x60 PUSH1 0x2 DUP1 SLOAD PUSH2 0xE9 SWAP1 PUSH2 0x874 JUMP JUMPDEST DUP1 PUSH1 0x1F ADD PUSH1 0x20 DUP1 SWAP2 DIV MUL PUSH1 0x20 ADD PUSH1 0x40 MLOAD SWAP1 DUP2 ADD PUSH1 0x40 MSTORE DUP1 SWAP3 SWAP2 SWAP1 DUP2 DUP2 MSTORE PUSH1 0x20 ADD DUP3 DUP1 SLOAD PUSH2 0x115 SWAP1 PUSH2 0x874 JUMP JUMPDEST DUP1 ISZERO PUSH2 0x162 JUMPI DUP1 PUSH1 0x1F LT PUSH2 0x137 JUMPI PUSH2 0x100 DUP1 DUP4 SLOAD DIV MUL DUP4 MSTORE SWAP2 PUSH1 0x20 ADD SWAP2 PUSH2 0x162 JUMP JUMPDEST DUP3 ADD SWAP2 SWAP1 PUSH1 0x0 MSTORE PUSH1 0x20 PUSH1 0x0 KECCAK256 SWAP1 JUMPDEST DUP2 SLOAD DUP2 MSTORE SWAP1 PUSH1 0x1 ADD SWAP1 PUSH1 0x20 ADD DUP1 DUP4 GT PUSH2 0x145 JUMPI DUP3 SWAP1 SUB PUSH1 0x1F AND DUP3 ADD SWAP2 JUMPDEST POP POP POP POP POP SWAP1 POP SWAP1 JUMP JUMPDEST DUP1 TIMESTAMP PUSH2 0x178 SWAP2 SWAP1 PUSH2 0x7D1 JUMP JUMPDEST PUSH1 0x1 DUP2 SWAP1 SSTORE POP DUP2 PUSH1 0x0 DUP1 PUSH2 0x100 EXP DUP2 SLOAD DUP2 PUSH4 0xFFFFFFFF MUL NOT AND SWAP1 DUP4 PUSH4 0xFFFFFFFF AND MUL OR SWAP1 SSTORE POP PUSH1 0x40 MLOAD DUP1 PUSH1 0x40 ADD PUSH1 0x40 MSTORE DUP1 PUSH1 0x6 DUP2 MSTORE PUSH1 0x20 ADD PUSH32 0x564F54494E470000000000000000000000000000000000000000000000000000 DUP2 MSTORE POP PUSH1 0x2 SWAP1 DUP1 MLOAD SWAP1 PUSH1 0x20 ADD SWAP1 PUSH2 0x1E9 SWAP3 SWAP2 SWAP1 PUSH2 0x4F5 JUMP JUMPDEST POP POP POP JUMP JUMPDEST PUSH1 0x40 MLOAD PUSH1 0x20 ADD PUSH2 0x1FD SWAP1 PUSH2 0x743 JUMP JUMPDEST PUSH1 0x40 MLOAD PUSH1 0x20 DUP2 DUP4 SUB SUB DUP2 MSTORE SWAP1 PUSH1 0x40 MSTORE DUP1 MLOAD SWAP1 PUSH1 0x20 ADD KECCAK256 PUSH1 0x2 PUSH1 0x40 MLOAD PUSH1 0x20 ADD PUSH2 0x225 SWAP2 SWAP1 PUSH2 0x72C JUMP JUMPDEST PUSH1 0x40 MLOAD PUSH1 0x20 DUP2 DUP4 SUB SUB DUP2 MSTORE SWAP1 PUSH1 0x40 MSTORE DUP1 MLOAD SWAP1 PUSH1 0x20 ADD KECCAK256 EQ DUP1 ISZERO PUSH2 0x249 JUMPI POP PUSH1 0x1 SLOAD TIMESTAMP GT JUMPDEST ISZERO PUSH2 0x29B JUMPI PUSH1 0x40 MLOAD DUP1 PUSH1 0x40 ADD PUSH1 0x40 MSTORE DUP1 PUSH1 0x7 DUP2 MSTORE PUSH1 0x20 ADD PUSH32 0x54494D454F555400000000000000000000000000000000000000000000000000 DUP2 MSTORE POP PUSH1 0x2 SWAP1 DUP1 MLOAD SWAP1 PUSH1 0x20 ADD SWAP1 PUSH2 0x299 SWAP3 SWAP2 SWAP1 PUSH2 0x4F5 JUMP JUMPDEST POP JUMPDEST JUMP JUMPDEST PUSH1 0x0 DUP1 SLOAD SWAP1 PUSH2 0x100 EXP SWAP1 DIV PUSH4 0xFFFFFFFF AND PUSH4 0xFFFFFFFF AND PUSH2 0x2BE PUSH1 0x3 PUSH2 0x40E JUMP JUMPDEST EQ ISZERO PUSH2 0x2C9 JUMPI PUSH2 0x404 JUMP JUMPDEST PUSH1 0x1 SLOAD TIMESTAMP GT ISZERO PUSH2 0x324 JUMPI PUSH1 0x40 MLOAD DUP1 PUSH1 0x40 ADD PUSH1 0x40 MSTORE DUP1 PUSH1 0x7 DUP2 MSTORE PUSH1 0x20 ADD PUSH32 0x54494D454F555400000000000000000000000000000000000000000000000000 DUP2 MSTORE POP PUSH1 0x2 SWAP1 DUP1 MLOAD SWAP1 PUSH1 0x20 ADD SWAP1 PUSH2 0x31E SWAP3 SWAP2 SWAP1 PUSH2 0x4F5 JUMP JUMPDEST POP PUSH2 0x404 JUMP JUMPDEST PUSH1 0x0 DUP3 PUSH4 0xFFFFFFFF AND EQ ISZERO PUSH2 0x384 JUMPI PUSH1 0x40 MLOAD DUP1 PUSH1 0x40 ADD PUSH1 0x40 MSTORE DUP1 PUSH1 0x5 DUP2 MSTORE PUSH1 0x20 ADD PUSH32 0x41424F5254000000000000000000000000000000000000000000000000000000 DUP2 MSTORE POP PUSH1 0x2 SWAP1 DUP1 MLOAD SWAP1 PUSH1 0x20 ADD SWAP1 PUSH2 0x37E SWAP3 SWAP2 SWAP1 PUSH2 0x4F5 JUMP JUMPDEST POP PUSH2 0x404 JUMP JUMPDEST PUSH2 0x38F PUSH1 0x3 DUP3 PUSH2 0x41F JUMP JUMPDEST PUSH1 0x0 DUP1 SLOAD SWAP1 PUSH2 0x100 EXP SWAP1 DIV PUSH4 0xFFFFFFFF AND PUSH4 0xFFFFFFFF AND PUSH2 0x3B0 PUSH1 0x3 PUSH2 0x40E JUMP JUMPDEST EQ ISZERO PUSH2 0x403 JUMPI PUSH1 0x40 MLOAD DUP1 PUSH1 0x40 ADD PUSH1 0x40 MSTORE DUP1 PUSH1 0x6 DUP2 MSTORE PUSH1 0x20 ADD PUSH32 0x434F4D4D49540000000000000000000000000000000000000000000000000000 DUP2 MSTORE POP PUSH1 0x2 SWAP1 DUP1 MLOAD SWAP1 PUSH1 0x20 ADD SWAP1 PUSH2 0x401 SWAP3 SWAP2 SWAP1 PUSH2 0x4F5 JUMP JUMPDEST POP JUMPDEST JUMPDEST POP POP JUMP JUMPDEST PUSH1 0x1 SLOAD DUP2 JUMP JUMPDEST PUSH1 0x0 DUP2 PUSH1 0x0 ADD DUP1 SLOAD SWAP1 POP SWAP1 POP SWAP2 SWAP1 POP JUMP JUMPDEST PUSH2 0x429 DUP3 DUP3 PUSH2 0x4BC JUMP JUMPDEST PUSH2 0x4B8 JUMPI DUP2 PUSH1 0x0 ADD DUP2 SWAP1 DUP1 PUSH1 0x1 DUP2 SLOAD ADD DUP1 DUP3 SSTORE DUP1 SWAP2 POP POP PUSH1 0x1 SWAP1 SUB SWAP1 PUSH1 0x0 MSTORE PUSH1 0x20 PUSH1 0x0 KECCAK256 SWAP1 PUSH1 0x8 SWAP2 DUP3 DUP3 DIV ADD SWAP2 SWAP1 MOD PUSH1 0x4 MUL SWAP1 SWAP2 SWAP1 SWAP2 SWAP1 SWAP2 PUSH2 0x100 EXP DUP2 SLOAD DUP2 PUSH4 0xFFFFFFFF MUL NOT AND SWAP1 DUP4 PUSH4 0xFFFFFFFF AND MUL OR SWAP1 SSTORE POP PUSH1 0x1 DUP3 PUSH1 0x1 ADD PUSH1 0x0 DUP4 PUSH4 0xFFFFFFFF AND PUSH4 0xFFFFFFFF AND DUP2 MSTORE PUSH1 0x20 ADD SWAP1 DUP2 MSTORE PUSH1 0x20 ADD PUSH1 0x0 KECCAK256 PUSH1 0x0 PUSH2 0x100 EXP DUP2 SLOAD DUP2 PUSH1 0xFF MUL NOT AND SWAP1 DUP4 ISZERO ISZERO MUL OR SWAP1 SSTORE POP JUMPDEST POP POP JUMP JUMPDEST PUSH1 0x0 DUP3 PUSH1 0x1 ADD PUSH1 0x0 DUP4 PUSH4 0xFFFFFFFF AND PUSH4 0xFFFFFFFF AND DUP2 MSTORE PUSH1 0x20 ADD SWAP1 DUP2 MSTORE PUSH1 0x20 ADD PUSH1 0x0 KECCAK256 PUSH1 0x0 SWAP1 SLOAD SWAP1 PUSH2 0x100 EXP SWAP1 DIV PUSH1 0xFF AND SWAP1 POP SWAP3 SWAP2 POP POP JUMP JUMPDEST DUP3 DUP1 SLOAD PUSH2 0x501 SWAP1 PUSH2 0x874 JUMP JUMPDEST SWAP1 PUSH1 0x0 MSTORE PUSH1 0x20 PUSH1 0x0 KECCAK256 SWAP1 PUSH1 0x1F ADD PUSH1 0x20 SWAP1 DIV DUP2 ADD SWAP3 DUP3 PUSH2 0x523 JUMPI PUSH1 0x0 DUP6 SSTORE PUSH2 0x56A JUMP JUMPDEST DUP3 PUSH1 0x1F LT PUSH2 0x53C JUMPI DUP1 MLOAD PUSH1 0xFF NOT AND DUP4 DUP1 ADD OR DUP6 SSTORE PUSH2 0x56A JUMP JUMPDEST DUP3 DUP1 ADD PUSH1 0x1 ADD DUP6 SSTORE DUP3 ISZERO PUSH2 0x56A JUMPI SWAP2 DUP3 ADD JUMPDEST DUP3 DUP2 GT ISZERO PUSH2 0x569 JUMPI DUP3 MLOAD DUP3 SSTORE SWAP2 PUSH1 0x20 ADD SWAP2 SWAP1 PUSH1 0x1 ADD SWAP1 PUSH2 0x54E JUMP JUMPDEST JUMPDEST POP SWAP1 POP PUSH2 0x577 SWAP2 SWAP1 PUSH2 0x57B JUMP JUMPDEST POP SWAP1 JUMP JUMPDEST JUMPDEST DUP1 DUP3 GT ISZERO PUSH2 0x594 JUMPI PUSH1 0x0 DUP2 PUSH1 0x0 SWAP1 SSTORE POP PUSH1 0x1 ADD PUSH2 0x57C JUMP JUMPDEST POP SWAP1 JUMP JUMPDEST PUSH1 0x0 DUP2 CALLDATALOAD SWAP1 POP PUSH2 0x5A7 DUP2 PUSH2 0x943 JUMP JUMPDEST SWAP3 SWAP2 POP POP JUMP JUMPDEST PUSH1 0x0 DUP2 CALLDATALOAD SWAP1 POP PUSH2 0x5BC DUP2 PUSH2 0x95A JUMP JUMPDEST SWAP3 SWAP2 POP POP JUMP JUMPDEST PUSH1 0x0 DUP1 PUSH1 0x40 DUP4 DUP6 SUB SLT ISZERO PUSH2 0x5D9 JUMPI PUSH2 0x5D8 PUSH2 0x904 JUMP JUMPDEST JUMPDEST PUSH1 0x0 PUSH2 0x5E7 DUP6 DUP3 DUP7 ADD PUSH2 0x5AD JUMP JUMPDEST SWAP3 POP POP PUSH1 0x20 PUSH2 0x5F8 DUP6 DUP3 DUP7 ADD PUSH2 0x598 JUMP JUMPDEST SWAP2 POP POP SWAP3 POP SWAP3 SWAP1 POP JUMP JUMPDEST PUSH1 0x0 DUP1 PUSH1 0x40 DUP4 DUP6 SUB SLT ISZERO PUSH2 0x619 JUMPI PUSH2 0x618 PUSH2 0x904 JUMP JUMPDEST JUMPDEST PUSH1 0x0 PUSH2 0x627 DUP6 DUP3 DUP7 ADD PUSH2 0x5AD JUMP JUMPDEST SWAP3 POP POP PUSH1 0x20 PUSH2 0x638 DUP6 DUP3 DUP7 ADD PUSH2 0x5AD JUMP JUMPDEST SWAP2 POP POP SWAP3 POP SWAP3 SWAP1 POP JUMP JUMPDEST PUSH1 0x0 PUSH2 0x64D DUP3 PUSH2 0x7AA JUMP JUMPDEST PUSH2 0x657 DUP2 DUP6 PUSH2 0x7B5 JUMP JUMPDEST SWAP4 POP PUSH2 0x667 DUP2 DUP6 PUSH1 0x20 DUP7 ADD PUSH2 0x841 JUMP JUMPDEST PUSH2 0x670 DUP2 PUSH2 0x909 JUMP JUMPDEST DUP5 ADD SWAP2 POP POP SWAP3 SWAP2 POP POP JUMP JUMPDEST PUSH1 0x0 DUP2 SLOAD PUSH2 0x688 DUP2 PUSH2 0x874 JUMP JUMPDEST PUSH2 0x692 DUP2 DUP7 PUSH2 0x7C6 JUMP JUMPDEST SWAP5 POP PUSH1 0x1 DUP3 AND PUSH1 0x0 DUP2 EQ PUSH2 0x6AD JUMPI PUSH1 0x1 DUP2 EQ PUSH2 0x6BE JUMPI PUSH2 0x6F1 JUMP JUMPDEST PUSH1 0xFF NOT DUP4 AND DUP7 MSTORE DUP2 DUP7 ADD SWAP4 POP PUSH2 0x6F1 JUMP JUMPDEST PUSH2 0x6C7 DUP6 PUSH2 0x795 JUMP JUMPDEST PUSH1 0x0 JUMPDEST DUP4 DUP2 LT ISZERO PUSH2 0x6E9 JUMPI DUP2 SLOAD DUP2 DUP10 ADD MSTORE PUSH1 0x1 DUP3 ADD SWAP2 POP PUSH1 0x20 DUP2 ADD SWAP1 POP PUSH2 0x6CA JUMP JUMPDEST DUP4 DUP9 ADD SWAP6 POP POP POP JUMPDEST POP POP POP SWAP3 SWAP2 POP POP JUMP JUMPDEST PUSH1 0x0 PUSH2 0x707 PUSH1 0x6 DUP4 PUSH2 0x7C6 JUMP JUMPDEST SWAP2 POP PUSH2 0x712 DUP3 PUSH2 0x91A JUMP JUMPDEST PUSH1 0x6 DUP3 ADD SWAP1 POP SWAP2 SWAP1 POP JUMP JUMPDEST PUSH2 0x726 DUP2 PUSH2 0x827 JUMP JUMPDEST DUP3 MSTORE POP POP JUMP JUMPDEST PUSH1 0x0 PUSH2 0x738 DUP3 DUP5 PUSH2 0x67B JUMP JUMPDEST SWAP2 POP DUP2 SWAP1 POP SWAP3 SWAP2 POP POP JUMP JUMPDEST PUSH1 0x0 PUSH2 0x74E DUP3 PUSH2 0x6FA JUMP JUMPDEST SWAP2 POP DUP2 SWAP1 POP SWAP2 SWAP1 POP JUMP JUMPDEST PUSH1 0x0 PUSH1 0x20 DUP3 ADD SWAP1 POP DUP2 DUP2 SUB PUSH1 0x0 DUP4 ADD MSTORE PUSH2 0x772 DUP2 DUP5 PUSH2 0x642 JUMP JUMPDEST SWAP1 POP SWAP3 SWAP2 POP POP JUMP JUMPDEST PUSH1 0x0 PUSH1 0x20 DUP3 ADD SWAP1 POP PUSH2 0x78F PUSH1 0x0 DUP4 ADD DUP5 PUSH2 0x71D JUMP JUMPDEST SWAP3 SWAP2 POP POP JUMP JUMPDEST PUSH1 0x0 DUP2 SWAP1 POP DUP2 PUSH1 0x0 MSTORE PUSH1 0x20 PUSH1 0x0 KECCAK256 SWAP1 POP SWAP2 SWAP1 POP JUMP JUMPDEST PUSH1 0x0 DUP2 MLOAD SWAP1 POP SWAP2 SWAP1 POP JUMP JUMPDEST PUSH1 0x0 DUP3 DUP3 MSTORE PUSH1 0x20 DUP3 ADD SWAP1 POP SWAP3 SWAP2 POP POP JUMP JUMPDEST PUSH1 0x0 DUP2 SWAP1 POP SWAP3 SWAP2 POP POP JUMP JUMPDEST PUSH1 0x0 PUSH2 0x7DC DUP3 PUSH2 0x827 JUMP JUMPDEST SWAP2 POP PUSH2 0x7E7 DUP4 PUSH2 0x827 JUMP JUMPDEST SWAP3 POP DUP3 PUSH32 0xFFFFFFFFFFFFFFFFFFFFFFFFFFFFFFFFFFFFFFFFFFFFFFFFFFFFFFFFFFFFFFFF SUB DUP3 GT ISZERO PUSH2 0x81C JUMPI PUSH2 0x81B PUSH2 0x8A6 JUMP JUMPDEST JUMPDEST DUP3 DUP3 ADD SWAP1 POP SWAP3 SWAP2 POP POP JUMP JUMPDEST PUSH1 0x0 DUP2 SWAP1 POP SWAP2 SWAP1 POP JUMP JUMPDEST PUSH1 0x0 PUSH4 0xFFFFFFFF DUP3 AND SWAP1 POP SWAP2 SWAP1 POP JUMP JUMPDEST PUSH1 0x0 JUMPDEST DUP4 DUP2 LT ISZERO PUSH2 0x85F JUMPI DUP1 DUP3 ADD MLOAD DUP2 DUP5 ADD MSTORE PUSH1 0x20 DUP2 ADD SWAP1 POP PUSH2 0x844 JUMP JUMPDEST DUP4 DUP2 GT ISZERO PUSH2 0x86E JUMPI PUSH1 0x0 DUP5 DUP5 ADD MSTORE JUMPDEST POP POP POP POP JUMP JUMPDEST PUSH1 0x0 PUSH1 0x2 DUP3 DIV SWAP1 POP PUSH1 0x1 DUP3 AND DUP1 PUSH2 0x88C JUMPI PUSH1 0x7F DUP3 AND SWAP2 POP JUMPDEST PUSH1 0x20 DUP3 LT DUP2 EQ ISZERO PUSH2 0x8A0 JUMPI PUSH2 0x89F PUSH2 0x8D5 JUMP JUMPDEST JUMPDEST POP SWAP2 SWAP1 POP JUMP JUMPDEST PUSH32 0x4E487B7100000000000000000000000000000000000000000000000000000000 PUSH1 0x0 MSTORE PUSH1 0x11 PUSH1 0x4 MSTORE PUSH1 0x24 PUSH1 0x0 REVERT JUMPDEST PUSH32 0x4E487B7100000000000000000000000000000000000000000000000000000000 PUSH1 0x0 MSTORE PUSH1 0x22 PUSH1 0x4 MSTORE PUSH1 0x24 PUSH1 0x0 REVERT JUMPDEST PUSH1 0x0 DUP1 REVERT JUMPDEST PUSH1 0x0 PUSH1 0x1F NOT PUSH1 0x1F DUP4 ADD AND SWAP1 POP SWAP2 SWAP1 POP JUMP JUMPDEST PUSH32 0x564F54494E470000000000000000000000000000000000000000000000000000 PUSH1 0x0 DUP3 ADD MSTORE POP JUMP JUMPDEST PUSH2 0x94C DUP2 PUSH2 0x827 JUMP JUMPDEST DUP2 EQ PUSH2 0x957 JUMPI PUSH1 0x0 DUP1 REVERT JUMPDEST POP JUMP JUMPDEST PUSH2 0x963 DUP2 PUSH2 0x831 JUMP JUMPDEST DUP2 EQ PUSH2 0x96E JUMPI PUSH1 0x0 DUP1 REVERT JUMPDEST POP JUMP INVALID LOG2 PUSH5 0x6970667358 0x22 SLT KECCAK256 POP SWAP13 DUP11 0xA9 0xD4 SWAP8 0xB8 DIV CODESIZE 0x2E 0xDD 0xCC SDIV CALLDATALOAD 0xB7 0xAC 0xBC 0xFC 0xD5 LOG0 PUSH8 0xB1A0B403DB669A6C 0xE6 OR CALL PUSH5 0x736F6C6343 STOP ADDMOD SMOD STOP CALLER "
				},
				"gasEstimates": {
					"creation": {
						"codeDepositCost": "494200",
						"executionCost": "infinite",
						"totalCost": "infinite"
					},
					"external": {
						"_timeout()": "2495",
						"getState()": "infinite",
						"request(uint32,uint256)": "infinite",
						"verdict()": "infinite",
						"voter(uint32,uint32)": "infinite"
					},
					"internal": {
						"set_add(struct TPC.Set storage pointer,uint32)": "76900",
						"set_contains(struct TPC.Set storage pointer,uint32)": "2268",
						"set_size(struct TPC.Set storage pointer)": "2142"
					}
				},
				"methodIdentifiers": {
					"_timeout()": "fff94931",
					"getState()": "1865c57d",
					"request(uint32,uint256)": "36f71c3f",
					"verdict()": "6aba253c",
					"voter(uint32,uint32)": "e2332196"
				}
			},
			"storageLayout": {
				"storage": [
					{
						"astId": 12,
						"contract": "contracts/TPC.sol:TPC",
						"label": "_num_nodes",
						"offset": 0,
						"slot": "0",
						"type": "t_uint32"
					},
					{
						"astId": 14,
						"contract": "contracts/TPC.sol:TPC",
						"label": "_timeout",
						"offset": 0,
						"slot": "1",
						"type": "t_uint256"
					},
					{
						"astId": 17,
						"contract": "contracts/TPC.sol:TPC",
						"label": "_state",
						"offset": 0,
						"slot": "2",
						"type": "t_string_storage"
					},
					{
						"astId": 20,
						"contract": "contracts/TPC.sol:TPC",
						"label": "_voters",
						"offset": 0,
						"slot": "3",
						"type": "t_struct(Set)10_storage"
					}
				],
				"types": {
					"t_array(t_uint32)dyn_storage": {
						"base": "t_uint32",
						"encoding": "dynamic_array",
						"label": "uint32[]",
						"numberOfBytes": "32"
					},
					"t_bool": {
						"encoding": "inplace",
						"label": "bool",
						"numberOfBytes": "1"
					},
					"t_mapping(t_uint32,t_bool)": {
						"encoding": "mapping",
						"key": "t_uint32",
						"label": "mapping(uint32 => bool)",
						"numberOfBytes": "32",
						"value": "t_bool"
					},
					"t_string_storage": {
						"encoding": "bytes",
						"label": "string",
						"numberOfBytes": "32"
					},
					"t_struct(Set)10_storage": {
						"encoding": "inplace",
						"label": "struct TPC.Set",
						"members": [
							{
								"astId": 5,
								"contract": "contracts/TPC.sol:TPC",
								"label": "values",
								"offset": 0,
								"slot": "0",
								"type": "t_array(t_uint32)dyn_storage"
							},
							{
								"astId": 9,
								"contract": "contracts/TPC.sol:TPC",
								"label": "is_in",
								"offset": 0,
								"slot": "1",
								"type": "t_mapping(t_uint32,t_bool)"
							}
						],
						"numberOfBytes": "64"
					},
					"t_uint256": {
						"encoding": "inplace",
						"label": "uint256",
						"numberOfBytes": "32"
					},
					"t_uint32": {
						"encoding": "inplace",
						"label": "uint32",
						"numberOfBytes": "4"
					}
				}
			},
			"userdoc": {
				"kind": "user",
				"methods": {},
				"version": 1
			}
		}
	}
}