{
	"contracts/TPC.sol": {
		"TPC": {
			"abi": [
				{
					"inputs": [
						{
							"internalType": "uint256",
							"name": "",
							"type": "uint256"
						}
					],
					"name": "_participants",
					"outputs": [
						{
							"internalType": "address",
							"name": "",
							"type": "address"
						}
					],
					"stateMutability": "view",
					"type": "function"
				},
				{
					"inputs": [],
					"name": "_state",
					"outputs": [
						{
							"internalType": "enum TPC.State",
							"name": "",
							"type": "uint8"
						}
					],
					"stateMutability": "view",
					"type": "function"
				},
				{
					"inputs": [],
					"name": "_timeout",
					"outputs": [
						{
							"internalType": "uint256",
							"name": "",
							"type": "uint256"
						}
					],
					"stateMutability": "view",
					"type": "function"
				},
				{
					"inputs": [
						{
							"internalType": "uint256",
							"name": "",
							"type": "uint256"
						}
					],
					"name": "_voted",
					"outputs": [
						{
							"internalType": "address",
							"name": "",
							"type": "address"
						}
					],
					"stateMutability": "view",
					"type": "function"
				},
				{
					"inputs": [],
					"name": "getState",
					"outputs": [
						{
							"internalType": "string",
							"name": "",
							"type": "string"
						}
					],
					"stateMutability": "pure",
					"type": "function"
				},
				{
					"inputs": [
						{
							"internalType": "address[]",
							"name": "participants",
							"type": "address[]"
						},
						{
							"internalType": "uint256",
							"name": "timeout",
							"type": "uint256"
						}
					],
					"name": "request",
					"outputs": [],
					"stateMutability": "nonpayable",
					"type": "function"
				},
				{
					"inputs": [],
					"name": "verdict",
					"outputs": [],
					"stateMutability": "nonpayable",
					"type": "function"
				},
				{
					"inputs": [
						{
							"internalType": "int256",
							"name": "vote",
							"type": "int256"
						}
					],
					"name": "voter",
					"outputs": [],
					"stateMutability": "nonpayable",
					"type": "function"
				}
			],
			"devdoc": {
				"details": "Store & retrieve value in a variable",
				"kind": "dev",
				"methods": {},
				"title": "Storage",
				"version": 1
			},
			"evm": {
				"assembly": "    /* \"contracts/TPC.sol\":141:952  contract TPC {... */\n  mstore(0x40, 0x80)\n    /* \"contracts/TPC.sol\":323:333  State.INIT */\n  0x00\n    /* \"contracts/TPC.sol\":301:333  State public _state = State.INIT */\n  0x03\n  exp(0x0100, 0x00)\n  dup2\n  sload\n  dup2\n  0xff\n  mul\n  not\n  and\n  swap1\n  dup4\n  0x03\n  dup2\n  gt\n  iszero\n  tag_1\n  jumpi\n  tag_2\n  tag_3\n  jump\t// in\ntag_2:\ntag_1:\n  mul\n  or\n  swap1\n  sstore\n  pop\n    /* \"contracts/TPC.sol\":141:952  contract TPC {... */\n  callvalue\n  dup1\n  iszero\n  tag_4\n  jumpi\n  0x00\n  dup1\n  revert\ntag_4:\n  pop\n  jump(tag_5)\n    /* \"#utility.yul\":7:187   */\ntag_3:\n    /* \"#utility.yul\":55:132   */\n  0x4e487b7100000000000000000000000000000000000000000000000000000000\n    /* \"#utility.yul\":52:53   */\n  0x00\n    /* \"#utility.yul\":45:133   */\n  mstore\n    /* \"#utility.yul\":152:156   */\n  0x21\n    /* \"#utility.yul\":149:150   */\n  0x04\n    /* \"#utility.yul\":142:157   */\n  mstore\n    /* \"#utility.yul\":176:180   */\n  0x24\n    /* \"#utility.yul\":173:174   */\n  0x00\n    /* \"#utility.yul\":166:181   */\n  revert\n    /* \"contracts/TPC.sol\":141:952  contract TPC {... */\ntag_5:\n  dataSize(sub_0)\n  dup1\n  dataOffset(sub_0)\n  0x00\n  codecopy\n  0x00\n  return\nstop\n\nsub_0: assembly {\n        /* \"contracts/TPC.sol\":141:952  contract TPC {... */\n      mstore(0x40, 0x80)\n      callvalue\n      dup1\n      iszero\n      tag_1\n      jumpi\n      0x00\n      dup1\n      revert\n    tag_1:\n      pop\n      jumpi(tag_2, lt(calldatasize, 0x04))\n      shr(0xe0, calldataload(0x00))\n      dup1\n      0xa1cb31b7\n      gt\n      tag_11\n      jumpi\n      dup1\n      0xa1cb31b7\n      eq\n      tag_7\n      jumpi\n      dup1\n      0xe33fe2de\n      eq\n      tag_8\n      jumpi\n      dup1\n      0xf196f824\n      eq\n      tag_9\n      jumpi\n      dup1\n      0xfff94931\n      eq\n      tag_10\n      jumpi\n      jump(tag_2)\n    tag_11:\n      dup1\n      0x0e2b5e4f\n      eq\n      tag_3\n      jumpi\n      dup1\n      0x170bd1c8\n      eq\n      tag_4\n      jumpi\n      dup1\n      0x1865c57d\n      eq\n      tag_5\n      jumpi\n      dup1\n      0x6aba253c\n      eq\n      tag_6\n      jumpi\n    tag_2:\n      0x00\n      dup1\n      revert\n        /* \"contracts/TPC.sol\":596:803  function voter(int vote) public {... */\n    tag_3:\n      tag_12\n      0x04\n      dup1\n      calldatasize\n      sub\n      dup2\n      add\n      swap1\n      tag_13\n      swap2\n      swap1\n      tag_14\n      jump\t// in\n    tag_13:\n      tag_15\n      jump\t// in\n    tag_12:\n      stop\n        /* \"contracts/TPC.sol\":243:266  address[] public _voted */\n    tag_4:\n      tag_16\n      0x04\n      dup1\n      calldatasize\n      sub\n      dup2\n      add\n      swap1\n      tag_17\n      swap2\n      swap1\n      tag_18\n      jump\t// in\n    tag_17:\n      tag_19\n      jump\t// in\n    tag_16:\n      mload(0x40)\n      tag_20\n      swap2\n      swap1\n      tag_21\n      jump\t// in\n    tag_20:\n      mload(0x40)\n      dup1\n      swap2\n      sub\n      swap1\n      return\n        /* \"contracts/TPC.sol\":863:950  function getState() public pure returns (string memory) {... */\n    tag_5:\n      tag_22\n      tag_23\n      jump\t// in\n    tag_22:\n      mload(0x40)\n      tag_24\n      swap2\n      swap1\n      tag_25\n      jump\t// in\n    tag_24:\n      mload(0x40)\n      dup1\n      swap2\n      sub\n      swap1\n      return\n        /* \"contracts/TPC.sol\":809:857  function verdict() public {... */\n    tag_6:\n      tag_26\n      tag_27\n      jump\t// in\n    tag_26:\n      stop\n        /* \"contracts/TPC.sol\":301:333  State public _state = State.INIT */\n    tag_7:\n      tag_28\n      tag_29\n      jump\t// in\n    tag_28:\n      mload(0x40)\n      tag_30\n      swap2\n      swap1\n      tag_31\n      jump\t// in\n    tag_30:\n      mload(0x40)\n      dup1\n      swap2\n      sub\n      swap1\n      return\n        /* \"contracts/TPC.sol\":358:572  function request(address[] memory participants, uint256 timeout) public {... */\n    tag_8:\n      tag_32\n      0x04\n      dup1\n      calldatasize\n      sub\n      dup2\n      add\n      swap1\n      tag_33\n      swap2\n      swap1\n      tag_34\n      jump\t// in\n    tag_33:\n      tag_35\n      jump\t// in\n    tag_32:\n      stop\n        /* \"contracts/TPC.sol\":207:237  address[] public _participants */\n    tag_9:\n      tag_36\n      0x04\n      dup1\n      calldatasize\n      sub\n      dup2\n      add\n      swap1\n      tag_37\n      swap2\n      swap1\n      tag_18\n      jump\t// in\n    tag_37:\n      tag_38\n      jump\t// in\n    tag_36:\n      mload(0x40)\n      tag_39\n      swap2\n      swap1\n      tag_21\n      jump\t// in\n    tag_39:\n      mload(0x40)\n      dup1\n      swap2\n      sub\n      swap1\n      return\n        /* \"contracts/TPC.sol\":272:295  uint256 public _timeout */\n    tag_10:\n      tag_40\n      tag_41\n      jump\t// in\n    tag_40:\n      mload(0x40)\n      tag_42\n      swap2\n      swap1\n      tag_43\n      jump\t// in\n    tag_42:\n      mload(0x40)\n      dup1\n      swap2\n      sub\n      swap1\n      return\n        /* \"contracts/TPC.sol\":596:803  function voter(int vote) public {... */\n    tag_15:\n        /* \"contracts/TPC.sol\":655:667  State.VOTING */\n      0x01\n        /* \"contracts/TPC.sol\":645:667  _state == State.VOTING */\n      0x03\n      dup2\n      gt\n      iszero\n      tag_45\n      jumpi\n      tag_46\n      tag_47\n      jump\t// in\n    tag_46:\n    tag_45:\n        /* \"contracts/TPC.sol\":645:651  _state */\n      0x03\n      0x00\n      swap1\n      sload\n      swap1\n      0x0100\n      exp\n      swap1\n      div\n      0xff\n      and\n        /* \"contracts/TPC.sol\":645:667  _state == State.VOTING */\n      0x03\n      dup2\n      gt\n      iszero\n      tag_48\n      jumpi\n      tag_49\n      tag_47\n      jump\t// in\n    tag_49:\n    tag_48:\n      eq\n        /* \"contracts/TPC.sol\":638:668  assert(_state == State.VOTING) */\n      tag_50\n      jumpi\n      tag_51\n      tag_52\n      jump\t// in\n    tag_51:\n    tag_50:\n        /* \"contracts/TPC.sol\":693:694  1 */\n      0x01\n        /* \"contracts/TPC.sol\":685:689  vote */\n      dup2\n        /* \"contracts/TPC.sol\":685:694  vote == 1 */\n      eq\n        /* \"contracts/TPC.sol\":678:695  assert(vote == 1) */\n      tag_53\n      jumpi\n      tag_54\n      tag_52\n      jump\t// in\n    tag_54:\n    tag_53:\n        /* \"contracts/TPC.sol\":705:711  _voted */\n      0x01\n        /* \"contracts/TPC.sol\":717:727  msg.sender */\n      caller\n        /* \"contracts/TPC.sol\":705:728  _voted.push(msg.sender) */\n      swap1\n      dup1\n      0x01\n      dup2\n      sload\n      add\n      dup1\n      dup3\n      sstore\n      dup1\n      swap2\n      pop\n      pop\n      0x01\n      swap1\n      sub\n      swap1\n      0x00\n      mstore\n      keccak256(0x00, 0x20)\n      add\n      0x00\n      swap1\n      swap2\n      swap1\n      swap2\n      swap1\n      swap2\n      0x0100\n      exp\n      dup2\n      sload\n      dup2\n      0xffffffffffffffffffffffffffffffffffffffff\n      mul\n      not\n      and\n      swap1\n      dup4\n      0xffffffffffffffffffffffffffffffffffffffff\n      and\n      mul\n      or\n      swap1\n      sstore\n      pop\n        /* \"contracts/TPC.sol\":784:796  State.COMMIT */\n      0x02\n        /* \"contracts/TPC.sol\":775:781  _state */\n      0x03\n      0x00\n        /* \"contracts/TPC.sol\":775:796  _state = State.COMMIT */\n      0x0100\n      exp\n      dup2\n      sload\n      dup2\n      0xff\n      mul\n      not\n      and\n      swap1\n      dup4\n      0x03\n      dup2\n      gt\n      iszero\n      tag_56\n      jumpi\n      tag_57\n      tag_47\n      jump\t// in\n    tag_57:\n    tag_56:\n      mul\n      or\n      swap1\n      sstore\n      pop\n        /* \"contracts/TPC.sol\":596:803  function voter(int vote) public {... */\n      pop\n      jump\t// out\n        /* \"contracts/TPC.sol\":243:266  address[] public _voted */\n    tag_19:\n      0x01\n      dup2\n      dup2\n      sload\n      dup2\n      lt\n      tag_58\n      jumpi\n      0x00\n      dup1\n      revert\n    tag_58:\n      swap1\n      0x00\n      mstore\n      keccak256(0x00, 0x20)\n      add\n      0x00\n      swap2\n      pop\n      sload\n      swap1\n      0x0100\n      exp\n      swap1\n      div\n      0xffffffffffffffffffffffffffffffffffffffff\n      and\n      dup2\n      jump\t// out\n        /* \"contracts/TPC.sol\":863:950  function getState() public pure returns (string memory) {... */\n    tag_23:\n        /* \"contracts/TPC.sol\":904:917  string memory */\n      0x60\n        /* \"contracts/TPC.sol\":929:943  return \"state\" */\n      mload(0x40)\n      dup1\n      0x40\n      add\n      0x40\n      mstore\n      dup1\n      0x05\n      dup2\n      mstore\n      0x20\n      add\n      0x7374617465000000000000000000000000000000000000000000000000000000\n      dup2\n      mstore\n      pop\n      swap1\n      pop\n        /* \"contracts/TPC.sol\":863:950  function getState() public pure returns (string memory) {... */\n      swap1\n      jump\t// out\n        /* \"contracts/TPC.sol\":809:857  function verdict() public {... */\n    tag_27:\n      jump\t// out\n        /* \"contracts/TPC.sol\":301:333  State public _state = State.INIT */\n    tag_29:\n      0x03\n      0x00\n      swap1\n      sload\n      swap1\n      0x0100\n      exp\n      swap1\n      div\n      0xff\n      and\n      dup2\n      jump\t// out\n        /* \"contracts/TPC.sol\":358:572  function request(address[] memory participants, uint256 timeout) public {... */\n    tag_35:\n        /* \"contracts/TPC.sol\":457:467  State.INIT */\n      0x00\n        /* \"contracts/TPC.sol\":447:467  _state == State.INIT */\n      0x03\n      dup2\n      gt\n      iszero\n      tag_63\n      jumpi\n      tag_64\n      tag_47\n      jump\t// in\n    tag_64:\n    tag_63:\n        /* \"contracts/TPC.sol\":447:453  _state */\n      0x03\n      0x00\n      swap1\n      sload\n      swap1\n      0x0100\n      exp\n      swap1\n      div\n      0xff\n      and\n        /* \"contracts/TPC.sol\":447:467  _state == State.INIT */\n      0x03\n      dup2\n      gt\n      iszero\n      tag_65\n      jumpi\n      tag_66\n      tag_47\n      jump\t// in\n    tag_66:\n    tag_65:\n      eq\n        /* \"contracts/TPC.sol\":440:468  assert(_state == State.INIT) */\n      tag_67\n      jumpi\n      tag_68\n      tag_52\n      jump\t// in\n    tag_68:\n    tag_67:\n        /* \"contracts/TPC.sol\":494:506  participants */\n      dup2\n        /* \"contracts/TPC.sol\":478:491  _participants */\n      0x00\n        /* \"contracts/TPC.sol\":478:506  _participants = participants */\n      swap1\n      dup1\n      mload\n      swap1\n      0x20\n      add\n      swap1\n      tag_69\n      swap3\n      swap2\n      swap1\n      tag_70\n      jump\t// in\n    tag_69:\n      pop\n        /* \"contracts/TPC.sol\":527:534  timeout */\n      dup1\n        /* \"contracts/TPC.sol\":516:524  _timeout */\n      0x02\n        /* \"contracts/TPC.sol\":516:534  _timeout = timeout */\n      dup2\n      swap1\n      sstore\n      pop\n        /* \"contracts/TPC.sol\":553:565  State.VOTING */\n      0x01\n        /* \"contracts/TPC.sol\":544:550  _state */\n      0x03\n      0x00\n        /* \"contracts/TPC.sol\":544:565  _state = State.VOTING */\n      0x0100\n      exp\n      dup2\n      sload\n      dup2\n      0xff\n      mul\n      not\n      and\n      swap1\n      dup4\n      0x03\n      dup2\n      gt\n      iszero\n      tag_71\n      jumpi\n      tag_72\n      tag_47\n      jump\t// in\n    tag_72:\n    tag_71:\n      mul\n      or\n      swap1\n      sstore\n      pop\n        /* \"contracts/TPC.sol\":358:572  function request(address[] memory participants, uint256 timeout) public {... */\n      pop\n      pop\n      jump\t// out\n        /* \"contracts/TPC.sol\":207:237  address[] public _participants */\n    tag_38:\n      0x00\n      dup2\n      dup2\n      sload\n      dup2\n      lt\n      tag_73\n      jumpi\n      0x00\n      dup1\n      revert\n    tag_73:\n      swap1\n      0x00\n      mstore\n      keccak256(0x00, 0x20)\n      add\n      0x00\n      swap2\n      pop\n      sload\n      swap1\n      0x0100\n      exp\n      swap1\n      div\n      0xffffffffffffffffffffffffffffffffffffffff\n      and\n      dup2\n      jump\t// out\n        /* \"contracts/TPC.sol\":272:295  uint256 public _timeout */\n    tag_41:\n      sload(0x02)\n      dup2\n      jump\t// out\n    tag_70:\n      dup3\n      dup1\n      sload\n      dup3\n      dup3\n      sstore\n      swap1\n      0x00\n      mstore\n      keccak256(0x00, 0x20)\n      swap1\n      dup2\n      add\n      swap3\n      dup3\n      iszero\n      tag_75\n      jumpi\n      swap2\n      0x20\n      mul\n      dup3\n      add\n    tag_76:\n      dup3\n      dup2\n      gt\n      iszero\n      tag_77\n      jumpi\n      dup3\n      mload\n      dup3\n      exp(0x0100, 0x00)\n      dup2\n      sload\n      dup2\n      0xffffffffffffffffffffffffffffffffffffffff\n      mul\n      not\n      and\n      swap1\n      dup4\n      0xffffffffffffffffffffffffffffffffffffffff\n      and\n      mul\n      or\n      swap1\n      sstore\n      pop\n      swap2\n      0x20\n      add\n      swap2\n      swap1\n      0x01\n      add\n      swap1\n      jump(tag_76)\n    tag_77:\n    tag_75:\n      pop\n      swap1\n      pop\n      tag_78\n      swap2\n      swap1\n      tag_79\n      jump\t// in\n    tag_78:\n      pop\n      swap1\n      jump\t// out\n    tag_79:\n    tag_80:\n      dup1\n      dup3\n      gt\n      iszero\n      tag_81\n      jumpi\n      0x00\n      dup2\n      0x00\n      swap1\n      sstore\n      pop\n      0x01\n      add\n      jump(tag_80)\n    tag_81:\n      pop\n      swap1\n      jump\t// out\n        /* \"#utility.yul\":24:746   */\n    tag_83:\n        /* \"#utility.yul\":120:125   */\n      0x00\n        /* \"#utility.yul\":145:226   */\n      tag_85\n        /* \"#utility.yul\":161:225   */\n      tag_86\n        /* \"#utility.yul\":218:224   */\n      dup5\n        /* \"#utility.yul\":161:225   */\n      tag_87\n      jump\t// in\n    tag_86:\n        /* \"#utility.yul\":145:226   */\n      tag_88\n      jump\t// in\n    tag_85:\n        /* \"#utility.yul\":136:226   */\n      swap1\n      pop\n        /* \"#utility.yul\":246:251   */\n      dup1\n        /* \"#utility.yul\":275:281   */\n      dup4\n        /* \"#utility.yul\":268:273   */\n      dup3\n        /* \"#utility.yul\":261:282   */\n      mstore\n        /* \"#utility.yul\":309:313   */\n      0x20\n        /* \"#utility.yul\":302:307   */\n      dup3\n        /* \"#utility.yul\":298:314   */\n      add\n        /* \"#utility.yul\":291:314   */\n      swap1\n      pop\n        /* \"#utility.yul\":335:341   */\n      dup3\n        /* \"#utility.yul\":385:388   */\n      dup6\n        /* \"#utility.yul\":377:381   */\n      0x20\n        /* \"#utility.yul\":369:375   */\n      dup7\n        /* \"#utility.yul\":365:382   */\n      mul\n        /* \"#utility.yul\":360:363   */\n      dup3\n        /* \"#utility.yul\":356:383   */\n      add\n        /* \"#utility.yul\":353:389   */\n      gt\n        /* \"#utility.yul\":350:493   */\n      iszero\n      tag_89\n      jumpi\n        /* \"#utility.yul\":404:483   */\n      tag_90\n      tag_91\n      jump\t// in\n    tag_90:\n        /* \"#utility.yul\":350:493   */\n    tag_89:\n        /* \"#utility.yul\":517:518   */\n      0x00\n        /* \"#utility.yul\":502:740   */\n    tag_92:\n        /* \"#utility.yul\":527:533   */\n      dup6\n        /* \"#utility.yul\":524:525   */\n      dup2\n        /* \"#utility.yul\":521:534   */\n      lt\n        /* \"#utility.yul\":502:740   */\n      iszero\n      tag_94\n      jumpi\n        /* \"#utility.yul\":595:598   */\n      dup2\n        /* \"#utility.yul\":624:661   */\n      tag_95\n        /* \"#utility.yul\":657:660   */\n      dup9\n        /* \"#utility.yul\":645:655   */\n      dup3\n        /* \"#utility.yul\":624:661   */\n      tag_96\n      jump\t// in\n    tag_95:\n        /* \"#utility.yul\":619:622   */\n      dup5\n        /* \"#utility.yul\":612:662   */\n      mstore\n        /* \"#utility.yul\":691:695   */\n      0x20\n        /* \"#utility.yul\":686:689   */\n      dup5\n        /* \"#utility.yul\":682:696   */\n      add\n        /* \"#utility.yul\":675:696   */\n      swap4\n      pop\n        /* \"#utility.yul\":725:729   */\n      0x20\n        /* \"#utility.yul\":720:723   */\n      dup4\n        /* \"#utility.yul\":716:730   */\n      add\n        /* \"#utility.yul\":709:730   */\n      swap3\n      pop\n        /* \"#utility.yul\":562:740   */\n      pop\n        /* \"#utility.yul\":549:550   */\n      0x01\n        /* \"#utility.yul\":546:547   */\n      dup2\n        /* \"#utility.yul\":542:551   */\n      add\n        /* \"#utility.yul\":537:551   */\n      swap1\n      pop\n        /* \"#utility.yul\":502:740   */\n      jump(tag_92)\n    tag_94:\n        /* \"#utility.yul\":506:520   */\n      pop\n        /* \"#utility.yul\":126:746   */\n      pop\n      pop\n        /* \"#utility.yul\":24:746   */\n      swap4\n      swap3\n      pop\n      pop\n      pop\n      jump\t// out\n        /* \"#utility.yul\":752:891   */\n    tag_96:\n        /* \"#utility.yul\":798:803   */\n      0x00\n        /* \"#utility.yul\":836:842   */\n      dup2\n        /* \"#utility.yul\":823:843   */\n      calldataload\n        /* \"#utility.yul\":814:843   */\n      swap1\n      pop\n        /* \"#utility.yul\":852:885   */\n      tag_98\n        /* \"#utility.yul\":879:884   */\n      dup2\n        /* \"#utility.yul\":852:885   */\n      tag_99\n      jump\t// in\n    tag_98:\n        /* \"#utility.yul\":752:891   */\n      swap3\n      swap2\n      pop\n      pop\n      jump\t// out\n        /* \"#utility.yul\":914:1284   */\n    tag_100:\n        /* \"#utility.yul\":985:990   */\n      0x00\n        /* \"#utility.yul\":1034:1037   */\n      dup3\n        /* \"#utility.yul\":1027:1031   */\n      0x1f\n        /* \"#utility.yul\":1019:1025   */\n      dup4\n        /* \"#utility.yul\":1015:1032   */\n      add\n        /* \"#utility.yul\":1011:1038   */\n      slt\n        /* \"#utility.yul\":1001:1123   */\n      tag_102\n      jumpi\n        /* \"#utility.yul\":1042:1121   */\n      tag_103\n      tag_104\n      jump\t// in\n    tag_103:\n        /* \"#utility.yul\":1001:1123   */\n    tag_102:\n        /* \"#utility.yul\":1159:1165   */\n      dup2\n        /* \"#utility.yul\":1146:1166   */\n      calldataload\n        /* \"#utility.yul\":1184:1278   */\n      tag_105\n        /* \"#utility.yul\":1274:1277   */\n      dup5\n        /* \"#utility.yul\":1266:1272   */\n      dup3\n        /* \"#utility.yul\":1259:1263   */\n      0x20\n        /* \"#utility.yul\":1251:1257   */\n      dup7\n        /* \"#utility.yul\":1247:1264   */\n      add\n        /* \"#utility.yul\":1184:1278   */\n      tag_83\n      jump\t// in\n    tag_105:\n        /* \"#utility.yul\":1175:1278   */\n      swap2\n      pop\n        /* \"#utility.yul\":991:1284   */\n      pop\n        /* \"#utility.yul\":914:1284   */\n      swap3\n      swap2\n      pop\n      pop\n      jump\t// out\n        /* \"#utility.yul\":1290:1427   */\n    tag_106:\n        /* \"#utility.yul\":1335:1340   */\n      0x00\n        /* \"#utility.yul\":1373:1379   */\n      dup2\n        /* \"#utility.yul\":1360:1380   */\n      calldataload\n        /* \"#utility.yul\":1351:1380   */\n      swap1\n      pop\n        /* \"#utility.yul\":1389:1421   */\n      tag_108\n        /* \"#utility.yul\":1415:1420   */\n      dup2\n        /* \"#utility.yul\":1389:1421   */\n      tag_109\n      jump\t// in\n    tag_108:\n        /* \"#utility.yul\":1290:1427   */\n      swap3\n      swap2\n      pop\n      pop\n      jump\t// out\n        /* \"#utility.yul\":1433:1572   */\n    tag_110:\n        /* \"#utility.yul\":1479:1484   */\n      0x00\n        /* \"#utility.yul\":1517:1523   */\n      dup2\n        /* \"#utility.yul\":1504:1524   */\n      calldataload\n        /* \"#utility.yul\":1495:1524   */\n      swap1\n      pop\n        /* \"#utility.yul\":1533:1566   */\n      tag_112\n        /* \"#utility.yul\":1560:1565   */\n      dup2\n        /* \"#utility.yul\":1533:1566   */\n      tag_113\n      jump\t// in\n    tag_112:\n        /* \"#utility.yul\":1433:1572   */\n      swap3\n      swap2\n      pop\n      pop\n      jump\t// out\n        /* \"#utility.yul\":1578:2262   */\n    tag_34:\n        /* \"#utility.yul\":1671:1677   */\n      0x00\n        /* \"#utility.yul\":1679:1685   */\n      dup1\n        /* \"#utility.yul\":1728:1730   */\n      0x40\n        /* \"#utility.yul\":1716:1725   */\n      dup4\n        /* \"#utility.yul\":1707:1714   */\n      dup6\n        /* \"#utility.yul\":1703:1726   */\n      sub\n        /* \"#utility.yul\":1699:1731   */\n      slt\n        /* \"#utility.yul\":1696:1815   */\n      iszero\n      tag_115\n      jumpi\n        /* \"#utility.yul\":1734:1813   */\n      tag_116\n      tag_117\n      jump\t// in\n    tag_116:\n        /* \"#utility.yul\":1696:1815   */\n    tag_115:\n        /* \"#utility.yul\":1882:1883   */\n      0x00\n        /* \"#utility.yul\":1871:1880   */\n      dup4\n        /* \"#utility.yul\":1867:1884   */\n      add\n        /* \"#utility.yul\":1854:1885   */\n      calldataload\n        /* \"#utility.yul\":1912:1930   */\n      0xffffffffffffffff\n        /* \"#utility.yul\":1904:1910   */\n      dup2\n        /* \"#utility.yul\":1901:1931   */\n      gt\n        /* \"#utility.yul\":1898:2015   */\n      iszero\n      tag_118\n      jumpi\n        /* \"#utility.yul\":1934:2013   */\n      tag_119\n      tag_120\n      jump\t// in\n    tag_119:\n        /* \"#utility.yul\":1898:2015   */\n    tag_118:\n        /* \"#utility.yul\":2039:2117   */\n      tag_121\n        /* \"#utility.yul\":2109:2116   */\n      dup6\n        /* \"#utility.yul\":2100:2106   */\n      dup3\n        /* \"#utility.yul\":2089:2098   */\n      dup7\n        /* \"#utility.yul\":2085:2107   */\n      add\n        /* \"#utility.yul\":2039:2117   */\n      tag_100\n      jump\t// in\n    tag_121:\n        /* \"#utility.yul\":2029:2117   */\n      swap3\n      pop\n        /* \"#utility.yul\":1825:2127   */\n      pop\n        /* \"#utility.yul\":2166:2168   */\n      0x20\n        /* \"#utility.yul\":2192:2245   */\n      tag_122\n        /* \"#utility.yul\":2237:2244   */\n      dup6\n        /* \"#utility.yul\":2228:2234   */\n      dup3\n        /* \"#utility.yul\":2217:2226   */\n      dup7\n        /* \"#utility.yul\":2213:2235   */\n      add\n        /* \"#utility.yul\":2192:2245   */\n      tag_110\n      jump\t// in\n    tag_122:\n        /* \"#utility.yul\":2182:2245   */\n      swap2\n      pop\n        /* \"#utility.yul\":2137:2255   */\n      pop\n        /* \"#utility.yul\":1578:2262   */\n      swap3\n      pop\n      swap3\n      swap1\n      pop\n      jump\t// out\n        /* \"#utility.yul\":2268:2595   */\n    tag_14:\n        /* \"#utility.yul\":2326:2332   */\n      0x00\n        /* \"#utility.yul\":2375:2377   */\n      0x20\n        /* \"#utility.yul\":2363:2372   */\n      dup3\n        /* \"#utility.yul\":2354:2361   */\n      dup5\n        /* \"#utility.yul\":2350:2373   */\n      sub\n        /* \"#utility.yul\":2346:2378   */\n      slt\n        /* \"#utility.yul\":2343:2462   */\n      iszero\n      tag_124\n      jumpi\n        /* \"#utility.yul\":2381:2460   */\n      tag_125\n      tag_117\n      jump\t// in\n    tag_125:\n        /* \"#utility.yul\":2343:2462   */\n    tag_124:\n        /* \"#utility.yul\":2501:2502   */\n      0x00\n        /* \"#utility.yul\":2526:2578   */\n      tag_126\n        /* \"#utility.yul\":2570:2577   */\n      dup5\n        /* \"#utility.yul\":2561:2567   */\n      dup3\n        /* \"#utility.yul\":2550:2559   */\n      dup6\n        /* \"#utility.yul\":2546:2568   */\n      add\n        /* \"#utility.yul\":2526:2578   */\n      tag_106\n      jump\t// in\n    tag_126:\n        /* \"#utility.yul\":2516:2578   */\n      swap2\n      pop\n        /* \"#utility.yul\":2472:2588   */\n      pop\n        /* \"#utility.yul\":2268:2595   */\n      swap3\n      swap2\n      pop\n      pop\n      jump\t// out\n        /* \"#utility.yul\":2601:2930   */\n    tag_18:\n        /* \"#utility.yul\":2660:2666   */\n      0x00\n        /* \"#utility.yul\":2709:2711   */\n      0x20\n        /* \"#utility.yul\":2697:2706   */\n      dup3\n        /* \"#utility.yul\":2688:2695   */\n      dup5\n        /* \"#utility.yul\":2684:2707   */\n      sub\n        /* \"#utility.yul\":2680:2712   */\n      slt\n        /* \"#utility.yul\":2677:2796   */\n      iszero\n      tag_128\n      jumpi\n        /* \"#utility.yul\":2715:2794   */\n      tag_129\n      tag_117\n      jump\t// in\n    tag_129:\n        /* \"#utility.yul\":2677:2796   */\n    tag_128:\n        /* \"#utility.yul\":2835:2836   */\n      0x00\n        /* \"#utility.yul\":2860:2913   */\n      tag_130\n        /* \"#utility.yul\":2905:2912   */\n      dup5\n        /* \"#utility.yul\":2896:2902   */\n      dup3\n        /* \"#utility.yul\":2885:2894   */\n      dup6\n        /* \"#utility.yul\":2881:2903   */\n      add\n        /* \"#utility.yul\":2860:2913   */\n      tag_110\n      jump\t// in\n    tag_130:\n        /* \"#utility.yul\":2850:2913   */\n      swap2\n      pop\n        /* \"#utility.yul\":2806:2923   */\n      pop\n        /* \"#utility.yul\":2601:2930   */\n      swap3\n      swap2\n      pop\n      pop\n      jump\t// out\n        /* \"#utility.yul\":2936:3054   */\n    tag_131:\n        /* \"#utility.yul\":3023:3047   */\n      tag_133\n        /* \"#utility.yul\":3041:3046   */\n      dup2\n        /* \"#utility.yul\":3023:3047   */\n      tag_134\n      jump\t// in\n    tag_133:\n        /* \"#utility.yul\":3018:3021   */\n      dup3\n        /* \"#utility.yul\":3011:3048   */\n      mstore\n        /* \"#utility.yul\":2936:3054   */\n      pop\n      pop\n      jump\t// out\n        /* \"#utility.yul\":3060:3201   */\n    tag_135:\n        /* \"#utility.yul\":3152:3194   */\n      tag_137\n        /* \"#utility.yul\":3188:3193   */\n      dup2\n        /* \"#utility.yul\":3152:3194   */\n      tag_138\n      jump\t// in\n    tag_137:\n        /* \"#utility.yul\":3147:3150   */\n      dup3\n        /* \"#utility.yul\":3140:3195   */\n      mstore\n        /* \"#utility.yul\":3060:3201   */\n      pop\n      pop\n      jump\t// out\n        /* \"#utility.yul\":3207:3571   */\n    tag_139:\n        /* \"#utility.yul\":3295:3298   */\n      0x00\n        /* \"#utility.yul\":3323:3362   */\n      tag_141\n        /* \"#utility.yul\":3356:3361   */\n      dup3\n        /* \"#utility.yul\":3323:3362   */\n      tag_142\n      jump\t// in\n    tag_141:\n        /* \"#utility.yul\":3378:3449   */\n      tag_143\n        /* \"#utility.yul\":3442:3448   */\n      dup2\n        /* \"#utility.yul\":3437:3440   */\n      dup6\n        /* \"#utility.yul\":3378:3449   */\n      tag_144\n      jump\t// in\n    tag_143:\n        /* \"#utility.yul\":3371:3449   */\n      swap4\n      pop\n        /* \"#utility.yul\":3458:3510   */\n      tag_145\n        /* \"#utility.yul\":3503:3509   */\n      dup2\n        /* \"#utility.yul\":3498:3501   */\n      dup6\n        /* \"#utility.yul\":3491:3495   */\n      0x20\n        /* \"#utility.yul\":3484:3489   */\n      dup7\n        /* \"#utility.yul\":3480:3496   */\n      add\n        /* \"#utility.yul\":3458:3510   */\n      tag_146\n      jump\t// in\n    tag_145:\n        /* \"#utility.yul\":3535:3564   */\n      tag_147\n        /* \"#utility.yul\":3557:3563   */\n      dup2\n        /* \"#utility.yul\":3535:3564   */\n      tag_148\n      jump\t// in\n    tag_147:\n        /* \"#utility.yul\":3530:3533   */\n      dup5\n        /* \"#utility.yul\":3526:3565   */\n      add\n        /* \"#utility.yul\":3519:3565   */\n      swap2\n      pop\n        /* \"#utility.yul\":3299:3571   */\n      pop\n        /* \"#utility.yul\":3207:3571   */\n      swap3\n      swap2\n      pop\n      pop\n      jump\t// out\n        /* \"#utility.yul\":3577:3695   */\n    tag_149:\n        /* \"#utility.yul\":3664:3688   */\n      tag_151\n        /* \"#utility.yul\":3682:3687   */\n      dup2\n        /* \"#utility.yul\":3664:3688   */\n      tag_152\n      jump\t// in\n    tag_151:\n        /* \"#utility.yul\":3659:3662   */\n      dup3\n        /* \"#utility.yul\":3652:3689   */\n      mstore\n        /* \"#utility.yul\":3577:3695   */\n      pop\n      pop\n      jump\t// out\n        /* \"#utility.yul\":3701:3923   */\n    tag_21:\n        /* \"#utility.yul\":3794:3798   */\n      0x00\n        /* \"#utility.yul\":3832:3834   */\n      0x20\n        /* \"#utility.yul\":3821:3830   */\n      dup3\n        /* \"#utility.yul\":3817:3835   */\n      add\n        /* \"#utility.yul\":3809:3835   */\n      swap1\n      pop\n        /* \"#utility.yul\":3845:3916   */\n      tag_154\n        /* \"#utility.yul\":3913:3914   */\n      0x00\n        /* \"#utility.yul\":3902:3911   */\n      dup4\n        /* \"#utility.yul\":3898:3915   */\n      add\n        /* \"#utility.yul\":3889:3895   */\n      dup5\n        /* \"#utility.yul\":3845:3916   */\n      tag_131\n      jump\t// in\n    tag_154:\n        /* \"#utility.yul\":3701:3923   */\n      swap3\n      swap2\n      pop\n      pop\n      jump\t// out\n        /* \"#utility.yul\":3929:4161   */\n    tag_31:\n        /* \"#utility.yul\":4027:4031   */\n      0x00\n        /* \"#utility.yul\":4065:4067   */\n      0x20\n        /* \"#utility.yul\":4054:4063   */\n      dup3\n        /* \"#utility.yul\":4050:4068   */\n      add\n        /* \"#utility.yul\":4042:4068   */\n      swap1\n      pop\n        /* \"#utility.yul\":4078:4154   */\n      tag_156\n        /* \"#utility.yul\":4151:4152   */\n      0x00\n        /* \"#utility.yul\":4140:4149   */\n      dup4\n        /* \"#utility.yul\":4136:4153   */\n      add\n        /* \"#utility.yul\":4127:4133   */\n      dup5\n        /* \"#utility.yul\":4078:4154   */\n      tag_135\n      jump\t// in\n    tag_156:\n        /* \"#utility.yul\":3929:4161   */\n      swap3\n      swap2\n      pop\n      pop\n      jump\t// out\n        /* \"#utility.yul\":4167:4480   */\n    tag_25:\n        /* \"#utility.yul\":4280:4284   */\n      0x00\n        /* \"#utility.yul\":4318:4320   */\n      0x20\n        /* \"#utility.yul\":4307:4316   */\n      dup3\n        /* \"#utility.yul\":4303:4321   */\n      add\n        /* \"#utility.yul\":4295:4321   */\n      swap1\n      pop\n        /* \"#utility.yul\":4367:4376   */\n      dup2\n        /* \"#utility.yul\":4361:4365   */\n      dup2\n        /* \"#utility.yul\":4357:4377   */\n      sub\n        /* \"#utility.yul\":4353:4354   */\n      0x00\n        /* \"#utility.yul\":4342:4351   */\n      dup4\n        /* \"#utility.yul\":4338:4355   */\n      add\n        /* \"#utility.yul\":4331:4378   */\n      mstore\n        /* \"#utility.yul\":4395:4473   */\n      tag_158\n        /* \"#utility.yul\":4468:4472   */\n      dup2\n        /* \"#utility.yul\":4459:4465   */\n      dup5\n        /* \"#utility.yul\":4395:4473   */\n      tag_139\n      jump\t// in\n    tag_158:\n        /* \"#utility.yul\":4387:4473   */\n      swap1\n      pop\n        /* \"#utility.yul\":4167:4480   */\n      swap3\n      swap2\n      pop\n      pop\n      jump\t// out\n        /* \"#utility.yul\":4486:4708   */\n    tag_43:\n        /* \"#utility.yul\":4579:4583   */\n      0x00\n        /* \"#utility.yul\":4617:4619   */\n      0x20\n        /* \"#utility.yul\":4606:4615   */\n      dup3\n        /* \"#utility.yul\":4602:4620   */\n      add\n        /* \"#utility.yul\":4594:4620   */\n      swap1\n      pop\n        /* \"#utility.yul\":4630:4701   */\n      tag_160\n        /* \"#utility.yul\":4698:4699   */\n      0x00\n        /* \"#utility.yul\":4687:4696   */\n      dup4\n        /* \"#utility.yul\":4683:4700   */\n      add\n        /* \"#utility.yul\":4674:4680   */\n      dup5\n        /* \"#utility.yul\":4630:4701   */\n      tag_149\n      jump\t// in\n    tag_160:\n        /* \"#utility.yul\":4486:4708   */\n      swap3\n      swap2\n      pop\n      pop\n      jump\t// out\n        /* \"#utility.yul\":4714:4843   */\n    tag_88:\n        /* \"#utility.yul\":4748:4754   */\n      0x00\n        /* \"#utility.yul\":4775:4795   */\n      tag_162\n      tag_163\n      jump\t// in\n    tag_162:\n        /* \"#utility.yul\":4765:4795   */\n      swap1\n      pop\n        /* \"#utility.yul\":4804:4837   */\n      tag_164\n        /* \"#utility.yul\":4832:4836   */\n      dup3\n        /* \"#utility.yul\":4824:4830   */\n      dup3\n        /* \"#utility.yul\":4804:4837   */\n      tag_165\n      jump\t// in\n    tag_164:\n        /* \"#utility.yul\":4714:4843   */\n      swap2\n      swap1\n      pop\n      jump\t// out\n        /* \"#utility.yul\":4849:4924   */\n    tag_163:\n        /* \"#utility.yul\":4882:4888   */\n      0x00\n        /* \"#utility.yul\":4915:4917   */\n      0x40\n        /* \"#utility.yul\":4909:4918   */\n      mload\n        /* \"#utility.yul\":4899:4918   */\n      swap1\n      pop\n        /* \"#utility.yul\":4849:4924   */\n      swap1\n      jump\t// out\n        /* \"#utility.yul\":4930:5241   */\n    tag_87:\n        /* \"#utility.yul\":5007:5011   */\n      0x00\n        /* \"#utility.yul\":5097:5115   */\n      0xffffffffffffffff\n        /* \"#utility.yul\":5089:5095   */\n      dup3\n        /* \"#utility.yul\":5086:5116   */\n      gt\n        /* \"#utility.yul\":5083:5139   */\n      iszero\n      tag_168\n      jumpi\n        /* \"#utility.yul\":5119:5137   */\n      tag_169\n      tag_170\n      jump\t// in\n    tag_169:\n        /* \"#utility.yul\":5083:5139   */\n    tag_168:\n        /* \"#utility.yul\":5169:5173   */\n      0x20\n        /* \"#utility.yul\":5161:5167   */\n      dup3\n        /* \"#utility.yul\":5157:5174   */\n      mul\n        /* \"#utility.yul\":5149:5174   */\n      swap1\n      pop\n        /* \"#utility.yul\":5229:5233   */\n      0x20\n        /* \"#utility.yul\":5223:5227   */\n      dup2\n        /* \"#utility.yul\":5219:5234   */\n      add\n        /* \"#utility.yul\":5211:5234   */\n      swap1\n      pop\n        /* \"#utility.yul\":4930:5241   */\n      swap2\n      swap1\n      pop\n      jump\t// out\n        /* \"#utility.yul\":5247:5346   */\n    tag_142:\n        /* \"#utility.yul\":5299:5305   */\n      0x00\n        /* \"#utility.yul\":5333:5338   */\n      dup2\n        /* \"#utility.yul\":5327:5339   */\n      mload\n        /* \"#utility.yul\":5317:5339   */\n      swap1\n      pop\n        /* \"#utility.yul\":5247:5346   */\n      swap2\n      swap1\n      pop\n      jump\t// out\n        /* \"#utility.yul\":5352:5521   */\n    tag_144:\n        /* \"#utility.yul\":5436:5447   */\n      0x00\n        /* \"#utility.yul\":5470:5476   */\n      dup3\n        /* \"#utility.yul\":5465:5468   */\n      dup3\n        /* \"#utility.yul\":5458:5477   */\n      mstore\n        /* \"#utility.yul\":5510:5514   */\n      0x20\n        /* \"#utility.yul\":5505:5508   */\n      dup3\n        /* \"#utility.yul\":5501:5515   */\n      add\n        /* \"#utility.yul\":5486:5515   */\n      swap1\n      pop\n        /* \"#utility.yul\":5352:5521   */\n      swap3\n      swap2\n      pop\n      pop\n      jump\t// out\n        /* \"#utility.yul\":5527:5623   */\n    tag_134:\n        /* \"#utility.yul\":5564:5571   */\n      0x00\n        /* \"#utility.yul\":5593:5617   */\n      tag_174\n        /* \"#utility.yul\":5611:5616   */\n      dup3\n        /* \"#utility.yul\":5593:5617   */\n      tag_175\n      jump\t// in\n    tag_174:\n        /* \"#utility.yul\":5582:5617   */\n      swap1\n      pop\n        /* \"#utility.yul\":5527:5623   */\n      swap2\n      swap1\n      pop\n      jump\t// out\n        /* \"#utility.yul\":5629:5754   */\n    tag_176:\n        /* \"#utility.yul\":5673:5680   */\n      0x00\n        /* \"#utility.yul\":5702:5707   */\n      dup2\n        /* \"#utility.yul\":5691:5707   */\n      swap1\n      pop\n        /* \"#utility.yul\":5708:5748   */\n      tag_178\n        /* \"#utility.yul\":5742:5747   */\n      dup3\n        /* \"#utility.yul\":5708:5748   */\n      tag_179\n      jump\t// in\n    tag_178:\n        /* \"#utility.yul\":5629:5754   */\n      swap2\n      swap1\n      pop\n      jump\t// out\n        /* \"#utility.yul\":5760:5836   */\n    tag_180:\n        /* \"#utility.yul\":5796:5803   */\n      0x00\n        /* \"#utility.yul\":5825:5830   */\n      dup2\n        /* \"#utility.yul\":5814:5830   */\n      swap1\n      pop\n        /* \"#utility.yul\":5760:5836   */\n      swap2\n      swap1\n      pop\n      jump\t// out\n        /* \"#utility.yul\":5842:5968   */\n    tag_175:\n        /* \"#utility.yul\":5879:5886   */\n      0x00\n        /* \"#utility.yul\":5919:5961   */\n      0xffffffffffffffffffffffffffffffffffffffff\n        /* \"#utility.yul\":5912:5917   */\n      dup3\n        /* \"#utility.yul\":5908:5962   */\n      and\n        /* \"#utility.yul\":5897:5962   */\n      swap1\n      pop\n        /* \"#utility.yul\":5842:5968   */\n      swap2\n      swap1\n      pop\n      jump\t// out\n        /* \"#utility.yul\":5974:6051   */\n    tag_152:\n        /* \"#utility.yul\":6011:6018   */\n      0x00\n        /* \"#utility.yul\":6040:6045   */\n      dup2\n        /* \"#utility.yul\":6029:6045   */\n      swap1\n      pop\n        /* \"#utility.yul\":5974:6051   */\n      swap2\n      swap1\n      pop\n      jump\t// out\n        /* \"#utility.yul\":6057:6182   */\n    tag_138:\n        /* \"#utility.yul\":6112:6121   */\n      0x00\n        /* \"#utility.yul\":6145:6176   */\n      tag_185\n        /* \"#utility.yul\":6170:6175   */\n      dup3\n        /* \"#utility.yul\":6145:6176   */\n      tag_176\n      jump\t// in\n    tag_185:\n        /* \"#utility.yul\":6132:6176   */\n      swap1\n      pop\n        /* \"#utility.yul\":6057:6182   */\n      swap2\n      swap1\n      pop\n      jump\t// out\n        /* \"#utility.yul\":6188:6495   */\n    tag_146:\n        /* \"#utility.yul\":6256:6257   */\n      0x00\n        /* \"#utility.yul\":6266:6379   */\n    tag_187:\n        /* \"#utility.yul\":6280:6286   */\n      dup4\n        /* \"#utility.yul\":6277:6278   */\n      dup2\n        /* \"#utility.yul\":6274:6287   */\n      lt\n        /* \"#utility.yul\":6266:6379   */\n      iszero\n      tag_189\n      jumpi\n        /* \"#utility.yul\":6365:6366   */\n      dup1\n        /* \"#utility.yul\":6360:6363   */\n      dup3\n        /* \"#utility.yul\":6356:6367   */\n      add\n        /* \"#utility.yul\":6350:6368   */\n      mload\n        /* \"#utility.yul\":6346:6347   */\n      dup2\n        /* \"#utility.yul\":6341:6344   */\n      dup5\n        /* \"#utility.yul\":6337:6348   */\n      add\n        /* \"#utility.yul\":6330:6369   */\n      mstore\n        /* \"#utility.yul\":6302:6304   */\n      0x20\n        /* \"#utility.yul\":6299:6300   */\n      dup2\n        /* \"#utility.yul\":6295:6305   */\n      add\n        /* \"#utility.yul\":6290:6305   */\n      swap1\n      pop\n        /* \"#utility.yul\":6266:6379   */\n      jump(tag_187)\n    tag_189:\n        /* \"#utility.yul\":6397:6403   */\n      dup4\n        /* \"#utility.yul\":6394:6395   */\n      dup2\n        /* \"#utility.yul\":6391:6404   */\n      gt\n        /* \"#utility.yul\":6388:6489   */\n      iszero\n      tag_190\n      jumpi\n        /* \"#utility.yul\":6477:6478   */\n      0x00\n        /* \"#utility.yul\":6468:6474   */\n      dup5\n        /* \"#utility.yul\":6463:6466   */\n      dup5\n        /* \"#utility.yul\":6459:6475   */\n      add\n        /* \"#utility.yul\":6452:6479   */\n      mstore\n        /* \"#utility.yul\":6388:6489   */\n    tag_190:\n        /* \"#utility.yul\":6237:6495   */\n      pop\n        /* \"#utility.yul\":6188:6495   */\n      pop\n      pop\n      pop\n      jump\t// out\n        /* \"#utility.yul\":6501:6782   */\n    tag_165:\n        /* \"#utility.yul\":6584:6611   */\n      tag_192\n        /* \"#utility.yul\":6606:6610   */\n      dup3\n        /* \"#utility.yul\":6584:6611   */\n      tag_148\n      jump\t// in\n    tag_192:\n        /* \"#utility.yul\":6576:6582   */\n      dup2\n        /* \"#utility.yul\":6572:6612   */\n      add\n        /* \"#utility.yul\":6714:6720   */\n      dup2\n        /* \"#utility.yul\":6702:6712   */\n      dup2\n        /* \"#utility.yul\":6699:6721   */\n      lt\n        /* \"#utility.yul\":6678:6696   */\n      0xffffffffffffffff\n        /* \"#utility.yul\":6666:6676   */\n      dup3\n        /* \"#utility.yul\":6663:6697   */\n      gt\n        /* \"#utility.yul\":6660:6722   */\n      or\n        /* \"#utility.yul\":6657:6745   */\n      iszero\n      tag_193\n      jumpi\n        /* \"#utility.yul\":6725:6743   */\n      tag_194\n      tag_170\n      jump\t// in\n    tag_194:\n        /* \"#utility.yul\":6657:6745   */\n    tag_193:\n        /* \"#utility.yul\":6765:6775   */\n      dup1\n        /* \"#utility.yul\":6761:6763   */\n      0x40\n        /* \"#utility.yul\":6754:6776   */\n      mstore\n        /* \"#utility.yul\":6544:6782   */\n      pop\n        /* \"#utility.yul\":6501:6782   */\n      pop\n      pop\n      jump\t// out\n        /* \"#utility.yul\":6788:6968   */\n    tag_52:\n        /* \"#utility.yul\":6836:6913   */\n      0x4e487b7100000000000000000000000000000000000000000000000000000000\n        /* \"#utility.yul\":6833:6834   */\n      0x00\n        /* \"#utility.yul\":6826:6914   */\n      mstore\n        /* \"#utility.yul\":6933:6937   */\n      0x01\n        /* \"#utility.yul\":6930:6931   */\n      0x04\n        /* \"#utility.yul\":6923:6938   */\n      mstore\n        /* \"#utility.yul\":6957:6961   */\n      0x24\n        /* \"#utility.yul\":6954:6955   */\n      0x00\n        /* \"#utility.yul\":6947:6962   */\n      revert\n        /* \"#utility.yul\":6974:7154   */\n    tag_47:\n        /* \"#utility.yul\":7022:7099   */\n      0x4e487b7100000000000000000000000000000000000000000000000000000000\n        /* \"#utility.yul\":7019:7020   */\n      0x00\n        /* \"#utility.yul\":7012:7100   */\n      mstore\n        /* \"#utility.yul\":7119:7123   */\n      0x21\n        /* \"#utility.yul\":7116:7117   */\n      0x04\n        /* \"#utility.yul\":7109:7124   */\n      mstore\n        /* \"#utility.yul\":7143:7147   */\n      0x24\n        /* \"#utility.yul\":7140:7141   */\n      0x00\n        /* \"#utility.yul\":7133:7148   */\n      revert\n        /* \"#utility.yul\":7160:7340   */\n    tag_170:\n        /* \"#utility.yul\":7208:7285   */\n      0x4e487b7100000000000000000000000000000000000000000000000000000000\n        /* \"#utility.yul\":7205:7206   */\n      0x00\n        /* \"#utility.yul\":7198:7286   */\n      mstore\n        /* \"#utility.yul\":7305:7309   */\n      0x41\n        /* \"#utility.yul\":7302:7303   */\n      0x04\n        /* \"#utility.yul\":7295:7310   */\n      mstore\n        /* \"#utility.yul\":7329:7333   */\n      0x24\n        /* \"#utility.yul\":7326:7327   */\n      0x00\n        /* \"#utility.yul\":7319:7334   */\n      revert\n        /* \"#utility.yul\":7346:7463   */\n    tag_104:\n        /* \"#utility.yul\":7455:7456   */\n      0x00\n        /* \"#utility.yul\":7452:7453   */\n      dup1\n        /* \"#utility.yul\":7445:7457   */\n      revert\n        /* \"#utility.yul\":7469:7586   */\n    tag_91:\n        /* \"#utility.yul\":7578:7579   */\n      0x00\n        /* \"#utility.yul\":7575:7576   */\n      dup1\n        /* \"#utility.yul\":7568:7580   */\n      revert\n        /* \"#utility.yul\":7592:7709   */\n    tag_120:\n        /* \"#utility.yul\":7701:7702   */\n      0x00\n        /* \"#utility.yul\":7698:7699   */\n      dup1\n        /* \"#utility.yul\":7691:7703   */\n      revert\n        /* \"#utility.yul\":7715:7832   */\n    tag_117:\n        /* \"#utility.yul\":7824:7825   */\n      0x00\n        /* \"#utility.yul\":7821:7822   */\n      dup1\n        /* \"#utility.yul\":7814:7826   */\n      revert\n        /* \"#utility.yul\":7838:7940   */\n    tag_148:\n        /* \"#utility.yul\":7879:7885   */\n      0x00\n        /* \"#utility.yul\":7930:7932   */\n      0x1f\n        /* \"#utility.yul\":7926:7933   */\n      not\n        /* \"#utility.yul\":7921:7923   */\n      0x1f\n        /* \"#utility.yul\":7914:7919   */\n      dup4\n        /* \"#utility.yul\":7910:7924   */\n      add\n        /* \"#utility.yul\":7906:7934   */\n      and\n        /* \"#utility.yul\":7896:7934   */\n      swap1\n      pop\n        /* \"#utility.yul\":7838:7940   */\n      swap2\n      swap1\n      pop\n      jump\t// out\n        /* \"#utility.yul\":7946:8058   */\n    tag_179:\n        /* \"#utility.yul\":8026:8027   */\n      0x04\n        /* \"#utility.yul\":8019:8024   */\n      dup2\n        /* \"#utility.yul\":8016:8028   */\n      lt\n        /* \"#utility.yul\":8006:8052   */\n      tag_204\n      jumpi\n        /* \"#utility.yul\":8032:8050   */\n      tag_205\n      tag_47\n      jump\t// in\n    tag_205:\n        /* \"#utility.yul\":8006:8052   */\n    tag_204:\n        /* \"#utility.yul\":7946:8058   */\n      pop\n      jump\t// out\n        /* \"#utility.yul\":8064:8186   */\n    tag_99:\n        /* \"#utility.yul\":8137:8161   */\n      tag_207\n        /* \"#utility.yul\":8155:8160   */\n      dup2\n        /* \"#utility.yul\":8137:8161   */\n      tag_134\n      jump\t// in\n    tag_207:\n        /* \"#utility.yul\":8130:8135   */\n      dup2\n        /* \"#utility.yul\":8127:8162   */\n      eq\n        /* \"#utility.yul\":8117:8180   */\n      tag_208\n      jumpi\n        /* \"#utility.yul\":8176:8177   */\n      0x00\n        /* \"#utility.yul\":8173:8174   */\n      dup1\n        /* \"#utility.yul\":8166:8178   */\n      revert\n        /* \"#utility.yul\":8117:8180   */\n    tag_208:\n        /* \"#utility.yul\":8064:8186   */\n      pop\n      jump\t// out\n        /* \"#utility.yul\":8192:8312   */\n    tag_109:\n        /* \"#utility.yul\":8264:8287   */\n      tag_210\n        /* \"#utility.yul\":8281:8286   */\n      dup2\n        /* \"#utility.yul\":8264:8287   */\n      tag_180\n      jump\t// in\n    tag_210:\n        /* \"#utility.yul\":8257:8262   */\n      dup2\n        /* \"#utility.yul\":8254:8288   */\n      eq\n        /* \"#utility.yul\":8244:8306   */\n      tag_211\n      jumpi\n        /* \"#utility.yul\":8302:8303   */\n      0x00\n        /* \"#utility.yul\":8299:8300   */\n      dup1\n        /* \"#utility.yul\":8292:8304   */\n      revert\n        /* \"#utility.yul\":8244:8306   */\n    tag_211:\n        /* \"#utility.yul\":8192:8312   */\n      pop\n      jump\t// out\n        /* \"#utility.yul\":8318:8440   */\n    tag_113:\n        /* \"#utility.yul\":8391:8415   */\n      tag_213\n        /* \"#utility.yul\":8409:8414   */\n      dup2\n        /* \"#utility.yul\":8391:8415   */\n      tag_152\n      jump\t// in\n    tag_213:\n        /* \"#utility.yul\":8384:8389   */\n      dup2\n        /* \"#utility.yul\":8381:8416   */\n      eq\n        /* \"#utility.yul\":8371:8434   */\n      tag_214\n      jumpi\n        /* \"#utility.yul\":8430:8431   */\n      0x00\n        /* \"#utility.yul\":8427:8428   */\n      dup1\n        /* \"#utility.yul\":8420:8432   */\n      revert\n        /* \"#utility.yul\":8371:8434   */\n    tag_214:\n        /* \"#utility.yul\":8318:8440   */\n      pop\n      jump\t// out\n\n    auxdata: 0xa26469706673582212209ebc12384f1da19b7834da455564dc0045b393f9609e366fe32fca359227074464736f6c63430008070033\n}\n",
				"bytecode": {
					"linkReferences": {},
					"object": "60806040526000600360006101000a81548160ff0219169083600381111561002a57610029610041565b5b021790555034801561003b57600080fd5b50610070565b7f4e487b7100000000000000000000000000000000000000000000000000000000600052602160045260246000fd5b6109668061007f6000396000f3fe608060405234801561001057600080fd5b50600436106100885760003560e01c8063a1cb31b71161005b578063a1cb31b714610101578063e33fe2de1461011f578063f196f8241461013b578063fff949311461016b57610088565b80630e2b5e4f1461008d578063170bd1c8146100a95780631865c57d146100d95780636aba253c146100f7575b600080fd5b6100a760048036038101906100a291906105b6565b610189565b005b6100c360048036038101906100be91906105e3565b61026f565b6040516100d09190610676565b60405180910390f35b6100e16102ae565b6040516100ee91906106ac565b60405180910390f35b6100ff6102eb565b005b6101096102ed565b6040516101169190610691565b60405180910390f35b6101396004803603810190610134919061055a565b610300565b005b610155600480360381019061015091906105e3565b610391565b6040516101629190610676565b60405180910390f35b6101736103d0565b60405161018091906106ce565b60405180910390f35b6001600381111561019d5761019c610854565b5b600360009054906101000a900460ff1660038111156101bf576101be610854565b5b146101cd576101cc610825565b5b600181146101de576101dd610825565b5b6001339080600181540180825580915050600190039060005260206000200160009091909190916101000a81548173ffffffffffffffffffffffffffffffffffffffff021916908373ffffffffffffffffffffffffffffffffffffffff1602179055506002600360006101000a81548160ff0219169083600381111561026757610266610854565b5b021790555050565b6001818154811061027f57600080fd5b906000526020600020016000915054906101000a900473ffffffffffffffffffffffffffffffffffffffff1681565b60606040518060400160405280600581526020017f7374617465000000000000000000000000000000000000000000000000000000815250905090565b565b600360009054906101000a900460ff1681565b6000600381111561031457610313610854565b5b600360009054906101000a900460ff16600381111561033657610335610854565b5b1461034457610343610825565b5b816000908051906020019061035a9291906103d6565b50806002819055506001600360006101000a81548160ff0219169083600381111561038857610387610854565b5b02179055505050565b600081815481106103a157600080fd5b906000526020600020016000915054906101000a900473ffffffffffffffffffffffffffffffffffffffff1681565b60025481565b82805482825590600052602060002090810192821561044f579160200282015b8281111561044e5782518260006101000a81548173ffffffffffffffffffffffffffffffffffffffff021916908373ffffffffffffffffffffffffffffffffffffffff160217905550916020019190600101906103f6565b5b50905061045c9190610460565b5090565b5b80821115610479576000816000905550600101610461565b5090565b600061049061048b8461070e565b6106e9565b905080838252602082019050828560208602820111156104b3576104b26108b7565b5b60005b858110156104e357816104c988826104ed565b8452602084019350602083019250506001810190506104b6565b5050509392505050565b6000813590506104fc816108eb565b92915050565b600082601f830112610517576105166108b2565b5b813561052784826020860161047d565b91505092915050565b60008135905061053f81610902565b92915050565b60008135905061055481610919565b92915050565b60008060408385031215610571576105706108c1565b5b600083013567ffffffffffffffff81111561058f5761058e6108bc565b5b61059b85828601610502565b92505060206105ac85828601610545565b9150509250929050565b6000602082840312156105cc576105cb6108c1565b5b60006105da84828501610530565b91505092915050565b6000602082840312156105f9576105f86108c1565b5b600061060784828501610545565b91505092915050565b61061981610756565b82525050565b610628816107af565b82525050565b60006106398261073a565b6106438185610745565b93506106538185602086016107c1565b61065c816108c6565b840191505092915050565b610670816107a5565b82525050565b600060208201905061068b6000830184610610565b92915050565b60006020820190506106a6600083018461061f565b92915050565b600060208201905081810360008301526106c6818461062e565b905092915050565b60006020820190506106e36000830184610667565b92915050565b60006106f3610704565b90506106ff82826107f4565b919050565b6000604051905090565b600067ffffffffffffffff82111561072957610728610883565b5b602082029050602081019050919050565b600081519050919050565b600082825260208201905092915050565b600061076182610785565b9050919050565b6000819050610776826108d7565b919050565b6000819050919050565b600073ffffffffffffffffffffffffffffffffffffffff82169050919050565b6000819050919050565b60006107ba82610768565b9050919050565b60005b838110156107df5780820151818401526020810190506107c4565b838111156107ee576000848401525b50505050565b6107fd826108c6565b810181811067ffffffffffffffff8211171561081c5761081b610883565b5b80604052505050565b7f4e487b7100000000000000000000000000000000000000000000000000000000600052600160045260246000fd5b7f4e487b7100000000000000000000000000000000000000000000000000000000600052602160045260246000fd5b7f4e487b7100000000000000000000000000000000000000000000000000000000600052604160045260246000fd5b600080fd5b600080fd5b600080fd5b600080fd5b6000601f19601f8301169050919050565b600481106108e8576108e7610854565b5b50565b6108f481610756565b81146108ff57600080fd5b50565b61090b8161077b565b811461091657600080fd5b50565b610922816107a5565b811461092d57600080fd5b5056fea26469706673582212209ebc12384f1da19b7834da455564dc0045b393f9609e366fe32fca359227074464736f6c63430008070033",
					"opcodes": "PUSH1 0x80 PUSH1 0x40 MSTORE PUSH1 0x0 PUSH1 0x3 PUSH1 0x0 PUSH2 0x100 EXP DUP2 SLOAD DUP2 PUSH1 0xFF MUL NOT AND SWAP1 DUP4 PUSH1 0x3 DUP2 GT ISZERO PUSH2 0x2A JUMPI PUSH2 0x29 PUSH2 0x41 JUMP JUMPDEST JUMPDEST MUL OR SWAP1 SSTORE POP CALLVALUE DUP1 ISZERO PUSH2 0x3B JUMPI PUSH1 0x0 DUP1 REVERT JUMPDEST POP PUSH2 0x70 JUMP JUMPDEST PUSH32 0x4E487B7100000000000000000000000000000000000000000000000000000000 PUSH1 0x0 MSTORE PUSH1 0x21 PUSH1 0x4 MSTORE PUSH1 0x24 PUSH1 0x0 REVERT JUMPDEST PUSH2 0x966 DUP1 PUSH2 0x7F PUSH1 0x0 CODECOPY PUSH1 0x0 RETURN INVALID PUSH1 0x80 PUSH1 0x40 MSTORE CALLVALUE DUP1 ISZERO PUSH2 0x10 JUMPI PUSH1 0x0 DUP1 REVERT JUMPDEST POP PUSH1 0x4 CALLDATASIZE LT PUSH2 0x88 JUMPI PUSH1 0x0 CALLDATALOAD PUSH1 0xE0 SHR DUP1 PUSH4 0xA1CB31B7 GT PUSH2 0x5B JUMPI DUP1 PUSH4 0xA1CB31B7 EQ PUSH2 0x101 JUMPI DUP1 PUSH4 0xE33FE2DE EQ PUSH2 0x11F JUMPI DUP1 PUSH4 0xF196F824 EQ PUSH2 0x13B JUMPI DUP1 PUSH4 0xFFF94931 EQ PUSH2 0x16B JUMPI PUSH2 0x88 JUMP JUMPDEST DUP1 PUSH4 0xE2B5E4F EQ PUSH2 0x8D JUMPI DUP1 PUSH4 0x170BD1C8 EQ PUSH2 0xA9 JUMPI DUP1 PUSH4 0x1865C57D EQ PUSH2 0xD9 JUMPI DUP1 PUSH4 0x6ABA253C EQ PUSH2 0xF7 JUMPI JUMPDEST PUSH1 0x0 DUP1 REVERT JUMPDEST PUSH2 0xA7 PUSH1 0x4 DUP1 CALLDATASIZE SUB DUP2 ADD SWAP1 PUSH2 0xA2 SWAP2 SWAP1 PUSH2 0x5B6 JUMP JUMPDEST PUSH2 0x189 JUMP JUMPDEST STOP JUMPDEST PUSH2 0xC3 PUSH1 0x4 DUP1 CALLDATASIZE SUB DUP2 ADD SWAP1 PUSH2 0xBE SWAP2 SWAP1 PUSH2 0x5E3 JUMP JUMPDEST PUSH2 0x26F JUMP JUMPDEST PUSH1 0x40 MLOAD PUSH2 0xD0 SWAP2 SWAP1 PUSH2 0x676 JUMP JUMPDEST PUSH1 0x40 MLOAD DUP1 SWAP2 SUB SWAP1 RETURN JUMPDEST PUSH2 0xE1 PUSH2 0x2AE JUMP JUMPDEST PUSH1 0x40 MLOAD PUSH2 0xEE SWAP2 SWAP1 PUSH2 0x6AC JUMP JUMPDEST PUSH1 0x40 MLOAD DUP1 SWAP2 SUB SWAP1 RETURN JUMPDEST PUSH2 0xFF PUSH2 0x2EB JUMP JUMPDEST STOP JUMPDEST PUSH2 0x109 PUSH2 0x2ED JUMP JUMPDEST PUSH1 0x40 MLOAD PUSH2 0x116 SWAP2 SWAP1 PUSH2 0x691 JUMP JUMPDEST PUSH1 0x40 MLOAD DUP1 SWAP2 SUB SWAP1 RETURN JUMPDEST PUSH2 0x139 PUSH1 0x4 DUP1 CALLDATASIZE SUB DUP2 ADD SWAP1 PUSH2 0x134 SWAP2 SWAP1 PUSH2 0x55A JUMP JUMPDEST PUSH2 0x300 JUMP JUMPDEST STOP JUMPDEST PUSH2 0x155 PUSH1 0x4 DUP1 CALLDATASIZE SUB DUP2 ADD SWAP1 PUSH2 0x150 SWAP2 SWAP1 PUSH2 0x5E3 JUMP JUMPDEST PUSH2 0x391 JUMP JUMPDEST PUSH1 0x40 MLOAD PUSH2 0x162 SWAP2 SWAP1 PUSH2 0x676 JUMP JUMPDEST PUSH1 0x40 MLOAD DUP1 SWAP2 SUB SWAP1 RETURN JUMPDEST PUSH2 0x173 PUSH2 0x3D0 JUMP JUMPDEST PUSH1 0x40 MLOAD PUSH2 0x180 SWAP2 SWAP1 PUSH2 0x6CE JUMP JUMPDEST PUSH1 0x40 MLOAD DUP1 SWAP2 SUB SWAP1 RETURN JUMPDEST PUSH1 0x1 PUSH1 0x3 DUP2 GT ISZERO PUSH2 0x19D JUMPI PUSH2 0x19C PUSH2 0x854 JUMP JUMPDEST JUMPDEST PUSH1 0x3 PUSH1 0x0 SWAP1 SLOAD SWAP1 PUSH2 0x100 EXP SWAP1 DIV PUSH1 0xFF AND PUSH1 0x3 DUP2 GT ISZERO PUSH2 0x1BF JUMPI PUSH2 0x1BE PUSH2 0x854 JUMP JUMPDEST JUMPDEST EQ PUSH2 0x1CD JUMPI PUSH2 0x1CC PUSH2 0x825 JUMP JUMPDEST JUMPDEST PUSH1 0x1 DUP2 EQ PUSH2 0x1DE JUMPI PUSH2 0x1DD PUSH2 0x825 JUMP JUMPDEST JUMPDEST PUSH1 0x1 CALLER SWAP1 DUP1 PUSH1 0x1 DUP2 SLOAD ADD DUP1 DUP3 SSTORE DUP1 SWAP2 POP POP PUSH1 0x1 SWAP1 SUB SWAP1 PUSH1 0x0 MSTORE PUSH1 0x20 PUSH1 0x0 KECCAK256 ADD PUSH1 0x0 SWAP1 SWAP2 SWAP1 SWAP2 SWAP1 SWAP2 PUSH2 0x100 EXP DUP2 SLOAD DUP2 PUSH20 0xFFFFFFFFFFFFFFFFFFFFFFFFFFFFFFFFFFFFFFFF MUL NOT AND SWAP1 DUP4 PUSH20 0xFFFFFFFFFFFFFFFFFFFFFFFFFFFFFFFFFFFFFFFF AND MUL OR SWAP1 SSTORE POP PUSH1 0x2 PUSH1 0x3 PUSH1 0x0 PUSH2 0x100 EXP DUP2 SLOAD DUP2 PUSH1 0xFF MUL NOT AND SWAP1 DUP4 PUSH1 0x3 DUP2 GT ISZERO PUSH2 0x267 JUMPI PUSH2 0x266 PUSH2 0x854 JUMP JUMPDEST JUMPDEST MUL OR SWAP1 SSTORE POP POP JUMP JUMPDEST PUSH1 0x1 DUP2 DUP2 SLOAD DUP2 LT PUSH2 0x27F JUMPI PUSH1 0x0 DUP1 REVERT JUMPDEST SWAP1 PUSH1 0x0 MSTORE PUSH1 0x20 PUSH1 0x0 KECCAK256 ADD PUSH1 0x0 SWAP2 POP SLOAD SWAP1 PUSH2 0x100 EXP SWAP1 DIV PUSH20 0xFFFFFFFFFFFFFFFFFFFFFFFFFFFFFFFFFFFFFFFF AND DUP2 JUMP JUMPDEST PUSH1 0x60 PUSH1 0x40 MLOAD DUP1 PUSH1 0x40 ADD PUSH1 0x40 MSTORE DUP1 PUSH1 0x5 DUP2 MSTORE PUSH1 0x20 ADD PUSH32 0x7374617465000000000000000000000000000000000000000000000000000000 DUP2 MSTORE POP SWAP1 POP SWAP1 JUMP JUMPDEST JUMP JUMPDEST PUSH1 0x3 PUSH1 0x0 SWAP1 SLOAD SWAP1 PUSH2 0x100 EXP SWAP1 DIV PUSH1 0xFF AND DUP2 JUMP JUMPDEST PUSH1 0x0 PUSH1 0x3 DUP2 GT ISZERO PUSH2 0x314 JUMPI PUSH2 0x313 PUSH2 0x854 JUMP JUMPDEST JUMPDEST PUSH1 0x3 PUSH1 0x0 SWAP1 SLOAD SWAP1 PUSH2 0x100 EXP SWAP1 DIV PUSH1 0xFF AND PUSH1 0x3 DUP2 GT ISZERO PUSH2 0x336 JUMPI PUSH2 0x335 PUSH2 0x854 JUMP JUMPDEST JUMPDEST EQ PUSH2 0x344 JUMPI PUSH2 0x343 PUSH2 0x825 JUMP JUMPDEST JUMPDEST DUP2 PUSH1 0x0 SWAP1 DUP1 MLOAD SWAP1 PUSH1 0x20 ADD SWAP1 PUSH2 0x35A SWAP3 SWAP2 SWAP1 PUSH2 0x3D6 JUMP JUMPDEST POP DUP1 PUSH1 0x2 DUP2 SWAP1 SSTORE POP PUSH1 0x1 PUSH1 0x3 PUSH1 0x0 PUSH2 0x100 EXP DUP2 SLOAD DUP2 PUSH1 0xFF MUL NOT AND SWAP1 DUP4 PUSH1 0x3 DUP2 GT ISZERO PUSH2 0x388 JUMPI PUSH2 0x387 PUSH2 0x854 JUMP JUMPDEST JUMPDEST MUL OR SWAP1 SSTORE POP POP POP JUMP JUMPDEST PUSH1 0x0 DUP2 DUP2 SLOAD DUP2 LT PUSH2 0x3A1 JUMPI PUSH1 0x0 DUP1 REVERT JUMPDEST SWAP1 PUSH1 0x0 MSTORE PUSH1 0x20 PUSH1 0x0 KECCAK256 ADD PUSH1 0x0 SWAP2 POP SLOAD SWAP1 PUSH2 0x100 EXP SWAP1 DIV PUSH20 0xFFFFFFFFFFFFFFFFFFFFFFFFFFFFFFFFFFFFFFFF AND DUP2 JUMP JUMPDEST PUSH1 0x2 SLOAD DUP2 JUMP JUMPDEST DUP3 DUP1 SLOAD DUP3 DUP3 SSTORE SWAP1 PUSH1 0x0 MSTORE PUSH1 0x20 PUSH1 0x0 KECCAK256 SWAP1 DUP2 ADD SWAP3 DUP3 ISZERO PUSH2 0x44F JUMPI SWAP2 PUSH1 0x20 MUL DUP3 ADD JUMPDEST DUP3 DUP2 GT ISZERO PUSH2 0x44E JUMPI DUP3 MLOAD DUP3 PUSH1 0x0 PUSH2 0x100 EXP DUP2 SLOAD DUP2 PUSH20 0xFFFFFFFFFFFFFFFFFFFFFFFFFFFFFFFFFFFFFFFF MUL NOT AND SWAP1 DUP4 PUSH20 0xFFFFFFFFFFFFFFFFFFFFFFFFFFFFFFFFFFFFFFFF AND MUL OR SWAP1 SSTORE POP SWAP2 PUSH1 0x20 ADD SWAP2 SWAP1 PUSH1 0x1 ADD SWAP1 PUSH2 0x3F6 JUMP JUMPDEST JUMPDEST POP SWAP1 POP PUSH2 0x45C SWAP2 SWAP1 PUSH2 0x460 JUMP JUMPDEST POP SWAP1 JUMP JUMPDEST JUMPDEST DUP1 DUP3 GT ISZERO PUSH2 0x479 JUMPI PUSH1 0x0 DUP2 PUSH1 0x0 SWAP1 SSTORE POP PUSH1 0x1 ADD PUSH2 0x461 JUMP JUMPDEST POP SWAP1 JUMP JUMPDEST PUSH1 0x0 PUSH2 0x490 PUSH2 0x48B DUP5 PUSH2 0x70E JUMP JUMPDEST PUSH2 0x6E9 JUMP JUMPDEST SWAP1 POP DUP1 DUP4 DUP3 MSTORE PUSH1 0x20 DUP3 ADD SWAP1 POP DUP3 DUP6 PUSH1 0x20 DUP7 MUL DUP3 ADD GT ISZERO PUSH2 0x4B3 JUMPI PUSH2 0x4B2 PUSH2 0x8B7 JUMP JUMPDEST JUMPDEST PUSH1 0x0 JUMPDEST DUP6 DUP2 LT ISZERO PUSH2 0x4E3 JUMPI DUP2 PUSH2 0x4C9 DUP9 DUP3 PUSH2 0x4ED JUMP JUMPDEST DUP5 MSTORE PUSH1 0x20 DUP5 ADD SWAP4 POP PUSH1 0x20 DUP4 ADD SWAP3 POP POP PUSH1 0x1 DUP2 ADD SWAP1 POP PUSH2 0x4B6 JUMP JUMPDEST POP POP POP SWAP4 SWAP3 POP POP POP JUMP JUMPDEST PUSH1 0x0 DUP2 CALLDATALOAD SWAP1 POP PUSH2 0x4FC DUP2 PUSH2 0x8EB JUMP JUMPDEST SWAP3 SWAP2 POP POP JUMP JUMPDEST PUSH1 0x0 DUP3 PUSH1 0x1F DUP4 ADD SLT PUSH2 0x517 JUMPI PUSH2 0x516 PUSH2 0x8B2 JUMP JUMPDEST JUMPDEST DUP2 CALLDATALOAD PUSH2 0x527 DUP5 DUP3 PUSH1 0x20 DUP7 ADD PUSH2 0x47D JUMP JUMPDEST SWAP2 POP POP SWAP3 SWAP2 POP POP JUMP JUMPDEST PUSH1 0x0 DUP2 CALLDATALOAD SWAP1 POP PUSH2 0x53F DUP2 PUSH2 0x902 JUMP JUMPDEST SWAP3 SWAP2 POP POP JUMP JUMPDEST PUSH1 0x0 DUP2 CALLDATALOAD SWAP1 POP PUSH2 0x554 DUP2 PUSH2 0x919 JUMP JUMPDEST SWAP3 SWAP2 POP POP JUMP JUMPDEST PUSH1 0x0 DUP1 PUSH1 0x40 DUP4 DUP6 SUB SLT ISZERO PUSH2 0x571 JUMPI PUSH2 0x570 PUSH2 0x8C1 JUMP JUMPDEST JUMPDEST PUSH1 0x0 DUP4 ADD CALLDATALOAD PUSH8 0xFFFFFFFFFFFFFFFF DUP2 GT ISZERO PUSH2 0x58F JUMPI PUSH2 0x58E PUSH2 0x8BC JUMP JUMPDEST JUMPDEST PUSH2 0x59B DUP6 DUP3 DUP7 ADD PUSH2 0x502 JUMP JUMPDEST SWAP3 POP POP PUSH1 0x20 PUSH2 0x5AC DUP6 DUP3 DUP7 ADD PUSH2 0x545 JUMP JUMPDEST SWAP2 POP POP SWAP3 POP SWAP3 SWAP1 POP JUMP JUMPDEST PUSH1 0x0 PUSH1 0x20 DUP3 DUP5 SUB SLT ISZERO PUSH2 0x5CC JUMPI PUSH2 0x5CB PUSH2 0x8C1 JUMP JUMPDEST JUMPDEST PUSH1 0x0 PUSH2 0x5DA DUP5 DUP3 DUP6 ADD PUSH2 0x530 JUMP JUMPDEST SWAP2 POP POP SWAP3 SWAP2 POP POP JUMP JUMPDEST PUSH1 0x0 PUSH1 0x20 DUP3 DUP5 SUB SLT ISZERO PUSH2 0x5F9 JUMPI PUSH2 0x5F8 PUSH2 0x8C1 JUMP JUMPDEST JUMPDEST PUSH1 0x0 PUSH2 0x607 DUP5 DUP3 DUP6 ADD PUSH2 0x545 JUMP JUMPDEST SWAP2 POP POP SWAP3 SWAP2 POP POP JUMP JUMPDEST PUSH2 0x619 DUP2 PUSH2 0x756 JUMP JUMPDEST DUP3 MSTORE POP POP JUMP JUMPDEST PUSH2 0x628 DUP2 PUSH2 0x7AF JUMP JUMPDEST DUP3 MSTORE POP POP JUMP JUMPDEST PUSH1 0x0 PUSH2 0x639 DUP3 PUSH2 0x73A JUMP JUMPDEST PUSH2 0x643 DUP2 DUP6 PUSH2 0x745 JUMP JUMPDEST SWAP4 POP PUSH2 0x653 DUP2 DUP6 PUSH1 0x20 DUP7 ADD PUSH2 0x7C1 JUMP JUMPDEST PUSH2 0x65C DUP2 PUSH2 0x8C6 JUMP JUMPDEST DUP5 ADD SWAP2 POP POP SWAP3 SWAP2 POP POP JUMP JUMPDEST PUSH2 0x670 DUP2 PUSH2 0x7A5 JUMP JUMPDEST DUP3 MSTORE POP POP JUMP JUMPDEST PUSH1 0x0 PUSH1 0x20 DUP3 ADD SWAP1 POP PUSH2 0x68B PUSH1 0x0 DUP4 ADD DUP5 PUSH2 0x610 JUMP JUMPDEST SWAP3 SWAP2 POP POP JUMP JUMPDEST PUSH1 0x0 PUSH1 0x20 DUP3 ADD SWAP1 POP PUSH2 0x6A6 PUSH1 0x0 DUP4 ADD DUP5 PUSH2 0x61F JUMP JUMPDEST SWAP3 SWAP2 POP POP JUMP JUMPDEST PUSH1 0x0 PUSH1 0x20 DUP3 ADD SWAP1 POP DUP2 DUP2 SUB PUSH1 0x0 DUP4 ADD MSTORE PUSH2 0x6C6 DUP2 DUP5 PUSH2 0x62E JUMP JUMPDEST SWAP1 POP SWAP3 SWAP2 POP POP JUMP JUMPDEST PUSH1 0x0 PUSH1 0x20 DUP3 ADD SWAP1 POP PUSH2 0x6E3 PUSH1 0x0 DUP4 ADD DUP5 PUSH2 0x667 JUMP JUMPDEST SWAP3 SWAP2 POP POP JUMP JUMPDEST PUSH1 0x0 PUSH2 0x6F3 PUSH2 0x704 JUMP JUMPDEST SWAP1 POP PUSH2 0x6FF DUP3 DUP3 PUSH2 0x7F4 JUMP JUMPDEST SWAP2 SWAP1 POP JUMP JUMPDEST PUSH1 0x0 PUSH1 0x40 MLOAD SWAP1 POP SWAP1 JUMP JUMPDEST PUSH1 0x0 PUSH8 0xFFFFFFFFFFFFFFFF DUP3 GT ISZERO PUSH2 0x729 JUMPI PUSH2 0x728 PUSH2 0x883 JUMP JUMPDEST JUMPDEST PUSH1 0x20 DUP3 MUL SWAP1 POP PUSH1 0x20 DUP2 ADD SWAP1 POP SWAP2 SWAP1 POP JUMP JUMPDEST PUSH1 0x0 DUP2 MLOAD SWAP1 POP SWAP2 SWAP1 POP JUMP JUMPDEST PUSH1 0x0 DUP3 DUP3 MSTORE PUSH1 0x20 DUP3 ADD SWAP1 POP SWAP3 SWAP2 POP POP JUMP JUMPDEST PUSH1 0x0 PUSH2 0x761 DUP3 PUSH2 0x785 JUMP JUMPDEST SWAP1 POP SWAP2 SWAP1 POP JUMP JUMPDEST PUSH1 0x0 DUP2 SWAP1 POP PUSH2 0x776 DUP3 PUSH2 0x8D7 JUMP JUMPDEST SWAP2 SWAP1 POP JUMP JUMPDEST PUSH1 0x0 DUP2 SWAP1 POP SWAP2 SWAP1 POP JUMP JUMPDEST PUSH1 0x0 PUSH20 0xFFFFFFFFFFFFFFFFFFFFFFFFFFFFFFFFFFFFFFFF DUP3 AND SWAP1 POP SWAP2 SWAP1 POP JUMP JUMPDEST PUSH1 0x0 DUP2 SWAP1 POP SWAP2 SWAP1 POP JUMP JUMPDEST PUSH1 0x0 PUSH2 0x7BA DUP3 PUSH2 0x768 JUMP JUMPDEST SWAP1 POP SWAP2 SWAP1 POP JUMP JUMPDEST PUSH1 0x0 JUMPDEST DUP4 DUP2 LT ISZERO PUSH2 0x7DF JUMPI DUP1 DUP3 ADD MLOAD DUP2 DUP5 ADD MSTORE PUSH1 0x20 DUP2 ADD SWAP1 POP PUSH2 0x7C4 JUMP JUMPDEST DUP4 DUP2 GT ISZERO PUSH2 0x7EE JUMPI PUSH1 0x0 DUP5 DUP5 ADD MSTORE JUMPDEST POP POP POP POP JUMP JUMPDEST PUSH2 0x7FD DUP3 PUSH2 0x8C6 JUMP JUMPDEST DUP2 ADD DUP2 DUP2 LT PUSH8 0xFFFFFFFFFFFFFFFF DUP3 GT OR ISZERO PUSH2 0x81C JUMPI PUSH2 0x81B PUSH2 0x883 JUMP JUMPDEST JUMPDEST DUP1 PUSH1 0x40 MSTORE POP POP POP JUMP JUMPDEST PUSH32 0x4E487B7100000000000000000000000000000000000000000000000000000000 PUSH1 0x0 MSTORE PUSH1 0x1 PUSH1 0x4 MSTORE PUSH1 0x24 PUSH1 0x0 REVERT JUMPDEST PUSH32 0x4E487B7100000000000000000000000000000000000000000000000000000000 PUSH1 0x0 MSTORE PUSH1 0x21 PUSH1 0x4 MSTORE PUSH1 0x24 PUSH1 0x0 REVERT JUMPDEST PUSH32 0x4E487B7100000000000000000000000000000000000000000000000000000000 PUSH1 0x0 MSTORE PUSH1 0x41 PUSH1 0x4 MSTORE PUSH1 0x24 PUSH1 0x0 REVERT JUMPDEST PUSH1 0x0 DUP1 REVERT JUMPDEST PUSH1 0x0 DUP1 REVERT JUMPDEST PUSH1 0x0 DUP1 REVERT JUMPDEST PUSH1 0x0 DUP1 REVERT JUMPDEST PUSH1 0x0 PUSH1 0x1F NOT PUSH1 0x1F DUP4 ADD AND SWAP1 POP SWAP2 SWAP1 POP JUMP JUMPDEST PUSH1 0x4 DUP2 LT PUSH2 0x8E8 JUMPI PUSH2 0x8E7 PUSH2 0x854 JUMP JUMPDEST JUMPDEST POP JUMP JUMPDEST PUSH2 0x8F4 DUP2 PUSH2 0x756 JUMP JUMPDEST DUP2 EQ PUSH2 0x8FF JUMPI PUSH1 0x0 DUP1 REVERT JUMPDEST POP JUMP JUMPDEST PUSH2 0x90B DUP2 PUSH2 0x77B JUMP JUMPDEST DUP2 EQ PUSH2 0x916 JUMPI PUSH1 0x0 DUP1 REVERT JUMPDEST POP JUMP JUMPDEST PUSH2 0x922 DUP2 PUSH2 0x7A5 JUMP JUMPDEST DUP2 EQ PUSH2 0x92D JUMPI PUSH1 0x0 DUP1 REVERT JUMPDEST POP JUMP INVALID LOG2 PUSH5 0x6970667358 0x22 SLT KECCAK256 SWAP15 0xBC SLT CODESIZE 0x4F SAR LOG1 SWAP12 PUSH25 0x34DA455564DC0045B393F9609E366FE32FCA35922707446473 PUSH16 0x6C634300080700330000000000000000 "
				},
				"gasEstimates": {
					"creation": {
						"codeDepositCost": "481200",
						"executionCost": "24817",
						"totalCost": "506017"
					},
					"external": {
						"_participants(uint256)": "5000",
						"_state()": "2560",
						"_timeout()": "2495",
						"_voted(uint256)": "4979",
						"getState()": "infinite",
						"request(address[],uint256)": "infinite",
						"verdict()": "211",
						"voter(int256)": "75506"
					}
				},
				"methodIdentifiers": {
					"_participants(uint256)": "f196f824",
					"_state()": "a1cb31b7",
					"_timeout()": "fff94931",
					"_voted(uint256)": "170bd1c8",
					"getState()": "1865c57d",
					"request(address[],uint256)": "e33fe2de",
					"verdict()": "6aba253c",
					"voter(int256)": "0e2b5e4f"
				}
			},
			"userdoc": {
				"kind": "user",
				"methods": {},
				"version": 1
			}
		}
	}
}